{
  "contractName": "Arbitrator",
  "abi": [
    {
      "constant": true,
      "inputs": [],
      "name": "metadata",
      "outputs": [
        {
          "name": "",
          "type": "string"
        }
      ],
      "payable": false,
      "stateMutability": "view",
      "type": "function",
      "signature": "0x392f37e9"
    },
    {
      "constant": true,
      "inputs": [],
      "name": "owner",
      "outputs": [
        {
          "name": "",
          "type": "address"
        }
      ],
      "payable": false,
      "stateMutability": "view",
      "type": "function",
      "signature": "0x8da5cb5b"
    },
    {
      "constant": true,
      "inputs": [
        {
          "name": "",
          "type": "bytes32"
        }
      ],
      "name": "arbitration_bounties",
      "outputs": [
        {
          "name": "",
          "type": "uint256"
        }
      ],
      "payable": false,
      "stateMutability": "view",
      "type": "function",
      "signature": "0xa20dd43b"
    },
    {
      "constant": true,
      "inputs": [],
      "name": "realitio",
      "outputs": [
        {
          "name": "",
          "type": "address"
        }
      ],
      "payable": false,
      "stateMutability": "view",
      "type": "function",
      "signature": "0xbc8802a2"
    },
    {
      "constant": false,
      "inputs": [
        {
          "name": "newOwner",
          "type": "address"
        }
      ],
      "name": "transferOwnership",
      "outputs": [],
      "payable": false,
      "stateMutability": "nonpayable",
      "type": "function",
      "signature": "0xf2fde38b"
    },
    {
      "inputs": [],
      "payable": false,
      "stateMutability": "nonpayable",
      "type": "constructor",
      "signature": "constructor"
    },
    {
      "payable": true,
      "stateMutability": "payable",
      "type": "fallback"
    },
    {
      "anonymous": false,
      "inputs": [
        {
          "indexed": true,
          "name": "question_id",
          "type": "bytes32"
        },
        {
          "indexed": false,
          "name": "fee_paid",
          "type": "uint256"
        },
        {
          "indexed": false,
          "name": "requester",
          "type": "address"
        },
        {
          "indexed": false,
          "name": "remaining",
          "type": "uint256"
        }
      ],
      "name": "LogRequestArbitration",
      "type": "event",
      "signature": "0xdf8a830581aa05b0b824a0c184007c33a1ad9100a41751c9ded9f2b4fefb16ba"
    },
    {
      "anonymous": false,
      "inputs": [
        {
          "indexed": false,
          "name": "realitio",
          "type": "address"
        }
      ],
      "name": "LogSetRealitio",
      "type": "event",
      "signature": "0x568b4ce4fc4d09c939362effe33053025b93088cab521fc476f469966c7efdd5"
    },
    {
      "anonymous": false,
      "inputs": [
        {
          "indexed": false,
          "name": "fee",
          "type": "uint256"
        }
      ],
      "name": "LogSetQuestionFee",
      "type": "event",
      "signature": "0x173ec7037500587e8ac3402cac8426c5c2bac605eabd93f790422e621633d711"
    },
    {
      "anonymous": false,
      "inputs": [
        {
          "indexed": false,
          "name": "fee",
          "type": "uint256"
        }
      ],
      "name": "LogSetDisputeFee",
      "type": "event",
      "signature": "0xbc1292d8ca346c1397b1176ce2935afd34c4365fece415b14e3a9242eae388f5"
    },
    {
      "anonymous": false,
      "inputs": [
        {
          "indexed": true,
          "name": "question_id",
          "type": "bytes32"
        },
        {
          "indexed": false,
          "name": "fee",
          "type": "uint256"
        }
      ],
      "name": "LogSetCustomDisputeFee",
      "type": "event",
      "signature": "0xe4887440991624b147d2129ab0befa8c1df4cff87b22513c8eea7cb16ed2aaf2"
    },
    {
      "constant": true,
      "inputs": [],
      "name": "realitycheck",
      "outputs": [
        {
          "name": "",
          "type": "address"
        }
      ],
      "payable": false,
      "stateMutability": "view",
      "type": "function",
      "signature": "0x0c2a48e2"
    },
    {
      "constant": false,
      "inputs": [
        {
          "name": "addr",
          "type": "address"
        }
      ],
      "name": "setRealitio",
      "outputs": [],
      "payable": false,
      "stateMutability": "nonpayable",
      "type": "function",
      "signature": "0x79ca21a2"
    },
    {
      "constant": false,
      "inputs": [
        {
          "name": "fee",
          "type": "uint256"
        }
      ],
      "name": "setDisputeFee",
      "outputs": [],
      "payable": false,
      "stateMutability": "nonpayable",
      "type": "function",
      "signature": "0x17299c04"
    },
    {
      "constant": false,
      "inputs": [
        {
          "name": "question_id",
          "type": "bytes32"
        },
        {
          "name": "fee",
          "type": "uint256"
        }
      ],
      "name": "setCustomDisputeFee",
      "outputs": [],
      "payable": false,
      "stateMutability": "nonpayable",
      "type": "function",
      "signature": "0x4381a07b"
    },
    {
      "constant": true,
      "inputs": [
        {
          "name": "question_id",
          "type": "bytes32"
        }
      ],
      "name": "getDisputeFee",
      "outputs": [
        {
          "name": "",
          "type": "uint256"
        }
      ],
      "payable": false,
      "stateMutability": "view",
      "type": "function",
      "signature": "0xa22352e2"
    },
    {
      "constant": false,
      "inputs": [
        {
          "name": "fee",
          "type": "uint256"
        }
      ],
      "name": "setQuestionFee",
      "outputs": [],
      "payable": false,
      "stateMutability": "nonpayable",
      "type": "function",
      "signature": "0x4df6ca2a"
    },
    {
      "constant": false,
      "inputs": [
        {
          "name": "question_id",
          "type": "bytes32"
        },
        {
          "name": "answer",
          "type": "bytes32"
        },
        {
          "name": "answerer",
          "type": "address"
        }
      ],
      "name": "submitAnswerByArbitrator",
      "outputs": [],
      "payable": false,
      "stateMutability": "nonpayable",
      "type": "function",
      "signature": "0xfe92049d"
    },
    {
      "constant": false,
      "inputs": [
        {
          "name": "question_id",
          "type": "bytes32"
        },
        {
          "name": "max_previous",
          "type": "uint256"
        }
      ],
      "name": "requestArbitration",
      "outputs": [
        {
          "name": "",
          "type": "bool"
        }
      ],
      "payable": true,
      "stateMutability": "payable",
      "type": "function",
      "signature": "0xa829c3d1"
    },
    {
      "constant": false,
      "inputs": [
        {
          "name": "addr",
          "type": "address"
        }
      ],
      "name": "withdraw",
      "outputs": [],
      "payable": false,
      "stateMutability": "nonpayable",
      "type": "function",
      "signature": "0x51cff8d9"
    },
    {
      "constant": false,
      "inputs": [],
      "name": "callWithdraw",
      "outputs": [],
      "payable": false,
      "stateMutability": "nonpayable",
      "type": "function",
      "signature": "0xdad901be"
    },
    {
      "constant": false,
      "inputs": [
        {
          "name": "_metadata",
          "type": "string"
        }
      ],
      "name": "setMetaData",
      "outputs": [],
      "payable": false,
      "stateMutability": "nonpayable",
      "type": "function",
      "signature": "0xd821f81a"
    }
  ],
  "bytecode": "0x608060405234801561001057600080fd5b5060008054600160a060020a031990811633908117909116179055610c508061003a6000396000f3006080604052600436106100e55763ffffffff7c01000000000000000000000000000000000000000000000000000000006000350416630c2a48e281146100e757806317299c0414610118578063392f37e9146101305780634381a07b146101ba5780634df6ca2a146101d557806351cff8d9146101ed57806379ca21a21461020e5780638da5cb5b1461022f578063a20dd43b14610244578063a22352e21461026e578063a829c3d114610286578063bc8802a2146102a8578063d821f81a146102bd578063dad901be14610316578063f2fde38b1461032b578063fe92049d1461034c575b005b3480156100f357600080fd5b506100fc610373565b60408051600160a060020a039092168252519081900360200190f35b34801561012457600080fd5b506100e5600435610383565b34801561013c57600080fd5b506101456103d5565b6040805160208082528351818301528351919283929083019185019080838360005b8381101561017f578181015183820152602001610167565b50505050905090810190601f1680156101ac5780820380516001836020036101000a031916815260200191505b509250505060405180910390f35b3480156101c657600080fd5b506100e5600435602435610463565b3480156101e157600080fd5b506100e56004356104c5565b3480156101f957600080fd5b506100e5600160a060020a0360043516610591565b34801561021a57600080fd5b506100e5600160a060020a03600435166105e2565b34801561023b57600080fd5b506100fc61065a565b34801561025057600080fd5b5061025c600435610669565b60408051918252519081900360200190f35b34801561027a57600080fd5b5061025c60043561067b565b6102946004356024356106ae565b604080519115158252519081900360200190f35b3480156102b457600080fd5b506100fc6109bc565b3480156102c957600080fd5b506040805160206004803580820135601f81018490048402850184019095528484526100e59436949293602493928401919081908401838280828437509497506109cb9650505050505050565b34801561032257600080fd5b506100e56109f5565b34801561033757600080fd5b506100e5600160a060020a0360043516610a92565b34801561035857600080fd5b506100e5600435602435600160a060020a0360443516610ad8565b600154600160a060020a03165b90565b600054600160a060020a0316331461039a57600080fd5b60038190556040805182815290517fbc1292d8ca346c1397b1176ce2935afd34c4365fece415b14e3a9242eae388f59181900360200190a150565b6005805460408051602060026001851615610100026000190190941693909304601f8101849004840282018401909252818152929183018282801561045b5780601f106104305761010080835404028352916020019161045b565b820191906000526020600020905b81548152906001019060200180831161043e57829003601f168201915b505050505081565b600054600160a060020a0316331461047a57600080fd5b6000828152600460209081526040918290208390558151838152915184927fe4887440991624b147d2129ab0befa8c1df4cff87b22513c8eea7cb16ed2aaf292908290030190a25050565b600054600160a060020a031633146104dc57600080fd5b600154604080517f4df6ca2a000000000000000000000000000000000000000000000000000000008152600481018490529051600160a060020a0390921691634df6ca2a9160248082019260009290919082900301818387803b15801561054257600080fd5b505af1158015610556573d6000803e3d6000fd5b50506040805184815290517f173ec7037500587e8ac3402cac8426c5c2bac605eabd93f790422e621633d7119350908190036020019150a150565b600054600160a060020a031633146105a857600080fd5b604051600160a060020a03821690303180156108fc02916000818181858888f193505050501580156105de573d6000803e3d6000fd5b5050565b600054600160a060020a031633146105f957600080fd5b60018054600160a060020a03831673ffffffffffffffffffffffffffffffffffffffff19909116811790915560408051918252517f568b4ce4fc4d09c939362effe33053025b93088cab521fc476f469966c7efdd59181900360200190a150565b600054600160a060020a031681565b60026020526000908152604090205481565b6000818152600460205260408120548110610698576003546106a8565b6000828152600460205260409020545b92915050565b60008060006106bc8561067b565b91506000821161075357604080517f08c379a000000000000000000000000000000000000000000000000000000000815260206004820152603c60248201527f5468652061726269747261746f72206d7573742068617665207365742061206e60448201527f6f6e2d7a65726f2066656520666f7220746865207175657374696f6e00000000606482015290519081900360840190fd5b506000848152600260205260409020805434019081905581811061084757600154604080517ff6a94ecb00000000000000000000000000000000000000000000000000000000815260048101889052336024820152604481018790529051600160a060020a039092169163f6a94ecb9160648082019260009290919082900301818387803b1580156107e457600080fd5b505af11580156107f8573d6000803e3d6000fd5b50506040805134815233602082015260008183015290518893507fdf8a830581aa05b0b824a0c184007c33a1ad9100a41751c9ded9f2b4fefb16ba92509081900360600190a2600192506109b4565b600154604080517f7f8d429e000000000000000000000000000000000000000000000000000000008152600481018890529051600160a060020a0390921691637f8d429e916024808201926020929091908290030181600087803b1580156108ae57600080fd5b505af11580156108c2573d6000803e3d6000fd5b505050506040513d60208110156108d857600080fd5b50511561096c57604080517f08c379a000000000000000000000000000000000000000000000000000000000815260206004820152602960248201527f546865207175657374696f6e206d757374206e6f742068617665206265656e2060448201527f66696e616c697a65640000000000000000000000000000000000000000000000606482015290519081900360840190fd5b6040805134815233602082015282840381830152905186917fdf8a830581aa05b0b824a0c184007c33a1ad9100a41751c9ded9f2b4fefb16ba919081900360600190a2600092505b505092915050565b600154600160a060020a031681565b600054600160a060020a031633146109e257600080fd5b80516105de906005906020840190610b8c565b600054600160a060020a03163314610a0c57600080fd5b600160009054906101000a9004600160a060020a0316600160a060020a0316633ccfd60b6040518163ffffffff167c0100000000000000000000000000000000000000000000000000000000028152600401600060405180830381600087803b158015610a7857600080fd5b505af1158015610a8c573d6000803e3d6000fd5b50505050565b600054600160a060020a03163314610aa957600080fd5b6000805473ffffffffffffffffffffffffffffffffffffffff1916600160a060020a0392909216919091179055565b600054600160a060020a03163314610aef57600080fd5b60008381526002602052604080822082905560015481517ffe92049d0000000000000000000000000000000000000000000000000000000081526004810187905260248101869052600160a060020a0385811660448301529251929091169263fe92049d9260648084019382900301818387803b158015610b6f57600080fd5b505af1158015610b83573d6000803e3d6000fd5b50505050505050565b828054600181600116156101000203166002900490600052602060002090601f016020900481019282601f10610bcd57805160ff1916838001178555610bfa565b82800160010185558215610bfa579182015b82811115610bfa578251825591602001919060010190610bdf565b50610c06929150610c0a565b5090565b61038091905b80821115610c065760008155600101610c105600a165627a7a72305820507dade866bb858d31bda070bf01309bad7687a4e5f95b51b2f9fc11d2c13f8c0029",
  "source": "pragma solidity ^0.4.25;\n\nimport './Owned.sol';\nimport './Realitio.sol';\n\ncontract Arbitrator is Owned {\n\n    Realitio public realitio;\n\n    mapping(bytes32 => uint256) public arbitration_bounties;\n\n    uint256 dispute_fee;\n    mapping(bytes32 => uint256) custom_dispute_fees;\n\n    string public metadata;\n\n    event LogRequestArbitration(\n        bytes32 indexed question_id,\n        uint256 fee_paid,\n        address requester,\n        uint256 remaining\n    );\n\n    event LogSetRealitio(\n        address realitio\n    );\n\n    event LogSetQuestionFee(\n        uint256 fee\n    );\n\n\n    event LogSetDisputeFee(\n        uint256 fee\n    );\n\n    event LogSetCustomDisputeFee(\n        bytes32 indexed question_id,\n        uint256 fee\n    );\n\n    /// @notice Constructor. Sets the deploying address as owner.\n    constructor() \n    public {\n        owner = msg.sender;\n    }\n\n    /// @notice Returns the Realitio contract address - deprecated in favour of realitio()\n    function realitycheck() \n    external view returns(Realitio) {\n        return realitio;\n    }\n\n    /// @notice Set the Reality Check contract address\n    /// @param addr The address of the Reality Check contract\n    function setRealitio(address addr) \n        onlyOwner \n    public {\n        realitio = Realitio(addr);\n        emit LogSetRealitio(addr);\n    }\n\n    /// @notice Set the default fee\n    /// @param fee The default fee amount\n    function setDisputeFee(uint256 fee) \n        onlyOwner \n    public {\n        dispute_fee = fee;\n        emit LogSetDisputeFee(fee);\n    }\n\n    /// @notice Set a custom fee for this particular question\n    /// @param question_id The question in question\n    /// @param fee The fee amount\n    function setCustomDisputeFee(bytes32 question_id, uint256 fee) \n        onlyOwner \n    public {\n        custom_dispute_fees[question_id] = fee;\n        emit LogSetCustomDisputeFee(question_id, fee);\n    }\n\n    /// @notice Return the dispute fee for the specified question. 0 indicates that we won't arbitrate it.\n    /// @param question_id The question in question\n    /// @dev Uses a general default, but can be over-ridden on a question-by-question basis.\n    function getDisputeFee(bytes32 question_id) \n    public view returns (uint256) {\n        return (custom_dispute_fees[question_id] > 0) ? custom_dispute_fees[question_id] : dispute_fee;\n    }\n\n    /// @notice Set a fee for asking a question with us as the arbitrator\n    /// @param fee The fee amount\n    /// @dev Default is no fee. Unlike the dispute fee, 0 is an acceptable setting.\n    /// You could set an impossibly high fee if you want to prevent us being used as arbitrator unless we submit the question.\n    /// (Submitting the question ourselves is not implemented here.)\n    /// This fee can be used as a revenue source, an anti-spam measure, or both.\n    function setQuestionFee(uint256 fee) \n        onlyOwner \n    public {\n        realitio.setQuestionFee(fee);\n        emit LogSetQuestionFee(fee);\n    }\n\n    /// @notice Submit the arbitrator's answer to a question.\n    /// @param question_id The question in question\n    /// @param answer The answer\n    /// @param answerer The answerer. If arbitration changed the answer, it should be the payer. If not, the old answerer.\n    function submitAnswerByArbitrator(bytes32 question_id, bytes32 answer, address answerer) \n        onlyOwner \n    public {\n        delete arbitration_bounties[question_id];\n        realitio.submitAnswerByArbitrator(question_id, answer, answerer);\n    }\n\n    /// @notice Request arbitration, freezing the question until we send submitAnswerByArbitrator\n    /// @dev The bounty can be paid only in part, in which case the last person to pay will be considered the payer\n    /// Will trigger an error if the notification fails, eg because the question has already been finalized\n    /// @param question_id The question in question\n    /// @param max_previous If specified, reverts if a bond higher than this was submitted after you sent your transaction.\n    function requestArbitration(bytes32 question_id, uint256 max_previous) \n    external payable returns (bool) {\n\n        uint256 arbitration_fee = getDisputeFee(question_id);\n        require(arbitration_fee > 0, \"The arbitrator must have set a non-zero fee for the question\");\n\n        arbitration_bounties[question_id] += msg.value;\n        uint256 paid = arbitration_bounties[question_id];\n\n        if (paid >= arbitration_fee) {\n            realitio.notifyOfArbitrationRequest(question_id, msg.sender, max_previous);\n            emit LogRequestArbitration(question_id, msg.value, msg.sender, 0);\n            return true;\n        } else {\n            require(!realitio.isFinalized(question_id), \"The question must not have been finalized\");\n            emit LogRequestArbitration(question_id, msg.value, msg.sender, arbitration_fee - paid);\n            return false;\n        }\n\n    }\n\n    /// @notice Withdraw any accumulated fees to the specified address\n    /// @param addr The address to which the balance should be sent\n    function withdraw(address addr) \n        onlyOwner \n    public {\n        addr.transfer(address(this).balance); \n    }\n\n    function() \n    external payable {\n    }\n\n    /// @notice Withdraw any accumulated question fees from the specified address into this contract\n    /// @dev Funds can then be liberated from this contract with our withdraw() function\n    function callWithdraw() \n        onlyOwner \n    public {\n        realitio.withdraw(); \n    }\n\n    /// @notice Set a metadata string, expected to be JSON, containing things like arbitrator TOS address\n    function setMetaData(string _metadata) \n        onlyOwner\n    public {\n        metadata = _metadata;\n    }\n\n}\n",
  "sourcePath": "/home/ed/working/realitio-contracts/truffle/contracts/Arbitrator.sol",
  "compiler": {
    "name": "solc",
    "version": "0.4.25+commit.59dbf8f1.Emscripten.clang"
  },
  "schemaVersion": "3.0.0-beta.1",
  "updatedAt": "2018-10-17T05:19:16.942Z"
}