{
  "contractName": "Arbitrator",
  "abi": [
    {
      "constant": true,
      "inputs": [],
      "name": "realitycheck",
      "outputs": [
        {
          "name": "",
          "type": "address"
        }
      ],
      "payable": false,
      "stateMutability": "view",
      "type": "function"
    },
    {
      "constant": false,
      "inputs": [
        {
          "name": "fee",
          "type": "uint256"
        }
      ],
      "name": "setDisputeFee",
      "outputs": [],
      "payable": false,
      "stateMutability": "nonpayable",
      "type": "function"
    },
    {
      "constant": false,
      "inputs": [
        {
          "name": "question_id",
          "type": "bytes32"
        },
        {
          "name": "fee",
          "type": "uint256"
        }
      ],
      "name": "setCustomDisputeFee",
      "outputs": [],
      "payable": false,
      "stateMutability": "nonpayable",
      "type": "function"
    },
    {
      "constant": false,
      "inputs": [
        {
          "name": "fee",
          "type": "uint256"
        }
      ],
      "name": "setQuestionFee",
      "outputs": [],
      "payable": false,
      "stateMutability": "nonpayable",
      "type": "function"
    },
    {
      "constant": false,
      "inputs": [
        {
          "name": "addr",
          "type": "address"
        }
      ],
      "name": "withdraw",
      "outputs": [],
      "payable": false,
      "stateMutability": "nonpayable",
      "type": "function"
    },
    {
      "constant": false,
      "inputs": [
        {
          "name": "addr",
          "type": "address"
        }
      ],
      "name": "setRealityCheck",
      "outputs": [],
      "payable": false,
      "stateMutability": "nonpayable",
      "type": "function"
    },
    {
      "constant": true,
      "inputs": [],
      "name": "owner",
      "outputs": [
        {
          "name": "",
          "type": "address"
        }
      ],
      "payable": false,
      "stateMutability": "view",
      "type": "function"
    },
    {
      "constant": true,
      "inputs": [
        {
          "name": "",
          "type": "bytes32"
        }
      ],
      "name": "arbitration_bounties",
      "outputs": [
        {
          "name": "",
          "type": "uint256"
        }
      ],
      "payable": false,
      "stateMutability": "view",
      "type": "function"
    },
    {
      "constant": true,
      "inputs": [
        {
          "name": "question_id",
          "type": "bytes32"
        }
      ],
      "name": "getDisputeFee",
      "outputs": [
        {
          "name": "",
          "type": "uint256"
        }
      ],
      "payable": false,
      "stateMutability": "view",
      "type": "function"
    },
    {
      "constant": false,
      "inputs": [
        {
          "name": "question_id",
          "type": "bytes32"
        },
        {
          "name": "max_previous",
          "type": "uint256"
        }
      ],
      "name": "requestArbitration",
      "outputs": [
        {
          "name": "",
          "type": "bool"
        }
      ],
      "payable": true,
      "stateMutability": "payable",
      "type": "function"
    },
    {
      "constant": false,
      "inputs": [],
      "name": "callWithdraw",
      "outputs": [],
      "payable": false,
      "stateMutability": "nonpayable",
      "type": "function"
    },
    {
      "constant": false,
      "inputs": [
        {
          "name": "newOwner",
          "type": "address"
        }
      ],
      "name": "transferOwnership",
      "outputs": [],
      "payable": false,
      "stateMutability": "nonpayable",
      "type": "function"
    },
    {
      "constant": false,
      "inputs": [
        {
          "name": "question_id",
          "type": "bytes32"
        },
        {
          "name": "answer",
          "type": "bytes32"
        },
        {
          "name": "answerer",
          "type": "address"
        }
      ],
      "name": "submitAnswerByArbitrator",
      "outputs": [],
      "payable": false,
      "stateMutability": "nonpayable",
      "type": "function"
    },
    {
      "inputs": [],
      "payable": false,
      "stateMutability": "nonpayable",
      "type": "constructor"
    },
    {
      "payable": true,
      "stateMutability": "payable",
      "type": "fallback"
    },
    {
      "anonymous": false,
      "inputs": [
        {
          "indexed": true,
          "name": "question_id",
          "type": "bytes32"
        },
        {
          "indexed": false,
          "name": "fee_paid",
          "type": "uint256"
        },
        {
          "indexed": false,
          "name": "requester",
          "type": "address"
        },
        {
          "indexed": false,
          "name": "remaining",
          "type": "uint256"
        }
      ],
      "name": "LogRequestArbitration",
      "type": "event"
    },
    {
      "anonymous": false,
      "inputs": [
        {
          "indexed": false,
          "name": "realitycheck",
          "type": "address"
        }
      ],
      "name": "LogSetRealityCheck",
      "type": "event"
    },
    {
      "anonymous": false,
      "inputs": [
        {
          "indexed": false,
          "name": "fee",
          "type": "uint256"
        }
      ],
      "name": "LogSetQuestionFee",
      "type": "event"
    },
    {
      "anonymous": false,
      "inputs": [
        {
          "indexed": false,
          "name": "fee",
          "type": "uint256"
        }
      ],
      "name": "LogSetDisputeFee",
      "type": "event"
    },
    {
      "anonymous": false,
      "inputs": [
        {
          "indexed": true,
          "name": "question_id",
          "type": "bytes32"
        },
        {
          "indexed": false,
          "name": "fee",
          "type": "uint256"
        }
      ],
      "name": "LogSetCustomDisputeFee",
      "type": "event"
    }
  ],
  "bytecode": "0x6060604052341561000f57600080fd5b60008054600160a060020a033316600160a060020a03199182168117909116179055610844806100406000396000f3006060604052600436106100ab5763ffffffff60e060020a6000350416630c2a48e281146100ad57806317299c04146100dc5780634381a07b146100f25780634df6ca2a1461010b57806351cff8d9146101215780637003433a146101405780638da5cb5b1461015f578063a20dd43b14610172578063a22352e21461019a578063a829c3d1146101b0578063dad901be146101d2578063f2fde38b146101e5578063fe92049d14610204575b005b34156100b857600080fd5b6100c0610229565b604051600160a060020a03909116815260200160405180910390f35b34156100e757600080fd5b6100ab600435610238565b34156100fd57600080fd5b6100ab60043560243561028e565b341561011657600080fd5b6100ab6004356102f5565b341561012c57600080fd5b6100ab600160a060020a03600435166103a2565b341561014b57600080fd5b6100ab600160a060020a03600435166103fd565b341561016a57600080fd5b6100c0610480565b341561017d57600080fd5b61018860043561048f565b60405190815260200160405180910390f35b34156101a557600080fd5b6101886004356104a1565b6101be6004356024356104d5565b604051901515815260200160405180910390f35b34156101dd57600080fd5b6100ab6106b4565b34156101f057600080fd5b6100ab600160a060020a0360043516610724565b341561020f57600080fd5b6100ab600435602435600160a060020a036044351661076e565b600154600160a060020a031681565b60005433600160a060020a0390811691161461025357600080fd5b60038190557fbc1292d8ca346c1397b1176ce2935afd34c4365fece415b14e3a9242eae388f58160405190815260200160405180910390a150565b60005433600160a060020a039081169116146102a957600080fd5b6000828152600460205260409081902082905582907fe4887440991624b147d2129ab0befa8c1df4cff87b22513c8eea7cb16ed2aaf29083905190815260200160405180910390a25050565b60005433600160a060020a0390811691161461031057600080fd5b600154600160a060020a0316634df6ca2a8260405160e060020a63ffffffff84160281526004810191909152602401600060405180830381600087803b151561035857600080fd5b6102c65a03f1151561036957600080fd5b5050507f173ec7037500587e8ac3402cac8426c5c2bac605eabd93f790422e621633d7118160405190815260200160405180910390a150565b60005433600160a060020a039081169116146103bd57600080fd5b80600160a060020a03166108fc30600160a060020a0316319081150290604051600060405180830381858888f1935050505015156103fa57600080fd5b50565b60005433600160a060020a0390811691161461041857600080fd5b6001805473ffffffffffffffffffffffffffffffffffffffff1916600160a060020a0383161790557ffeeb7f05475883d926f248a427675698eff53e2a93fade3a9e902d0e59cf380381604051600160a060020a03909116815260200160405180910390a150565b600054600160a060020a031681565b60026020526000908152604090205481565b6000818152600460205260408120548190116104bf576003546104cf565b6000828152600460205260409020545b92915050565b60008060006104e3856104a1565b9150600082116104f257600080fd5b50600084815260026020526040902080543401908190558181106105df57600154600160a060020a031663f6a94ecb86338760405160e060020a63ffffffff86160281526004810193909352600160a060020a0390911660248301526044820152606401600060405180830381600087803b151561056f57600080fd5b6102c65a03f1151561058057600080fd5b508691507fdf8a830581aa05b0b824a0c184007c33a1ad9100a41751c9ded9f2b4fefb16ba905034336000604051928352600160a060020a0390911660208301526040808301919091526060909101905180910390a2600192506106ac565b600154600160a060020a0316637f8d429e8660006040516020015260405160e060020a63ffffffff84160281526004810191909152602401602060405180830381600087803b151561063057600080fd5b6102c65a03f1151561064157600080fd5b505050604051805115905061065557600080fd5b847fdf8a830581aa05b0b824a0c184007c33a1ad9100a41751c9ded9f2b4fefb16ba3433848603604051928352600160a060020a0390911660208301526040808301919091526060909101905180910390a2600092505b505092915050565b60005433600160a060020a039081169116146106cf57600080fd5b600154600160a060020a0316633ccfd60b6040518163ffffffff1660e060020a028152600401600060405180830381600087803b151561070e57600080fd5b6102c65a03f1151561071f57600080fd5b505050565b60005433600160a060020a0390811691161461073f57600080fd5b6000805473ffffffffffffffffffffffffffffffffffffffff1916600160a060020a0392909216919091179055565b60005433600160a060020a0390811691161461078957600080fd5b60008381526002602052604080822091909155600154600160a060020a03169063fe92049d908590859085905160e060020a63ffffffff861602815260048101939093526024830191909152600160a060020a03166044820152606401600060405180830381600087803b15156107ff57600080fd5b6102c65a03f1151561081057600080fd5b5050505050505600a165627a7a7230582050fc45fc126aa9a60eeb5a564c737780602944a3da92d0c38eb4beeac65e54490029",
  "source": "pragma solidity ^0.4.18;\n\nimport './Owned.sol';\nimport './RealityCheck.sol';\n\ncontract Arbitrator is Owned {\n\n    RealityCheck public realitycheck;\n\n    mapping(bytes32 => uint256) public arbitration_bounties;\n\n    uint256 dispute_fee;\n    mapping(bytes32 => uint256) custom_dispute_fees;\n\n    event LogRequestArbitration(\n        bytes32 indexed question_id,\n        uint256 fee_paid,\n        address requester,\n        uint256 remaining\n    );\n\n    event LogSetRealityCheck(\n        address realitycheck\n    );\n\n    event LogSetQuestionFee(\n        uint256 fee\n    );\n\n\n    event LogSetDisputeFee(\n        uint256 fee\n    );\n\n    event LogSetCustomDisputeFee(\n        bytes32 indexed question_id,\n        uint256 fee\n    );\n\n    /// @notice Constructor. Sets the deploying address as owner.\n    function Arbitrator() \n    public {\n        owner = msg.sender;\n    }\n\n    /// @notice Set the Reality Check contract address\n    /// @param addr The address of the Reality Check contract\n    function setRealityCheck(address addr) \n        onlyOwner \n    public {\n        realitycheck = RealityCheck(addr);\n        LogSetRealityCheck(addr);\n    }\n\n    /// @notice Set the default fee\n    /// @param fee The default fee amount\n    function setDisputeFee(uint256 fee) \n        onlyOwner \n    public {\n        dispute_fee = fee;\n        LogSetDisputeFee(fee);\n    }\n\n    /// @notice Set a custom fee for this particular question\n    /// @param question_id The question in question\n    /// @param fee The fee amount\n    function setCustomDisputeFee(bytes32 question_id, uint256 fee) \n        onlyOwner \n    public {\n        custom_dispute_fees[question_id] = fee;\n        LogSetCustomDisputeFee(question_id, fee);\n    }\n\n    /// @notice Return the dispute fee for the specified question. 0 indicates that we won't arbitrate it.\n    /// @param question_id The question in question\n    /// @dev Uses a general default, but can be over-ridden on a question-by-question basis.\n    function getDisputeFee(bytes32 question_id) \n    public constant returns (uint256) {\n        return (custom_dispute_fees[question_id] > 0) ? custom_dispute_fees[question_id] : dispute_fee;\n    }\n\n    /// @notice Set a fee for asking a question with us as the arbitrator\n    /// @param fee The fee amount\n    /// @dev Default is no fee. Unlike the dispute fee, 0 is an acceptable setting.\n    /// You could set an impossibly high fee if you want to prevent us being used as arbitrator unless we submit the question.\n    /// (Submitting the question ourselves is not implemented here.)\n    /// This fee can be used as a revenue source, an anti-spam measure, or both.\n    function setQuestionFee(uint256 fee) \n        onlyOwner \n    public {\n        realitycheck.setQuestionFee(fee);\n        LogSetQuestionFee(fee);\n    }\n\n    /// @notice Submit the arbitrator's answer to a question.\n    /// @param question_id The question in question\n    /// @param answer The answer\n    /// @param answerer The answerer. If arbitration changed the answer, it should be the payer. If not, the old answerer.\n    function submitAnswerByArbitrator(bytes32 question_id, bytes32 answer, address answerer) \n        onlyOwner \n    public {\n        delete arbitration_bounties[question_id];\n        realitycheck.submitAnswerByArbitrator(question_id, answer, answerer);\n    }\n\n    /// @notice Request arbitration, freezing the question until we send submitAnswerByArbitrator\n    /// @dev The bounty can be paid only in part, in which case the last person to pay will be considered the payer\n    /// Will trigger an error if the notification fails, eg because the question has already been finalized\n    /// @param question_id The question in question\n    /// @param max_previous If specified, reverts if a bond higher than this was submitted after you sent your transaction.\n    function requestArbitration(bytes32 question_id, uint256 max_previous) \n    external payable returns (bool) {\n\n        uint256 arbitration_fee = getDisputeFee(question_id);\n        require(arbitration_fee > 0);\n\n        arbitration_bounties[question_id] += msg.value;\n        uint256 paid = arbitration_bounties[question_id];\n\n        if (paid >= arbitration_fee) {\n            realitycheck.notifyOfArbitrationRequest(question_id, msg.sender, max_previous);\n            LogRequestArbitration(question_id, msg.value, msg.sender, 0);\n            return true;\n        } else {\n            require(!realitycheck.isFinalized(question_id));\n            LogRequestArbitration(question_id, msg.value, msg.sender, arbitration_fee - paid);\n            return false;\n        }\n\n    }\n\n    /// @notice Withdraw any accumulated fees to the specified address\n    /// @param addr The address to which the balance should be sent\n    function withdraw(address addr) \n        onlyOwner \n    public {\n        addr.transfer(this.balance); \n    }\n\n    function() \n    public payable {\n    }\n\n    /// @notice Withdraw any accumulated question fees from the specified address into this contract\n    /// @dev Funds can then be liberated from this contract with our withdraw() function\n    function callWithdraw() \n        onlyOwner \n    public {\n        realitycheck.withdraw(); \n    }\n\n}\n",
  "sourcePath": "/var/www/html/dev/truffle/contracts/Arbitrator.sol",
  "compiler": {
    "name": "solc",
    "version": "0.4.18+commit.9cf6e910.Emscripten.clang"
  },
  "schemaVersion": "1.0.1",
  "updatedAt": "2018-07-09T01:50:16.867Z"
}