{
  "contractName": "BalanceHolder",
  "abi": [
    {
      "constant": true,
      "inputs": [
        {
          "name": "",
          "type": "address"
        }
      ],
      "name": "balanceOf",
      "outputs": [
        {
          "name": "",
          "type": "uint256"
        }
      ],
      "payable": false,
      "stateMutability": "view",
      "type": "function"
    },
    {
      "anonymous": false,
      "inputs": [
        {
          "indexed": true,
          "name": "user",
          "type": "address"
        },
        {
          "indexed": false,
          "name": "amount",
          "type": "uint256"
        }
      ],
      "name": "LogWithdraw",
      "type": "event"
    },
    {
      "constant": false,
      "inputs": [],
      "name": "withdraw",
      "outputs": [],
      "payable": false,
      "stateMutability": "nonpayable",
      "type": "function"
    }
  ],
  "bytecode": "0x608060405234801561001057600080fd5b50610160806100206000396000f30060806040526004361061004b5763ffffffff7c01000000000000000000000000000000000000000000000000000000006000350416633ccfd60b811461005057806370a0823114610067575b600080fd5b34801561005c57600080fd5b506100656100a7565b005b34801561007357600080fd5b5061009573ffffffffffffffffffffffffffffffffffffffff60043516610122565b60408051918252519081900360200190f35b33600081815260208190526040808220805490839055905190929183156108fc02918491818181858888f193505050501580156100e8573d6000803e3d6000fd5b5060408051828152905133917f4ce7033d118120e254016dccf195288400b28fc8936425acd5f17ce2df3ab708919081900360200190a250565b600060208190529081526040902054815600a165627a7a7230582038000714d5115b23d2ed283ab3a3ccc81991cba0fd74c9e0c6e6256d8366539c0029",
  "source": "pragma solidity ^0.4.18;\n\ncontract BalanceHolder {\n\n    mapping(address => uint256) public balanceOf;\n\n    event LogWithdraw(\n        address indexed user,\n        uint256 amount\n    );\n\n    function withdraw() \n    public {\n        uint256 bal = balanceOf[msg.sender];\n        balanceOf[msg.sender] = 0;\n        msg.sender.transfer(bal);\n        emit LogWithdraw(msg.sender, bal);\n    }\n\n}\n",
  "sourcePath": "/home/ed/working/realitio-contracts/truffle/contracts/BalanceHolder.sol",
  "compiler": {
    "name": "solc",
    "version": "0.4.25+commit.59dbf8f1.Emscripten.clang"
  },
  "schemaVersion": "3.0.0-beta.1",
  "updatedAt": "2018-10-17T05:17:04.033Z"
}