{
  "contractName": "BalanceHolder",
  "abi": [
    {
      "constant": true,
      "inputs": [
        {
          "name": "",
          "type": "address"
        }
      ],
      "name": "balanceOf",
      "outputs": [
        {
          "name": "",
          "type": "uint256"
        }
      ],
      "payable": false,
      "stateMutability": "view",
      "type": "function"
    },
    {
      "constant": true,
      "inputs": [],
      "name": "token",
      "outputs": [
        {
          "name": "",
          "type": "address"
        }
      ],
      "payable": false,
      "stateMutability": "view",
      "type": "function"
    },
    {
      "anonymous": false,
      "inputs": [
        {
          "indexed": true,
          "name": "user",
          "type": "address"
        },
        {
          "indexed": false,
          "name": "amount",
          "type": "uint256"
        }
      ],
      "name": "LogWithdraw",
      "type": "event"
    },
    {
      "constant": false,
      "inputs": [],
      "name": "withdraw",
      "outputs": [],
      "payable": false,
      "stateMutability": "nonpayable",
      "type": "function"
    }
  ],
  "bytecode": "0x608060405234801561001057600080fd5b5061024b806100206000396000f3006080604052600436106100565763ffffffff7c01000000000000000000000000000000000000000000000000000000006000350416633ccfd60b811461005b57806370a0823114610072578063fc0c546a146100b2575b600080fd5b34801561006757600080fd5b506100706100f0565b005b34801561007e57600080fd5b506100a073ffffffffffffffffffffffffffffffffffffffff600435166101f1565b60408051918252519081900360200190f35b3480156100be57600080fd5b506100c7610203565b6040805173ffffffffffffffffffffffffffffffffffffffff9092168252519081900360200190f35b336000818152600160209081526040808320805490849055835482517fa9059cbb0000000000000000000000000000000000000000000000000000000081526004810196909652602486018290529151909473ffffffffffffffffffffffffffffffffffffffff9092169363a9059cbb93604480850194919392918390030190829087803b15801561018157600080fd5b505af1158015610195573d6000803e3d6000fd5b505050506040513d60208110156101ab57600080fd5b505115156101b857600080fd5b60408051828152905133917f4ce7033d118120e254016dccf195288400b28fc8936425acd5f17ce2df3ab708919081900360200190a250565b60016020526000908152604090205481565b60005473ffffffffffffffffffffffffffffffffffffffff16815600a165627a7a72305820aa2ace91efa190f7829ef3e459596e305b5aa8aae37aea91e7188479768050180029",
  "source": "pragma solidity ^0.4.18;\n\nimport './IERC20.sol';\n\ncontract BalanceHolder {\n\n    IERC20 public token;\n\n    mapping(address => uint256) public balanceOf;\n\n    event LogWithdraw(\n        address indexed user,\n        uint256 amount\n    );\n\n    function withdraw() \n    public {\n        uint256 bal = balanceOf[msg.sender];\n        balanceOf[msg.sender] = 0;\n        require(token.transfer(msg.sender, bal));\n        emit LogWithdraw(msg.sender, bal);\n    }\n\n}\n",
  "sourcePath": "/home/ed/working/realitio-contracts-newtest/truffle/contracts/BalanceHolderERC20.sol",
  "compiler": {
    "name": "solc",
    "version": "0.4.25+commit.59dbf8f1.Emscripten.clang"
  },
  "schemaVersion": "2.0.2",
  "updatedAt": "2019-06-07T22:14:37.026Z"
}