{
  "contractName": "CallbackClient",
  "abi": [
    {
      "constant": false,
      "inputs": [
        {
          "name": "question_id",
          "type": "bytes32"
        },
        {
          "name": "question_answer",
          "type": "bytes32"
        }
      ],
      "name": "__realitycheck_callback",
      "outputs": [],
      "payable": false,
      "stateMutability": "nonpayable",
      "type": "function"
    },
    {
      "constant": true,
      "inputs": [
        {
          "name": "",
          "type": "bytes32"
        }
      ],
      "name": "answers",
      "outputs": [
        {
          "name": "",
          "type": "bytes32"
        }
      ],
      "payable": false,
      "stateMutability": "view",
      "type": "function"
    },
    {
      "anonymous": false,
      "inputs": [
        {
          "indexed": false,
          "name": "question_id",
          "type": "bytes32"
        },
        {
          "indexed": false,
          "name": "question_answer",
          "type": "bytes32"
        },
        {
          "indexed": false,
          "name": "sender",
          "type": "address"
        }
      ],
      "name": "LogCallback",
      "type": "event"
    }
  ],
  "bytecode": "0x6060604052341561000f57600080fd5b6101478061001e6000396000f30060606040526004361061004b5763ffffffff7c01000000000000000000000000000000000000000000000000000000006000350416631d7dbb438114610050578063aac753b61461006b575b600080fd5b341561005b57600080fd5b610069600435602435610093565b005b341561007657600080fd5b610081600435610109565b60405190815260200160405180910390f35b600082815260208190526040908190208290557f0c3ddecd829066bed247527f262273acaf114be545e42b5b1683335dbeb25a919083908390339051928352602083019190915273ffffffffffffffffffffffffffffffffffffffff166040808301919091526060909101905180910390a15050565b600060208190529081526040902054815600a165627a7a72305820a1919b7ecf22e038009c59019a8d2f5890c08b442c15fbba489d578c070b93110029",
  "source": "pragma solidity ^0.4.6;\n\ncontract CallbackClient {\n\n    mapping(bytes32=>bytes32) public answers;\n\n    event LogCallback(\n        bytes32 question_id,\n        bytes32 question_answer,\n        address sender\n    );\n\n    function __realitycheck_callback(bytes32 question_id, bytes32 question_answer) {\n        answers[question_id] = question_answer;\n        LogCallback(question_id, question_answer, msg.sender);\n    }\n\n}\n",
  "sourcePath": "/var/www/html/dev/truffle/contracts/CallbackClient.sol",
  "compiler": {
    "name": "solc",
    "version": "0.4.18+commit.9cf6e910.Emscripten.clang"
  },
  "schemaVersion": "1.0.1",
  "updatedAt": "2018-07-09T01:47:31.205Z"
}