{
  "contractName": "CallbackClient",
  "abi": [
    {
      "constant": true,
      "inputs": [
        {
          "name": "",
          "type": "bytes32"
        }
      ],
      "name": "answers",
      "outputs": [
        {
          "name": "",
          "type": "bytes32"
        }
      ],
      "payable": false,
      "stateMutability": "view",
      "type": "function"
    },
    {
      "anonymous": false,
      "inputs": [
        {
          "indexed": false,
          "name": "question_id",
          "type": "bytes32"
        },
        {
          "indexed": false,
          "name": "question_answer",
          "type": "bytes32"
        },
        {
          "indexed": false,
          "name": "sender",
          "type": "address"
        }
      ],
      "name": "LogCallback",
      "type": "event"
    },
    {
      "constant": false,
      "inputs": [
        {
          "name": "question_id",
          "type": "bytes32"
        },
        {
          "name": "question_answer",
          "type": "bytes32"
        }
      ],
      "name": "__realitycheck_callback",
      "outputs": [],
      "payable": false,
      "stateMutability": "nonpayable",
      "type": "function"
    }
  ],
  "bytecode": "0x608060405234801561001057600080fd5b5061011f806100206000396000f30060806040526004361060485763ffffffff7c01000000000000000000000000000000000000000000000000000000006000350416631d7dbb438114604d578063aac753b6146067575b600080fd5b348015605857600080fd5b506065600435602435608e565b005b348015607257600080fd5b50607c60043560e1565b60408051918252519081900360200190f35b600082815260208181526040918290208390558151848152908101839052338183015290517f0c3ddecd829066bed247527f262273acaf114be545e42b5b1683335dbeb25a919181900360600190a15050565b600060208190529081526040902054815600a165627a7a72305820ef512ac5221ecdb7a0eb34967a272f390d65b7e91553ade89177ea670f8532580029",
  "source": "pragma solidity ^0.4.6;\n\ncontract CallbackClient {\n\n    mapping(bytes32=>bytes32) public answers;\n\n    event LogCallback(\n        bytes32 question_id,\n        bytes32 question_answer,\n        address sender\n    );\n\n    function __realitycheck_callback(bytes32 question_id, bytes32 question_answer) {\n        answers[question_id] = question_answer;\n        LogCallback(question_id, question_answer, msg.sender);\n    }\n\n}\n",
  "sourcePath": "/home/ed/working/realitio-contracts/truffle/contracts/CallbackClient.sol",
  "compiler": {
    "name": "solc",
    "version": "0.4.25+commit.59dbf8f1.Emscripten.clang"
  },
  "schemaVersion": "3.0.0-beta.1",
  "updatedAt": "2018-10-17T05:17:04.033Z"
}