{
  "contractName": "CallerBacker",
  "abi": [
    {
      "constant": false,
      "inputs": [
        {
          "name": "_value",
          "type": "uint256"
        }
      ],
      "name": "withdraw",
      "outputs": [
        {
          "name": "success",
          "type": "bool"
        }
      ],
      "payable": false,
      "stateMutability": "nonpayable",
      "type": "function"
    },
    {
      "constant": true,
      "inputs": [
        {
          "name": "",
          "type": "bytes32"
        },
        {
          "name": "",
          "type": "address"
        },
        {
          "name": "",
          "type": "uint256"
        }
      ],
      "name": "callback_requests",
      "outputs": [
        {
          "name": "",
          "type": "uint256"
        }
      ],
      "payable": false,
      "stateMutability": "view",
      "type": "function"
    },
    {
      "constant": false,
      "inputs": [
        {
          "name": "addr",
          "type": "address"
        }
      ],
      "name": "setRealityCheck",
      "outputs": [],
      "payable": false,
      "stateMutability": "nonpayable",
      "type": "function"
    },
    {
      "constant": true,
      "inputs": [
        {
          "name": "_owner",
          "type": "address"
        }
      ],
      "name": "balanceOf",
      "outputs": [
        {
          "name": "balance",
          "type": "uint256"
        }
      ],
      "payable": false,
      "stateMutability": "view",
      "type": "function"
    },
    {
      "constant": false,
      "inputs": [
        {
          "name": "question_id",
          "type": "bytes32"
        },
        {
          "name": "client_ctrct",
          "type": "address"
        },
        {
          "name": "gas",
          "type": "uint256"
        }
      ],
      "name": "fundCallbackRequest",
      "outputs": [],
      "payable": true,
      "stateMutability": "payable",
      "type": "function"
    },
    {
      "constant": false,
      "inputs": [
        {
          "name": "question_id",
          "type": "bytes32"
        },
        {
          "name": "client_ctrct",
          "type": "address"
        },
        {
          "name": "gas",
          "type": "uint256"
        },
        {
          "name": "min_bounty",
          "type": "uint256"
        }
      ],
      "name": "sendCallback",
      "outputs": [
        {
          "name": "",
          "type": "bool"
        }
      ],
      "payable": false,
      "stateMutability": "nonpayable",
      "type": "function"
    },
    {
      "anonymous": false,
      "inputs": [
        {
          "indexed": true,
          "name": "question_id",
          "type": "bytes32"
        },
        {
          "indexed": true,
          "name": "ctrct",
          "type": "address"
        },
        {
          "indexed": true,
          "name": "caller",
          "type": "address"
        },
        {
          "indexed": false,
          "name": "gas",
          "type": "uint256"
        },
        {
          "indexed": false,
          "name": "bounty",
          "type": "uint256"
        }
      ],
      "name": "LogFundCallbackRequest",
      "type": "event"
    },
    {
      "anonymous": false,
      "inputs": [
        {
          "indexed": true,
          "name": "question_id",
          "type": "bytes32"
        },
        {
          "indexed": true,
          "name": "ctrct",
          "type": "address"
        },
        {
          "indexed": true,
          "name": "caller",
          "type": "address"
        },
        {
          "indexed": false,
          "name": "gas",
          "type": "uint256"
        },
        {
          "indexed": false,
          "name": "bounty",
          "type": "uint256"
        },
        {
          "indexed": false,
          "name": "callback_result",
          "type": "bool"
        }
      ],
      "name": "LogSendCallback",
      "type": "event"
    }
  ],
  "bytecode": "0x6060604052341561000f57600080fd5b6105048061001e6000396000f30060606040526004361061005e5763ffffffff60e060020a6000350416632e1a7d4d8114610063578063513a0d931461008d5780637003433a146100c457806370a08231146100e5578063c47c743414610104578063e07422921461011e575b600080fd5b341561006e57600080fd5b610079600435610146565b604051901515815260200160405180910390f35b341561009857600080fd5b6100b2600435600160a060020a03602435166044356101e4565b60405190815260200160405180910390f35b34156100cf57600080fd5b6100e3600160a060020a0360043516610207565b005b34156100f057600080fd5b6100b2600160a060020a036004351661024e565b6100e3600435600160a060020a0360243516604435610269565b341561012957600080fd5b610079600435600160a060020a03602435166044356064356102e4565b600160a060020a033316600090815260016020526040812054818382101561016d57600080fd5b50600160a060020a03331660009081526001602052604090205483900380821161019657600080fd5b600160a060020a0333166000818152600160205260409081902083905585156108fc0290869051600060405180830381858888f1935050505015156101da57600080fd5b5060019392505050565b600260209081526000938452604080852082529284528284209052825290205481565b60008054600160a060020a03161561021e57600080fd5b506000805473ffffffffffffffffffffffffffffffffffffffff1916600160a060020a0392909216919091179055565b600160a060020a031660009081526001602052604090205490565b600160a060020a03338116908316847f294696bce8fca279815945b0b6efdd09b6af0cd27050a7fccb2c3eaeb88a837a843460405191825260208201526040908101905180910390a46000928352600260209081526040808520600160a060020a039094168552928152828420918452529020805434019055565b6000848152600260209081526040808320600160a060020a0387168452825280832085845290915281205481808483101561031e57600080fd5b855a101561032b57600080fd5b60008054600160a060020a03169063a462fb7b908a906040516020015260405160e060020a63ffffffff84160281526004810191909152602401602060405180830381600087803b151561037e57600080fd5b6102c65a03f1151561038f57600080fd5b5050506040518051925050600160a060020a038716631d7dbb43878a8560405160e060020a63ffffffff86160281526004810192909252602482015260440160006040518083038160008887f193505050509050826001600033600160a060020a0316600160a060020a03168152602001908152602001600020600082825401925050819055506000600260008a60001916600019168152602001908152602001600020600089600160a060020a0316600160a060020a0316815260200190815260200160002060008881526020019081526020016000208190555033600160a060020a031687600160a060020a031689600019167fd8c8fcbf83edcee70231575f6cd1b9688ee5985d4b15fb644fda75b9141e1c0e898786604051928352602083019190915215156040808301919091526060909101905180910390a49796505050505050505600a165627a7a72305820687fdae5e1068536d1fda80a7c0a6d56ef033502dc1cfc4cf1e35104d9d72a0f0029",
  "source": "pragma solidity ^0.4.6;\n\n/*\nContract to accept requests for question callbacks.\nThis was originally bundled into the RealityCheck contract as this produces a slight gas saving:\n * About 20,000 gas for calling the contract\n * Potentially a little bit extra in the caller for managing 2 contract addresses (RealityCheck + CallerBacker)\n * Potentially a little bit extra when withdrawing if the same address has been used for answering and calling back\n*/\n\ncontract RealityCheckAPI {\n    function getFinalAnswer(bytes32 question_id) constant returns (bytes32); \n}\n\ncontract CallerBacker {\n\n    address realitycheck;\n    mapping (address => uint256) balances;\n\n    event LogFundCallbackRequest(\n        bytes32 indexed question_id,\n        address indexed ctrct,\n        address indexed caller,\n        uint256 gas,\n        uint256 bounty\n    );\n\n    event LogSendCallback(\n        bytes32 indexed question_id,\n        address indexed ctrct,\n        address indexed caller,\n        uint256 gas,\n        uint256 bounty,\n        bool callback_result\n    );\n\n    // question => ctrct => gas => bounty\n    mapping(bytes32=>mapping(address=>mapping(uint256=>uint256))) public callback_requests; \n\n    function setRealityCheck(address addr) {\n        address NULL_ADDRESS;\n        require(realitycheck == NULL_ADDRESS);\n        realitycheck = addr;\n    }\n\n    function fundCallbackRequest(bytes32 question_id, address client_ctrct, uint256 gas) payable {\n        LogFundCallbackRequest(question_id, client_ctrct, msg.sender, gas, msg.value);\n        callback_requests[question_id][client_ctrct][gas] += msg.value;\n    }\n\n    function sendCallback(bytes32 question_id, address client_ctrct, uint256 gas, uint256 min_bounty) returns (bool) {\n\n        uint256 bounty = callback_requests[question_id][client_ctrct][gas];\n\n        require(callback_requests[question_id][client_ctrct][gas] >= min_bounty);\n\n        require(msg.gas >= gas);\n\n        bytes32 best_answer = RealityCheckAPI(realitycheck).getFinalAnswer(question_id);      \n\n        // We call the callback with the low-level call() interface\n        // We don't care if it errors out or not:\n        // This is the responsibility of the requestor.\n\n        // Call signature argument hard-codes the result of:\n        // bytes4(bytes32(sha3(\"__realitycheck_callback(bytes32,bytes32)\"))\n        bool callback_result = client_ctrct.call.gas(gas)(0x1d7dbb43, question_id, best_answer); \n\n        balances[msg.sender] += bounty;\n        callback_requests[question_id][client_ctrct][gas] = 0;\n\n        LogSendCallback(question_id, client_ctrct, msg.sender, gas, bounty, callback_result);\n        return callback_result;\n\n    }\n\n    function withdraw(uint256 _value) returns (bool success) {\n        uint256 orig_bal = balances[msg.sender];\n        require(orig_bal >= _value);\n        uint256 new_bal = balances[msg.sender] - _value;\n\n        // Overflow shouldn't be possible here but check anyhow\n        require(orig_bal > new_bal);\n\n        balances[msg.sender] = new_bal;\n        msg.sender.transfer(_value);\n        return true;\n    }\n\n    function balanceOf(address _owner) constant returns (uint256 balance) {\n        return balances[_owner];\n    }\n\n} \n",
  "sourcePath": "/var/www/html/dev/truffle/contracts/CallerBacker.sol",
  "compiler": {
    "name": "solc",
    "version": "0.4.18+commit.9cf6e910.Emscripten.clang"
  },
  "schemaVersion": "1.0.1",
  "updatedAt": "2018-07-09T01:47:31.205Z"
}