{
  "contractName": "ExplodingCallbackClient",
  "abi": [
    {
      "constant": false,
      "inputs": [
        {
          "name": "question_id",
          "type": "bytes32"
        },
        {
          "name": "question_answer",
          "type": "bytes32"
        }
      ],
      "name": "__realitycheck_callback",
      "outputs": [],
      "payable": false,
      "stateMutability": "nonpayable",
      "type": "function"
    }
  ],
  "bytecode": "0x60606040523415600e57600080fd5b60878061001c6000396000f300606060405260043610603e5763ffffffff7c01000000000000000000000000000000000000000000000000000000006000350416631d7dbb4381146043575b600080fd5b3415604d57600080fd5b6059600435602435603e565b0000a165627a7a72305820b5b6cc0bcad0773b0b10d1e5e4eb9594e6e000dc6bd1af5dc1aee7201bc92b330029",
  "source": "pragma solidity ^0.4.6;\n\ncontract ExplodingCallbackClient {\n\n    function __realitycheck_callback(bytes32 question_id, bytes32 question_answer) {\n        throw;\n    }\n\n}\n",
  "sourcePath": "/var/www/html/dev/truffle/contracts/ExplodingCallbackClient.sol",
  "compiler": {
    "name": "solc",
    "version": "0.4.18+commit.9cf6e910.Emscripten.clang"
  },
  "schemaVersion": "1.0.1",
  "updatedAt": "2018-07-09T01:47:31.207Z"
}