{
  "contractName": "ExplodingCallbackClient",
  "abi": [
    {
      "constant": false,
      "inputs": [
        {
          "name": "question_id",
          "type": "bytes32"
        },
        {
          "name": "question_answer",
          "type": "bytes32"
        }
      ],
      "name": "__realitycheck_callback",
      "outputs": [],
      "payable": false,
      "stateMutability": "nonpayable",
      "type": "function"
    }
  ],
  "bytecode": "0x6080604052348015600f57600080fd5b5060898061001e6000396000f300608060405260043610603e5763ffffffff7c01000000000000000000000000000000000000000000000000000000006000350416631d7dbb4381146043575b600080fd5b348015604e57600080fd5b50605b600435602435603e565b0000a165627a7a72305820db091b88ed360dc8b6fb1803910b7eee684665f06b0a2db14ec59abda30dca770029",
  "source": "pragma solidity ^0.4.6;\n\ncontract ExplodingCallbackClient {\n\n    function __realitycheck_callback(bytes32 question_id, bytes32 question_answer) {\n        throw;\n    }\n\n}\n",
  "sourcePath": "/home/ed/working/realitio-contracts-newtest/truffle/contracts/ExplodingCallbackClient.sol",
  "compiler": {
    "name": "solc",
    "version": "0.4.25+commit.59dbf8f1.Emscripten.clang"
  },
  "schemaVersion": "2.0.2",
  "updatedAt": "2019-05-25T02:18:58.911Z"
}