{
  "contractName": "IBalanceHolder",
  "abi": [
    {
      "constant": true,
      "inputs": [
        {
          "name": "",
          "type": "address"
        }
      ],
      "name": "balanceOf",
      "outputs": [
        {
          "name": "",
          "type": "uint256"
        }
      ],
      "payable": false,
      "stateMutability": "view",
      "type": "function"
    },
    {
      "constant": false,
      "inputs": [],
      "name": "withdraw",
      "outputs": [],
      "payable": false,
      "stateMutability": "nonpayable",
      "type": "function"
    }
  ],
  "bytecode": "0x608060405234801561001057600080fd5b5060de8061001f6000396000f30060806040526004361060485763ffffffff7c01000000000000000000000000000000000000000000000000000000006000350416633ccfd60b8114604d57806370a08231146061575b600080fd5b348015605857600080fd5b50605f609e565b005b348015606c57600080fd5b50608c73ffffffffffffffffffffffffffffffffffffffff6004351660a0565b60408051918252519081900360200190f35b565b600060208190529081526040902054815600a165627a7a72305820181738a630036362a18afef9e4653bf22d8747502844d7ae010cc8c7ea4a96380029",
  "source": "pragma solidity ^0.4.18;\n\ncontract IBalanceHolder {\n\n    mapping(address => uint256) public balanceOf;\n\n    function withdraw() \n    public {\n    }\n\n}\n",
  "sourcePath": "/home/ed/working/realitio-contracts-newtest/truffle/contracts/IBalanceHolder.sol",
  "compiler": {
    "name": "solc",
    "version": "0.4.25+commit.59dbf8f1.Emscripten.clang"
  },
  "schemaVersion": "2.0.2",
  "updatedAt": "2019-05-25T02:18:58.911Z"
}