{
  "contractName": "MetaQuestion",
  "abi": [
    {
      "constant": false,
      "inputs": [
        {
          "name": "question_id",
          "type": "bytes32"
        },
        {
          "name": "content_hash",
          "type": "bytes32"
        },
        {
          "name": "arbitrator",
          "type": "address"
        },
        {
          "name": "timeout",
          "type": "uint256"
        },
        {
          "name": "min_bond",
          "type": "uint256"
        },
        {
          "name": "min_answer",
          "type": "uint256"
        },
        {
          "name": "max_answer",
          "type": "uint256"
        },
        {
          "name": "caller",
          "type": "address"
        },
        {
          "name": "callback_gas",
          "type": "uint256"
        }
      ],
      "name": "claimBounty",
      "outputs": [],
      "payable": false,
      "stateMutability": "nonpayable",
      "type": "function"
    },
    {
      "constant": true,
      "inputs": [
        {
          "name": "",
          "type": "bytes32"
        }
      ],
      "name": "question_owners",
      "outputs": [
        {
          "name": "",
          "type": "address"
        }
      ],
      "payable": false,
      "stateMutability": "view",
      "type": "function"
    },
    {
      "constant": false,
      "inputs": [],
      "name": "withdraw",
      "outputs": [],
      "payable": false,
      "stateMutability": "nonpayable",
      "type": "function"
    },
    {
      "constant": false,
      "inputs": [
        {
          "name": "addr",
          "type": "address"
        }
      ],
      "name": "setRealityCheck",
      "outputs": [],
      "payable": false,
      "stateMutability": "nonpayable",
      "type": "function"
    },
    {
      "constant": true,
      "inputs": [
        {
          "name": "",
          "type": "address"
        }
      ],
      "name": "balanceOf",
      "outputs": [
        {
          "name": "",
          "type": "uint256"
        }
      ],
      "payable": false,
      "stateMutability": "view",
      "type": "function"
    },
    {
      "constant": false,
      "inputs": [
        {
          "name": "template_id",
          "type": "uint256"
        },
        {
          "name": "question",
          "type": "string"
        },
        {
          "name": "arbitrator",
          "type": "address"
        },
        {
          "name": "timeout",
          "type": "uint256"
        },
        {
          "name": "nonce",
          "type": "uint256"
        },
        {
          "name": "answer",
          "type": "bytes32"
        }
      ],
      "name": "initializeQuestion",
      "outputs": [],
      "payable": true,
      "stateMutability": "payable",
      "type": "function"
    },
    {
      "constant": false,
      "inputs": [
        {
          "name": "template_id",
          "type": "uint256"
        },
        {
          "name": "question",
          "type": "string"
        },
        {
          "name": "arbitrator",
          "type": "address"
        },
        {
          "name": "timeout",
          "type": "uint256"
        },
        {
          "name": "min_bond",
          "type": "uint256"
        },
        {
          "name": "min_answer",
          "type": "uint256"
        },
        {
          "name": "max_answer",
          "type": "uint256"
        },
        {
          "name": "callback_gas",
          "type": "uint256"
        }
      ],
      "name": "askQuestion",
      "outputs": [
        {
          "name": "",
          "type": "bytes32"
        }
      ],
      "payable": true,
      "stateMutability": "payable",
      "type": "function"
    },
    {
      "constant": true,
      "inputs": [
        {
          "name": "",
          "type": "bytes32"
        }
      ],
      "name": "question_requests",
      "outputs": [
        {
          "name": "",
          "type": "uint256"
        }
      ],
      "payable": false,
      "stateMutability": "view",
      "type": "function"
    },
    {
      "anonymous": false,
      "inputs": [
        {
          "indexed": true,
          "name": "question_id",
          "type": "bytes32"
        },
        {
          "indexed": true,
          "name": "ctrct",
          "type": "address"
        },
        {
          "indexed": true,
          "name": "caller",
          "type": "address"
        },
        {
          "indexed": false,
          "name": "gas",
          "type": "uint256"
        },
        {
          "indexed": false,
          "name": "bounty",
          "type": "uint256"
        }
      ],
      "name": "LogFundCallbackRequest",
      "type": "event"
    },
    {
      "anonymous": false,
      "inputs": [
        {
          "indexed": true,
          "name": "question_id",
          "type": "bytes32"
        },
        {
          "indexed": true,
          "name": "ctrct",
          "type": "address"
        },
        {
          "indexed": true,
          "name": "caller",
          "type": "address"
        },
        {
          "indexed": false,
          "name": "gas",
          "type": "uint256"
        },
        {
          "indexed": false,
          "name": "bounty",
          "type": "uint256"
        },
        {
          "indexed": false,
          "name": "callback_result",
          "type": "bool"
        }
      ],
      "name": "LogSendCallback",
      "type": "event"
    },
    {
      "anonymous": false,
      "inputs": [
        {
          "indexed": true,
          "name": "user",
          "type": "address"
        },
        {
          "indexed": false,
          "name": "amount",
          "type": "uint256"
        }
      ],
      "name": "LogWithdraw",
      "type": "event"
    }
  ],
  "bytecode": "0x6060604052341561000f57600080fd5b6108218061001e6000396000f3006060604052600436106100745763ffffffff60e060020a6000350416631ca6967c811461007957806331907112146100ba5780633ccfd60b146100ec5780637003433a146100ff57806370a082311461011e578063779402a11461014f5780638ad557e1146101b55780639b0fb88714610226575b600080fd5b341561008457600080fd5b6100b8600435602435600160a060020a03604435811690606435906084359060a4359060c4359060e435166101043561023c565b005b34156100c557600080fd5b6100d06004356103e6565b604051600160a060020a03909116815260200160405180910390f35b34156100f757600080fd5b6100b8610401565b341561010a57600080fd5b6100b8600160a060020a0360043516610489565b341561012957600080fd5b61013d600160a060020a03600435166104d2565b60405190815260200160405180910390f35b6100b8600480359060446024803590810190830135806020601f8201819004810201604051908101604052818152929190602084018383808284375094965050508335600160a060020a03169360208101359350604081013592506060013590506104e4565b61013d600480359060446024803590810190830135806020601f8201819004810201604051908101604052818152929190602084018383808284375094965050600160a060020a03853516946020810135945060408101359350606081013592506080810135915060a00135610694565b341561023157600080fd5b61013d60043561079f565b60008060008a8a8a8a8a8a8a8a6040519788526c01000000000000000000000000600160a060020a03978816810260208a015260348901969096526054880194909452607487019290925260948601529092160260b483015260c882015260e80160405190819003902060008181526002602052604081205491945090116102c357600080fd5b600154600160a060020a03166379c3fdaf8d8d8d8d8d60006040516020015260405160e060020a63ffffffff881602815260048101959095526024850193909352600160a060020a0390911660448401526064830152608482015260a401602060405180830381600087803b151561033a57600080fd5b6102c65a03f1151561034b57600080fd5b50505060405180519250508682101561036357600080fd5b8582111561037057600080fd5b835a1161037c57600080fd5b6103868c846107b1565b60008411156103d857600160a060020a038516631d7dbb4385858560405160e060020a63ffffffff86160281526004810192909252602482015260440160006040518083038160008887f19450505050505b505050505050505050505050565b600360205260009081526040902054600160a060020a031681565b600160a060020a033316600081815260208190526040808220805492905590919082156108fc0290839051600060405180830381858888f19350505050151561044957600080fd5b33600160a060020a03167f4ce7033d118120e254016dccf195288400b28fc8936425acd5f17ce2df3ab7088260405190815260200160405180910390a250565b600154600090600160a060020a0316156104a257600080fd5b506001805473ffffffffffffffffffffffffffffffffffffffff1916600160a060020a0392909216919091179055565b60006020819052908152604090205481565b600154600090600160a060020a0316638d5ff5d0888888888887604051602001526040518663ffffffff1660e060020a028152600401808681526020018060200185600160a060020a0316600160a060020a03168152602001848152602001838152602001828103825286818151815260200191508051906020019080838360005b8381101561057e578082015183820152602001610566565b50505050905090810190601f1680156105ab5780820380516001836020036101000a031916815260200191505b509650505050505050602060405180830381600087803b15156105cd57600080fd5b6102c65a03f115156105de57600080fd5b5050506040518051600154909250600160a060020a031690506377f325df348385600060405160e060020a63ffffffff87160281526004810193909352602483019190915260448201526064016000604051808303818588803b151561064357600080fd5b6125ee5a03f1151561065457600080fd5b505050600091825250600360205260409020805473ffffffffffffffffffffffffffffffffffffffff191633600160a060020a0316179055505050505050565b60008060008a8a6040518083815260200182805190602001908083835b602083106106d05780518252601f1990920191602091820191016106b1565b6001836020036101000a03801982511681845116179092525050509190910193506040925050505180910390209150818989898989338a6040519788526c01000000000000000000000000600160a060020a03978816810260208a015260348901969096526054880194909452607487019290925260948601529092160260b483015260c882015260e8016040519081900390206000818152600260205260409020549091501561078057600080fd5b60008181526002602052604090203490559a9950505050505050505050565b60026020526000908152604090205481565b60009081526003602090815260408083205484845260028084528285208054600160a060020a039093168652858552928520805490920190915593835292905290555600a165627a7a72305820ea6c89051cf496bc4ad4b6c3015bfb997035e8bac34675ebfa85f95aa46d793d0029",
  "source": "pragma solidity ^0.4.6;\n\nimport './BalanceHolder.sol';\n\ncontract RealityCheckAPI {\n    function getFinalAnswerIfMatches(bytes32 question_id, bytes32 content_hash, address arbitrator, uint256 min_timeout, uint256 min_bond) returns (bytes32);\n    function askQuestion(uint256 template_id, string question, address arbitrator, uint256 timeout, uint256 nonce) payable returns (bytes32); \n    function submitAnswer(bytes32 question_id, bytes32 answer, uint256 max_previous) payable;\n    function claimMultipleAndWithdrawBalance(bytes32[] question_ids, uint256[] lengths, bytes32[] hist_hashes, address[] addrs, uint256[] bonds, bytes32[] answers);\n}\n\ncontract MetaQuestion is BalanceHolder {\n\n    address realitycheck;\n\n    mapping(bytes32 => uint256) public question_requests;\n    mapping(bytes32 => address) public question_owners;\n\n    function askQuestion(\n        uint256 template_id,\n        string question,\n        address arbitrator,\n        uint256 timeout,\n        uint256 min_bond,\n        uint256 min_answer,\n        uint256 max_answer,\n        uint256 callback_gas\n    )\n    payable public returns (bytes32)\n    {\n        bytes32 content_hash = keccak256(template_id, question);\n        bytes32 request_id = keccak256(content_hash, arbitrator, timeout, min_bond, min_answer, max_answer, msg.sender, callback_gas);\n        require(question_requests[request_id] == 0);\n        question_requests[request_id] = msg.value;\n        return request_id;\n    }\n\n    function initializeQuestion(\n        uint256 template_id, string question, address arbitrator, uint256 timeout, uint256 nonce, \n        bytes32 answer\n    ) \n    payable public\n    {\n        bytes32 question_id = RealityCheckAPI(realitycheck).askQuestion(template_id, question, arbitrator, timeout, nonce); \n        RealityCheckAPI(realitycheck).submitAnswer.value(msg.value)(question_id, answer, 0);\n        question_owners[question_id] = msg.sender;\n    }\n\n    function _payPayee(bytes32 request_id, bytes32 question_id)\n    internal {\n        address owner = question_owners[question_id];\n        balanceOf[owner] += question_requests[request_id];\n        delete question_requests[request_id];\n    }\n   \n    function claimBounty(\n        bytes32 question_id,\n        bytes32 content_hash, address arbitrator, uint256 timeout, \n        uint256 min_bond, uint256 min_answer, uint256 max_answer,\n        address caller, uint256 callback_gas\n    ) \n    public\n    {\n        bytes32 request_id = keccak256(content_hash, arbitrator, timeout, min_bond, min_answer, max_answer, caller, callback_gas);\n\n        require(question_requests[request_id] > 0);\n\n        // Will revert if not finalized\n        bytes32 answer = RealityCheckAPI(realitycheck).getFinalAnswerIfMatches(question_id, content_hash, arbitrator, timeout, min_bond);\n\n        require(uint256(answer) >= uint256(min_answer));\n        require(uint256(answer) <= uint256(max_answer));\n\n        require(msg.gas > callback_gas);\n\n        _payPayee(question_id, request_id);\n\n        if (callback_gas > 0) {\n            // We call the callback with the low-level call() interface\n            // We don't care if it errors out or not - this is the responsibility of the requestor.\n            // If we called it with enough gas, we did our job.\n            // Call signature argument hard-codes the result of:\n            // bytes4(bytes32(sha3(\"__realitycheck_callback(bytes32,bytes32)\"))\n            bool callback_result = caller.call.gas(callback_gas)(0x1d7dbb43, request_id, answer); \n        }\n\n    }\n\n    event LogFundCallbackRequest(\n        bytes32 indexed question_id,\n        address indexed ctrct,\n        address indexed caller,\n        uint256 gas,\n        uint256 bounty\n    );\n\n    event LogSendCallback(\n        bytes32 indexed question_id,\n        address indexed ctrct,\n        address indexed caller,\n        uint256 gas,\n        uint256 bounty,\n        bool callback_result\n    );\n\n    function setRealityCheck(address addr) {\n        address NULL_ADDRESS;\n        require(realitycheck == NULL_ADDRESS);\n        realitycheck = addr;\n    }\n\n}\n\n",
  "sourcePath": "/var/www/html/dev/truffle/contracts/MetaQuestion.sol",
  "compiler": {
    "name": "solc",
    "version": "0.4.18+commit.9cf6e910.Emscripten.clang"
  },
  "schemaVersion": "1.0.1",
  "updatedAt": "2018-07-09T01:47:31.209Z"
}