{
  "contractName": "Realitio_v2_1",
  "abi": [
    {
      "constant": false,
      "inputs": [],
      "name": "withdraw",
      "outputs": [],
      "payable": false,
      "stateMutability": "nonpayable",
      "type": "function"
    },
    {
      "constant": true,
      "inputs": [
        {
          "name": "",
          "type": "uint256"
        }
      ],
      "name": "template_hashes",
      "outputs": [
        {
          "name": "",
          "type": "bytes32"
        }
      ],
      "payable": false,
      "stateMutability": "view",
      "type": "function"
    },
    {
      "constant": true,
      "inputs": [
        {
          "name": "",
          "type": "bytes32"
        }
      ],
      "name": "question_claims",
      "outputs": [
        {
          "name": "payee",
          "type": "address"
        },
        {
          "name": "last_bond",
          "type": "uint256"
        },
        {
          "name": "queued_funds",
          "type": "uint256"
        }
      ],
      "payable": false,
      "stateMutability": "view",
      "type": "function"
    },
    {
      "constant": true,
      "inputs": [
        {
          "name": "",
          "type": "address"
        }
      ],
      "name": "arbitrator_question_fees",
      "outputs": [
        {
          "name": "",
          "type": "uint256"
        }
      ],
      "payable": false,
      "stateMutability": "view",
      "type": "function"
    },
    {
      "constant": true,
      "inputs": [
        {
          "name": "",
          "type": "address"
        }
      ],
      "name": "balanceOf",
      "outputs": [
        {
          "name": "",
          "type": "uint256"
        }
      ],
      "payable": false,
      "stateMutability": "view",
      "type": "function"
    },
    {
      "constant": true,
      "inputs": [
        {
          "name": "",
          "type": "bytes32"
        }
      ],
      "name": "commitments",
      "outputs": [
        {
          "name": "reveal_ts",
          "type": "uint32"
        },
        {
          "name": "is_revealed",
          "type": "bool"
        },
        {
          "name": "revealed_answer",
          "type": "bytes32"
        }
      ],
      "payable": false,
      "stateMutability": "view",
      "type": "function"
    },
    {
      "constant": true,
      "inputs": [
        {
          "name": "",
          "type": "bytes32"
        }
      ],
      "name": "questions",
      "outputs": [
        {
          "name": "content_hash",
          "type": "bytes32"
        },
        {
          "name": "arbitrator",
          "type": "address"
        },
        {
          "name": "opening_ts",
          "type": "uint32"
        },
        {
          "name": "timeout",
          "type": "uint32"
        },
        {
          "name": "finalize_ts",
          "type": "uint32"
        },
        {
          "name": "is_pending_arbitration",
          "type": "bool"
        },
        {
          "name": "bounty",
          "type": "uint256"
        },
        {
          "name": "best_answer",
          "type": "bytes32"
        },
        {
          "name": "history_hash",
          "type": "bytes32"
        },
        {
          "name": "bond",
          "type": "uint256"
        }
      ],
      "payable": false,
      "stateMutability": "view",
      "type": "function"
    },
    {
      "constant": true,
      "inputs": [
        {
          "name": "",
          "type": "uint256"
        }
      ],
      "name": "templates",
      "outputs": [
        {
          "name": "",
          "type": "uint256"
        }
      ],
      "payable": false,
      "stateMutability": "view",
      "type": "function"
    },
    {
      "inputs": [],
      "payable": false,
      "stateMutability": "nonpayable",
      "type": "constructor"
    },
    {
      "anonymous": false,
      "inputs": [
        {
          "indexed": false,
          "name": "arbitrator",
          "type": "address"
        },
        {
          "indexed": false,
          "name": "amount",
          "type": "uint256"
        }
      ],
      "name": "LogSetQuestionFee",
      "type": "event"
    },
    {
      "anonymous": false,
      "inputs": [
        {
          "indexed": true,
          "name": "template_id",
          "type": "uint256"
        },
        {
          "indexed": true,
          "name": "user",
          "type": "address"
        },
        {
          "indexed": false,
          "name": "question_text",
          "type": "string"
        }
      ],
      "name": "LogNewTemplate",
      "type": "event"
    },
    {
      "anonymous": false,
      "inputs": [
        {
          "indexed": true,
          "name": "question_id",
          "type": "bytes32"
        },
        {
          "indexed": true,
          "name": "user",
          "type": "address"
        },
        {
          "indexed": false,
          "name": "template_id",
          "type": "uint256"
        },
        {
          "indexed": false,
          "name": "question",
          "type": "string"
        },
        {
          "indexed": true,
          "name": "content_hash",
          "type": "bytes32"
        },
        {
          "indexed": false,
          "name": "arbitrator",
          "type": "address"
        },
        {
          "indexed": false,
          "name": "timeout",
          "type": "uint32"
        },
        {
          "indexed": false,
          "name": "opening_ts",
          "type": "uint32"
        },
        {
          "indexed": false,
          "name": "nonce",
          "type": "uint256"
        },
        {
          "indexed": false,
          "name": "created",
          "type": "uint256"
        }
      ],
      "name": "LogNewQuestion",
      "type": "event"
    },
    {
      "anonymous": false,
      "inputs": [
        {
          "indexed": true,
          "name": "question_id",
          "type": "bytes32"
        },
        {
          "indexed": false,
          "name": "bounty_added",
          "type": "uint256"
        },
        {
          "indexed": false,
          "name": "bounty",
          "type": "uint256"
        },
        {
          "indexed": true,
          "name": "user",
          "type": "address"
        }
      ],
      "name": "LogFundAnswerBounty",
      "type": "event"
    },
    {
      "anonymous": false,
      "inputs": [
        {
          "indexed": false,
          "name": "answer",
          "type": "bytes32"
        },
        {
          "indexed": true,
          "name": "question_id",
          "type": "bytes32"
        },
        {
          "indexed": false,
          "name": "history_hash",
          "type": "bytes32"
        },
        {
          "indexed": true,
          "name": "user",
          "type": "address"
        },
        {
          "indexed": false,
          "name": "bond",
          "type": "uint256"
        },
        {
          "indexed": false,
          "name": "ts",
          "type": "uint256"
        },
        {
          "indexed": false,
          "name": "is_commitment",
          "type": "bool"
        }
      ],
      "name": "LogNewAnswer",
      "type": "event"
    },
    {
      "anonymous": false,
      "inputs": [
        {
          "indexed": true,
          "name": "question_id",
          "type": "bytes32"
        },
        {
          "indexed": true,
          "name": "user",
          "type": "address"
        },
        {
          "indexed": true,
          "name": "answer_hash",
          "type": "bytes32"
        },
        {
          "indexed": false,
          "name": "answer",
          "type": "bytes32"
        },
        {
          "indexed": false,
          "name": "nonce",
          "type": "uint256"
        },
        {
          "indexed": false,
          "name": "bond",
          "type": "uint256"
        }
      ],
      "name": "LogAnswerReveal",
      "type": "event"
    },
    {
      "anonymous": false,
      "inputs": [
        {
          "indexed": true,
          "name": "question_id",
          "type": "bytes32"
        },
        {
          "indexed": true,
          "name": "user",
          "type": "address"
        }
      ],
      "name": "LogNotifyOfArbitrationRequest",
      "type": "event"
    },
    {
      "anonymous": false,
      "inputs": [
        {
          "indexed": true,
          "name": "question_id",
          "type": "bytes32"
        },
        {
          "indexed": true,
          "name": "answer",
          "type": "bytes32"
        }
      ],
      "name": "LogFinalize",
      "type": "event"
    },
    {
      "anonymous": false,
      "inputs": [
        {
          "indexed": true,
          "name": "question_id",
          "type": "bytes32"
        },
        {
          "indexed": true,
          "name": "user",
          "type": "address"
        },
        {
          "indexed": false,
          "name": "amount",
          "type": "uint256"
        }
      ],
      "name": "LogClaim",
      "type": "event"
    },
    {
      "anonymous": false,
      "inputs": [
        {
          "indexed": true,
          "name": "user",
          "type": "address"
        },
        {
          "indexed": false,
          "name": "amount",
          "type": "uint256"
        }
      ],
      "name": "LogWithdraw",
      "type": "event"
    },
    {
      "constant": false,
      "inputs": [
        {
          "name": "fee",
          "type": "uint256"
        }
      ],
      "name": "setQuestionFee",
      "outputs": [],
      "payable": false,
      "stateMutability": "nonpayable",
      "type": "function"
    },
    {
      "constant": false,
      "inputs": [
        {
          "name": "content",
          "type": "string"
        }
      ],
      "name": "createTemplate",
      "outputs": [
        {
          "name": "",
          "type": "uint256"
        }
      ],
      "payable": false,
      "stateMutability": "nonpayable",
      "type": "function"
    },
    {
      "constant": false,
      "inputs": [
        {
          "name": "content",
          "type": "string"
        },
        {
          "name": "question",
          "type": "string"
        },
        {
          "name": "arbitrator",
          "type": "address"
        },
        {
          "name": "timeout",
          "type": "uint32"
        },
        {
          "name": "opening_ts",
          "type": "uint32"
        },
        {
          "name": "nonce",
          "type": "uint256"
        }
      ],
      "name": "createTemplateAndAskQuestion",
      "outputs": [
        {
          "name": "",
          "type": "bytes32"
        }
      ],
      "payable": true,
      "stateMutability": "payable",
      "type": "function"
    },
    {
      "constant": false,
      "inputs": [
        {
          "name": "template_id",
          "type": "uint256"
        },
        {
          "name": "question",
          "type": "string"
        },
        {
          "name": "arbitrator",
          "type": "address"
        },
        {
          "name": "timeout",
          "type": "uint32"
        },
        {
          "name": "opening_ts",
          "type": "uint32"
        },
        {
          "name": "nonce",
          "type": "uint256"
        }
      ],
      "name": "askQuestion",
      "outputs": [
        {
          "name": "",
          "type": "bytes32"
        }
      ],
      "payable": true,
      "stateMutability": "payable",
      "type": "function"
    },
    {
      "constant": false,
      "inputs": [
        {
          "name": "question_id",
          "type": "bytes32"
        }
      ],
      "name": "fundAnswerBounty",
      "outputs": [],
      "payable": true,
      "stateMutability": "payable",
      "type": "function"
    },
    {
      "constant": false,
      "inputs": [
        {
          "name": "question_id",
          "type": "bytes32"
        },
        {
          "name": "answer",
          "type": "bytes32"
        },
        {
          "name": "max_previous",
          "type": "uint256"
        }
      ],
      "name": "submitAnswer",
      "outputs": [],
      "payable": true,
      "stateMutability": "payable",
      "type": "function"
    },
    {
      "constant": false,
      "inputs": [
        {
          "name": "question_id",
          "type": "bytes32"
        },
        {
          "name": "answer_hash",
          "type": "bytes32"
        },
        {
          "name": "max_previous",
          "type": "uint256"
        },
        {
          "name": "_answerer",
          "type": "address"
        }
      ],
      "name": "submitAnswerCommitment",
      "outputs": [],
      "payable": true,
      "stateMutability": "payable",
      "type": "function"
    },
    {
      "constant": false,
      "inputs": [
        {
          "name": "question_id",
          "type": "bytes32"
        },
        {
          "name": "answer",
          "type": "bytes32"
        },
        {
          "name": "nonce",
          "type": "uint256"
        },
        {
          "name": "bond",
          "type": "uint256"
        }
      ],
      "name": "submitAnswerReveal",
      "outputs": [],
      "payable": false,
      "stateMutability": "nonpayable",
      "type": "function"
    },
    {
      "constant": false,
      "inputs": [
        {
          "name": "question_id",
          "type": "bytes32"
        },
        {
          "name": "requester",
          "type": "address"
        },
        {
          "name": "max_previous",
          "type": "uint256"
        }
      ],
      "name": "notifyOfArbitrationRequest",
      "outputs": [],
      "payable": false,
      "stateMutability": "nonpayable",
      "type": "function"
    },
    {
      "constant": false,
      "inputs": [
        {
          "name": "question_id",
          "type": "bytes32"
        },
        {
          "name": "answer",
          "type": "bytes32"
        },
        {
          "name": "answerer",
          "type": "address"
        }
      ],
      "name": "submitAnswerByArbitrator",
      "outputs": [],
      "payable": false,
      "stateMutability": "nonpayable",
      "type": "function"
    },
    {
      "constant": true,
      "inputs": [
        {
          "name": "question_id",
          "type": "bytes32"
        }
      ],
      "name": "isFinalized",
      "outputs": [
        {
          "name": "",
          "type": "bool"
        }
      ],
      "payable": false,
      "stateMutability": "view",
      "type": "function"
    },
    {
      "constant": true,
      "inputs": [
        {
          "name": "question_id",
          "type": "bytes32"
        }
      ],
      "name": "getFinalAnswer",
      "outputs": [
        {
          "name": "",
          "type": "bytes32"
        }
      ],
      "payable": false,
      "stateMutability": "view",
      "type": "function"
    },
    {
      "constant": true,
      "inputs": [
        {
          "name": "question_id",
          "type": "bytes32"
        }
      ],
      "name": "resultFor",
      "outputs": [
        {
          "name": "",
          "type": "bytes32"
        }
      ],
      "payable": false,
      "stateMutability": "view",
      "type": "function"
    },
    {
      "constant": true,
      "inputs": [
        {
          "name": "question_id",
          "type": "bytes32"
        },
        {
          "name": "content_hash",
          "type": "bytes32"
        },
        {
          "name": "arbitrator",
          "type": "address"
        },
        {
          "name": "min_timeout",
          "type": "uint32"
        },
        {
          "name": "min_bond",
          "type": "uint256"
        }
      ],
      "name": "getFinalAnswerIfMatches",
      "outputs": [
        {
          "name": "",
          "type": "bytes32"
        }
      ],
      "payable": false,
      "stateMutability": "view",
      "type": "function"
    },
    {
      "constant": false,
      "inputs": [
        {
          "name": "question_id",
          "type": "bytes32"
        },
        {
          "name": "history_hashes",
          "type": "bytes32[]"
        },
        {
          "name": "addrs",
          "type": "address[]"
        },
        {
          "name": "bonds",
          "type": "uint256[]"
        },
        {
          "name": "answers",
          "type": "bytes32[]"
        }
      ],
      "name": "claimWinnings",
      "outputs": [],
      "payable": false,
      "stateMutability": "nonpayable",
      "type": "function"
    },
    {
      "constant": false,
      "inputs": [
        {
          "name": "question_ids",
          "type": "bytes32[]"
        },
        {
          "name": "lengths",
          "type": "uint256[]"
        },
        {
          "name": "hist_hashes",
          "type": "bytes32[]"
        },
        {
          "name": "addrs",
          "type": "address[]"
        },
        {
          "name": "bonds",
          "type": "uint256[]"
        },
        {
          "name": "answers",
          "type": "bytes32[]"
        }
      ],
      "name": "claimMultipleAndWithdrawBalance",
      "outputs": [],
      "payable": false,
      "stateMutability": "nonpayable",
      "type": "function"
    },
    {
      "constant": true,
      "inputs": [
        {
          "name": "question_id",
          "type": "bytes32"
        }
      ],
      "name": "getContentHash",
      "outputs": [
        {
          "name": "",
          "type": "bytes32"
        }
      ],
      "payable": false,
      "stateMutability": "view",
      "type": "function"
    },
    {
      "constant": true,
      "inputs": [
        {
          "name": "question_id",
          "type": "bytes32"
        }
      ],
      "name": "getArbitrator",
      "outputs": [
        {
          "name": "",
          "type": "address"
        }
      ],
      "payable": false,
      "stateMutability": "view",
      "type": "function"
    },
    {
      "constant": true,
      "inputs": [
        {
          "name": "question_id",
          "type": "bytes32"
        }
      ],
      "name": "getOpeningTS",
      "outputs": [
        {
          "name": "",
          "type": "uint32"
        }
      ],
      "payable": false,
      "stateMutability": "view",
      "type": "function"
    },
    {
      "constant": true,
      "inputs": [
        {
          "name": "question_id",
          "type": "bytes32"
        }
      ],
      "name": "getTimeout",
      "outputs": [
        {
          "name": "",
          "type": "uint32"
        }
      ],
      "payable": false,
      "stateMutability": "view",
      "type": "function"
    },
    {
      "constant": true,
      "inputs": [
        {
          "name": "question_id",
          "type": "bytes32"
        }
      ],
      "name": "getFinalizeTS",
      "outputs": [
        {
          "name": "",
          "type": "uint32"
        }
      ],
      "payable": false,
      "stateMutability": "view",
      "type": "function"
    },
    {
      "constant": true,
      "inputs": [
        {
          "name": "question_id",
          "type": "bytes32"
        }
      ],
      "name": "isPendingArbitration",
      "outputs": [
        {
          "name": "",
          "type": "bool"
        }
      ],
      "payable": false,
      "stateMutability": "view",
      "type": "function"
    },
    {
      "constant": true,
      "inputs": [
        {
          "name": "question_id",
          "type": "bytes32"
        }
      ],
      "name": "getBounty",
      "outputs": [
        {
          "name": "",
          "type": "uint256"
        }
      ],
      "payable": false,
      "stateMutability": "view",
      "type": "function"
    },
    {
      "constant": true,
      "inputs": [
        {
          "name": "question_id",
          "type": "bytes32"
        }
      ],
      "name": "getBestAnswer",
      "outputs": [
        {
          "name": "",
          "type": "bytes32"
        }
      ],
      "payable": false,
      "stateMutability": "view",
      "type": "function"
    },
    {
      "constant": true,
      "inputs": [
        {
          "name": "question_id",
          "type": "bytes32"
        }
      ],
      "name": "getHistoryHash",
      "outputs": [
        {
          "name": "",
          "type": "bytes32"
        }
      ],
      "payable": false,
      "stateMutability": "view",
      "type": "function"
    },
    {
      "constant": true,
      "inputs": [
        {
          "name": "question_id",
          "type": "bytes32"
        }
      ],
      "name": "getBond",
      "outputs": [
        {
          "name": "",
          "type": "uint256"
        }
      ],
      "payable": false,
      "stateMutability": "view",
      "type": "function"
    }
  ],
  "bytecode": "0x608060405260006001553480156200001657600080fd5b506200008d606060405190810160405280603f81526020017f7b227469746c65223a20222573222c202274797065223a2022626f6f6c222c2081526020017f2263617465676f7279223a20222573222c20226c616e67223a20222573227d0081525062000308640100000000026401000000009004565b506200012a608060405190810160405280604f81526020017f7b227469746c65223a20222573222c202274797065223a202275696e74222c2081526020017f22646563696d616c73223a2031382c202263617465676f7279223a202225732281526020017f2c20226c616e67223a20222573227d000000000000000000000000000000000081525062000308640100000000026401000000009004565b50620001c7608060405190810160405280605a81526020017f7b227469746c65223a20222573222c202274797065223a202273696e676c652d81526020017f73656c656374222c20226f7574636f6d6573223a205b25735d2c20226361746581526020017f676f7279223a20222573222c20226c616e67223a20222573227d00000000000081525062000308640100000000026401000000009004565b5062000264608060405190810160405280605c81526020017f7b227469746c65223a20222573222c202274797065223a20226d756c7469706c81526020017f652d73656c656374222c20226f7574636f6d6573223a205b25735d2c2022636181526020017f7465676f7279223a20222573222c20226c616e67223a20222573227d0000000081525062000308640100000000026401000000009004565b5062000301608060405190810160405280604381526020017f7b227469746c65223a20222573222c202274797065223a20226461746574696d81526020017f65222c202263617465676f7279223a20222573222c20226c616e67223a20222581526020017f73227d000000000000000000000000000000000000000000000000000000000081525062000308640100000000026401000000009004565b50620004ca565b60015460008181526002602090815260408083204390555184519293928592918201918291908401908083835b60208310620003565780518252601f19909201916020918201910162000335565b6001836020036101000a0380198251168184511680821785525050505050509050019150506040516020818303038152906040526040518082805190602001908083835b60208310620003bb5780518252601f1990920191602091820191016200039a565b51815160209384036101000a6000190180199092169116179052604080519290940182900382206000888152600383528581209190915581835289518383015289513397508896507fb87fb721c0a557bb8dff89a86796466931d82ba530a66a239263eb8735ade2e4958b955084939084019290860191908190849084905b83811015620004545781810151838201526020016200043a565b50505050905090810190601f168015620004825780820380516001836020036101000a031916815260200191505b509250505060405180910390a3620004aa81600164010000000062003023620004b382021704565b60015592915050565b600082820183811015620004c357fe5b9392505050565b61397380620004da6000396000f3006080604052600436106101925763ffffffff60e060020a6000350416631101a0fd811461019757806312a203c31461029e5780632417395c146102e35780632518904c146102fb57806326d6c97b1461032f57806328828b1e146103475780633ccfd60b146104b95780634dc266b4146104ce5780634df6ca2a146104ef5780634e60f8831461050757806351577ea91461051f578063590158a71461053757806359245ff3146105775780636fa427421461058257806370a08231146105a3578063762c38fd146105c457806377f325df1461063a5780637f8d429e1461064b57806382ffa9f714610677578063839df9451461068f57806383bf4609146106cc5780638d552d4614610725578063924532fb1461073d57806395addb90146107555780639e63fa6a146107d15780639f1025c614610802578063a1130d041461081a578063a462fb7b146108c9578063acae8f4e146108e1578063bc525652146108f9578063d09cc57e146108c9578063d7cff98614610911578063f6a94ecb1461092e578063fe92049d14610955575b600080fd5b3480156101a357600080fd5b5060408051602060046024803582810135848102808701860190975280865261029c96843596369660449591949091019291829185019084908082843750506040805187358901803560208181028481018201909552818452989b9a998901989297509082019550935083925085019084908082843750506040805187358901803560208181028481018201909552818452989b9a998901989297509082019550935083925085019084908082843750506040805187358901803560208181028481018201909552818452989b9a99890198929750908201955093508392508501908490808284375094975061097c9650505050505050565b005b3480156102aa57600080fd5b506102d1600435602435600160a060020a036044351663ffffffff60643516608435610cd7565b60408051918252519081900360200190f35b3480156102ef57600080fd5b506102d1600435610f14565b34801561030757600080fd5b50610313600435610f29565b60408051600160a060020a039092168252519081900360200190f35b34801561033b57600080fd5b506102d1600435610f47565b34801561035357600080fd5b506040805160206004803580820135838102808601850190965280855261029c95369593946024949385019291829185019084908082843750506040805187358901803560208181028481018201909552818452989b9a998901989297509082019550935083925085019084908082843750506040805187358901803560208181028481018201909552818452989b9a998901989297509082019550935083925085019084908082843750506040805187358901803560208181028481018201909552818452989b9a998901989297509082019550935083925085019084908082843750506040805187358901803560208181028481018201909552818452989b9a998901989297509082019550935083925085019084908082843750506040805187358901803560208181028481018201909552818452989b9a998901989297509082019550935083925085019084908082843750949750610f5c9650505050505050565b3480156104c557600080fd5b5061029c611170565b3480156104da57600080fd5b5061029c6004356024356044356064356111eb565b3480156104fb57600080fd5b5061029c60043561168b565b34801561051357600080fd5b506102d16004356116da565b34801561052b57600080fd5b506102d16004356116ec565b34801561054357600080fd5b5061054f6004356116fe565b60408051600160a060020a039094168452602084019290925282820152519081900360600190f35b61029c600435611729565b34801561058e57600080fd5b506102d1600160a060020a0360043516611986565b3480156105af57600080fd5b506102d1600160a060020a0360043516611998565b60408051602060046024803582810135601f81018590048502860185019096528585526102d195833595369560449491939091019190819084018382808284375094975050508335600160a060020a03169450505050602081013563ffffffff90811691604081013590911690606001356119aa565b61029c600435602435604435611cce565b34801561065757600080fd5b50610663600435612062565b604080519115158252519081900360200190f35b34801561068357600080fd5b506102d16004356120bf565b34801561069b57600080fd5b506106a76004356120d4565b6040805163ffffffff9094168452911515602084015282820152519081900360600190f35b3480156106d857600080fd5b506040805160206004803580820135601f81018490048402850184019095528484526102d19436949293602493928401919081908401838280828437509497506121019650505050505050565b34801561073157600080fd5b506102d160043561229b565b34801561074957600080fd5b506106636004356122b1565b34801561076157600080fd5b5061076d6004356122c9565b604080519a8b52600160a060020a0390991660208b015263ffffffff9788168a8a015295871660608a015293909516608088015290151560a087015260c086015260e085019290925261010084019190915261012083015251908190036101400190f35b3480156107dd57600080fd5b506107e9600435612334565b6040805163ffffffff9092168252519081900360200190f35b34801561080e57600080fd5b506107e9600435612356565b6040805160206004803580820135601f81018490048402850184019095528484526102d194369492936024939284019190819084018382808284375050604080516020601f89358b018035918201839004830284018301909452808352979a99988101979196509182019450925082915084018382808284375094975050508335600160a060020a03169450505050602081013563ffffffff9081169160408101359091169060600135612378565b3480156108d557600080fd5b506102d16004356123a0565b3480156108ed57600080fd5b506107e960043561241a565b34801561090557600080fd5b506102d160043561243c565b61029c600435602435604435600160a060020a036064351661244e565b34801561093a57600080fd5b5061029c600435600160a060020a0360243516604435612869565b34801561096157600080fd5b5061029c600435602435600160a060020a0360443516612c3f565b60008060008060008060008b61099181612062565b15156109e7576040805160e560020a62461bcd02815260206004820152601a60248201527f7175657374696f6e206d7573742062652066696e616c697a6564000000000000604482015290519081900360640190fd5b8b51600010610a66576040805160e560020a62461bcd02815260206004820152603060248201527f6174206c65617374206f6e6520686973746f7279206861736820656e7472792060448201527f6d7573742062652070726f766964656400000000000000000000000000000000606482015290519081900360840190fd5b60008d815260056020818152604080842080546001820154600290920154600494859052928620948501549490930154600160a060020a039093169c509a509850909650945092505b8b51831015610bfa57610b21858d85815181101515610aca57fe5b906020019060200201518b86815181101515610ae257fe5b906020019060200201518d87815181101515610afa57fe5b906020019060200201518f88815181101515610b1257fe5b90602001906020020151612e0d565b9150610b33868863ffffffff61302316565b9550610b8a8d85888b8f88815181101515610b4a57fe5b906020019060200201518f89815181101515610b6257fe5b906020019060200201518f8a815181101515610b7a57fe5b906020019060200201518961303d565b8b519099509096508a9084908110610b9e57fe5b602090810290910181015160008f815260049092526040909120600601549097508714610bd557610bd2876028810461316d565b96505b8b83815181101515610be357fe5b602090810290910101519450600190920191610aaf565b8415610c6557600160a060020a03881615610c1f57610c1a8d898861317f565b600095505b60008d8152600560205260409020805473ffffffffffffffffffffffffffffffffffffffff1916600160a060020a038a1617815560018101889055600201869055610cb4565b610c7f8d89610c7a898b63ffffffff61302316565b61317f565b60008d8152600560205260408120805473ffffffffffffffffffffffffffffffffffffffff1916815560018101829055600201555b5050506000998a5250600460205260409098206005019790975550505050505050565b600085610ce381612062565b1515610d39576040805160e560020a62461bcd02815260206004820152601a60248201527f7175657374696f6e206d7573742062652066696e616c697a6564000000000000604482015290519081900360640190fd5b6000878152600460205260409020548614610d9e576040805160e560020a62461bcd02815260206004820152601760248201527f636f6e74656e742068617368206d757374206d61746368000000000000000000604482015290519081900360640190fd5b600087815260046020526040902060010154600160a060020a03868116911614610e12576040805160e560020a62461bcd02815260206004820152601560248201527f61726269747261746f72206d757374206d617463680000000000000000000000604482015290519081900360640190fd5b60008781526004602052604090206001015463ffffffff60c060020a90910481169085161115610e8c576040805160e560020a62461bcd02815260206004820152601b60248201527f74696d656f7574206d757374206265206c6f6e6720656e6f7567680000000000604482015290519081900360640190fd5b600087815260046020526040902060060154831115610ef5576040805160e560020a62461bcd02815260206004820152601860248201527f626f6e64206d757374206265206869676820656e6f7567680000000000000000604482015290519081900360640190fd5b6000878152600460208190526040909120015491505095945050505050565b60009081526004602052604090206003015490565b600090815260046020526040902060010154600160a060020a031690565b60009081526004602052604090206006015490565b60008080806060808080845b8e51891015611157578e89815181101515610f7f57fe5b9060200190602002015196508d89815181101515610f9957fe5b90602001906020020151955085604051908082528060200260200182016040528015610fcf578160200160208202803883390190505b50945085604051908082528060200260200182016040528015610ffc578160200160208202803883390190505b50935085604051908082528060200260200182016040528015611029578160200160208202803883390190505b50925085604051908082528060200260200182016040528015611056578160200160208202803883390190505b509150600090505b8581101561113f578c8881518110151561107457fe5b90602001906020020151858281518110151561108c57fe5b602090810290910101528b518c90899081106110a457fe5b9060200190602002015184828151811015156110bc57fe5b600160a060020a039092166020928302909101909101528a518b90899081106110e157fe5b9060200190602002015183828151811015156110f957fe5b6020908102909101015289518a908990811061111157fe5b90602001906020020151828281518110151561112957fe5b602090810290910101526001978801970161105e565b61114c878686868661097c565b600190980197610f68565b61115f611170565b505050505050505050505050505050565b33600081815260208190526040808220805490839055905190929183156108fc02918491818181858888f193505050501580156111b1573d6000803e3d6000fd5b5060408051828152905133917f4ce7033d118120e254016dccf195288400b28fc8936425acd5f17ce2df3ab708919081900360200190a250565b600084815260046020526040812060010154819086908290819060c060020a900463ffffffff168110611256576040805160e560020a62461bcd0281526020600482015260136024820152600080516020613888833981519152604482015290519081900360640190fd5b60008381526004602052604090206001015460e060020a900463ffffffff16915081158061128f57504263ffffffff168263ffffffff16115b151561130b576040805160e560020a62461bcd02815260206004820152602960248201527f66696e616c697a6174696f6e206465616c696e65206d757374206e6f7420686160448201527f7665207061737365640000000000000000000000000000000000000000000000606482015290519081900360840190fd5b5060008281526004602052604090206001015460a060020a900463ffffffff1680158061134457504263ffffffff168163ffffffff1611155b1515611388576040805160e560020a62461bcd02815260206004820152601d6024820152600080516020613908833981519152604482015290519081900360640190fd5b6040805160208082018b90528183018a9052825180830384018152606090920192839052815191929182918401908083835b602083106113d95780518252601f1990920191602091820191016113ba565b6001836020036101000a03801982511681845116808217855250505050505090500191505060405180910390209450888587604051602001808460001916600019168152602001836000191660001916815260200182815260200193505050506040516020818303038152906040526040518082805190602001908083835b602083106114775780518252601f199092019160209182019101611458565b51815160209384036101000a60001901801990921691161790526040805192909401829003909120600081815260069092529290205491975050640100000000900460ff1615915061153b9050576040805160e560020a62461bcd02815260206004820152602a60248201527f636f6d6d69746d656e74206d757374206e6f742068617665206265656e20726560448201527f7665616c65642079657400000000000000000000000000000000000000000000606482015290519081900360840190fd5b60008481526006602052604090205463ffffffff4281169116116115ce576040805160e560020a62461bcd028152602060048201526024808201527f72657665616c20646561646c696e65206d757374206e6f74206861766520706160448201527f7373656400000000000000000000000000000000000000000000000000000000606482015290519081900360840190fd5b6000848152600660208181526040808420600181018d9055805464ff0000000019166401000000001790558c84526004909152909120015486141561163957600089815260046020526040902060010154611639908a908a9060c060020a900463ffffffff16613200565b60408051898152602081018990528082018890529051869133918c917fa7b2d313bc7a062e30b2c3b811aa4c9faf09755a6b4ea3bf42deff920944332f919081900360600190a4505050505050505050565b336000818152600760209081526040918290208490558151928352820183905280517fdca703d022171824d3d639b33c1525fd2338120b4cfb89507c0b59596893acda9281900390910190a150565b60036020526000908152604090205481565b60009081526004602052604090205490565b600560205260009081526040902080546001820154600290920154600160a060020a03909116919083565b600081815260046020526040812060010154829190819060c060020a900463ffffffff168110611791576040805160e560020a62461bcd0281526020600482015260136024820152600080516020613888833981519152604482015290519081900360640190fd5b60008381526004602052604090206002015460ff16156117fd576040805160e560020a62461bcd02815260206004820152602860248201526000805160206138c883398151915260448201526000805160206138a8833981519152606482015290519081900360840190fd5b60008381526004602052604090206001015460e060020a900463ffffffff16915081158061183657504263ffffffff168263ffffffff16115b151561188e576040805160e560020a62461bcd02815260206004820152602a60248201526000805160206138e88339815191526044820152600080516020613928833981519152606482015290519081900360840190fd5b5060008281526004602052604090206001015460a060020a900463ffffffff168015806118c757504263ffffffff168163ffffffff1611155b151561190b576040805160e560020a62461bcd02815260206004820152601d6024820152600080516020613908833981519152604482015290519081900360640190fd5b60008481526004602052604090206003015461192d903463ffffffff61302316565b6000858152600460209081526040918290206003018390558151348152908101929092528051339287927f54d68405b79f2aa4fd4e8db7b67844ad254cf8f208aac476c2894134a9deab6692918290030190a350505050565b60076020526000908152604090205481565b60006020819052908152604090205481565b600086815260026020526040812054819081908110611a13576040805160e560020a62461bcd02815260206004820152601360248201527f74656d706c617465206d75737420657869737400000000000000000000000000604482015290519081900360640190fd5b888589604051602001808481526020018363ffffffff1663ffffffff1660e060020a02815260040182805190602001908083835b60208310611a665780518252601f199092019160209182019101611a47565b6001836020036101000a03801982511681845116808217855250505050505090500193505050506040516020818303038152906040526040518082805190602001908083835b60208310611acb5780518252601f199092019160209182019101611aac565b51815160209384036101000a600019018019909216911617905260408051929094018290038220828201819052600160a060020a038e166c010000000000000000000000009081028487015263ffffffff8e1660e060020a02605485015233026058840152606c8084018c905285518085039091018152608c9093019485905282519098509195509293508392850191508083835b60208310611b7f5780518252601f199092019160209182019101611b60565b6001836020036101000a03801982511681845116808217855250505050505090500191505060405180910390209050611bbb8183898989613277565b816000191633600160a060020a031682600019167ffe2dac156a3890636ce13f65f4fdf41dcaee11526e4a5374531572d92194796c8c8c8c8c8c8c42604051808881526020018060200187600160a060020a0316600160a060020a031681526020018663ffffffff1663ffffffff1681526020018563ffffffff1663ffffffff168152602001848152602001838152602001828103825288818151815260200191508051906020019080838360005b83811015611c82578181015183820152602001611c6a565b50505050905090810190601f168015611caf5780820380516001836020036101000a031916815260200191505b509850505050505050505060405180910390a498975050505050505050565b600083815260046020526040812060010154849190819060c060020a900463ffffffff168110611d36576040805160e560020a62461bcd0281526020600482015260136024820152600080516020613888833981519152604482015290519081900360640190fd5b60008381526004602052604090206002015460ff1615611da2576040805160e560020a62461bcd02815260206004820152602860248201526000805160206138c883398151915260448201526000805160206138a8833981519152606482015290519081900360840190fd5b60008381526004602052604090206001015460e060020a900463ffffffff169150811580611ddb57504263ffffffff168263ffffffff16115b1515611e33576040805160e560020a62461bcd02815260206004820152602a60248201526000805160206138e88339815191526044820152600080516020613928833981519152606482015290519081900360840190fd5b5060008281526004602052604090206001015460a060020a900463ffffffff16801580611e6c57504263ffffffff168163ffffffff1611155b1515611eb0576040805160e560020a62461bcd02815260206004820152601d6024820152600080516020613908833981519152604482015290519081900360640190fd5b8560003411611f09576040805160e560020a62461bcd02815260206004820152601560248201527f626f6e64206d75737420626520706f7369746976650000000000000000000000604482015290519081900360640190fd5b600081815260046020526040902060060154611f2c90600263ffffffff6135d816565b341015611fa9576040805160e560020a62461bcd02815260206004820152602a60248201527f626f6e64206d75737420626520646f75626c65206174206c656173742070726560448201527f76696f757320626f6e6400000000000000000000000000000000000000000000606482015290519081900360840190fd5b8685600081111561201d5760008281526004602052604090206006015481101561201d576040805160e560020a62461bcd02815260206004820152601d60248201527f626f6e64206d75737420657863656564206d61785f70726576696f7573000000604482015290519081900360640190fd5b61202b898933346000613603565b600089815260046020526040902060010154612057908a908a9060c060020a900463ffffffff16613200565b505050505050505050565b6000818152600460205260408120600181015460029091015460e060020a90910463ffffffff169060ff161580156120a05750600063ffffffff8216115b80156120b857504263ffffffff168163ffffffff1611155b9392505050565b60009081526004602052604090206005015490565b6006602052600090815260409020805460019091015463ffffffff821691640100000000900460ff169083565b60015460008181526002602090815260408083204390555184519293928592918201918291908401908083835b6020831061214d5780518252601f19909201916020918201910161212e565b6001836020036101000a0380198251168184511680821785525050505050509050019150506040516020818303038152906040526040518082805190602001908083835b602083106121b05780518252601f199092019160209182019101612191565b51815160209384036101000a6000190180199092169116179052604080519290940182900382206000888152600383528581209190915581835289518383015289513397508896507fb87fb721c0a557bb8dff89a86796466931d82ba530a66a239263eb8735ade2e4958b955084939084019290860191908190849084905b8381101561224757818101518382015260200161222f565b50505050905090810190601f1680156122745780820380516001836020036101000a031916815260200191505b509250505060405180910390a361229281600163ffffffff61302316565b60015592915050565b6000908152600460208190526040909120015490565b60009081526004602052604090206002015460ff1690565b600460208190526000918252604090912080546001820154600283015460038401549484015460058501546006909501549395600160a060020a0384169563ffffffff60a060020a860481169660c060020a870482169660e060020a90049091169460ff169391908a565b60009081526004602052604090206001015460a060020a900463ffffffff1690565b60009081526004602052604090206001015460c060020a900463ffffffff1690565b60008061238488612101565b90506123948188888888886119aa565b98975050505050505050565b6000816123ac81612062565b1515612402576040805160e560020a62461bcd02815260206004820152601a60248201527f7175657374696f6e206d7573742062652066696e616c697a6564000000000000604482015290519081900360640190fd5b50506000908152600460208190526040909120015490565b60009081526004602052604090206001015460e060020a900463ffffffff1690565b60026020526000908152604090205481565b600084815260046020526040812060010154819086908290819060c060020a900463ffffffff1681106124b9576040805160e560020a62461bcd0281526020600482015260136024820152600080516020613888833981519152604482015290519081900360640190fd5b60008381526004602052604090206002015460ff1615612525576040805160e560020a62461bcd02815260206004820152602860248201526000805160206138c883398151915260448201526000805160206138a8833981519152606482015290519081900360840190fd5b60008381526004602052604090206001015460e060020a900463ffffffff16915081158061255e57504263ffffffff168263ffffffff16115b15156125b6576040805160e560020a62461bcd02815260206004820152602a60248201526000805160206138e88339815191526044820152600080516020613928833981519152606482015290519081900360840190fd5b5060008281526004602052604090206001015460a060020a900463ffffffff168015806125ef57504263ffffffff168163ffffffff1611155b1515612633576040805160e560020a62461bcd02815260206004820152601d6024820152600080516020613908833981519152604482015290519081900360640190fd5b886000341161268c576040805160e560020a62461bcd02815260206004820152601560248201527f626f6e64206d75737420626520706f7369746976650000000000000000000000604482015290519081900360640190fd5b6000818152600460205260409020600601546126af90600263ffffffff6135d816565b34101561272c576040805160e560020a62461bcd02815260206004820152602a60248201527f626f6e64206d75737420626520646f75626c65206174206c656173742070726560448201527f76696f757320626f6e6400000000000000000000000000000000000000000000606482015290519081900360840190fd5b898860008111156127a0576000828152600460205260409020600601548110156127a0576040805160e560020a62461bcd02815260206004820152601d60248201527f626f6e64206d75737420657863656564206d61785f70726576696f7573000000604482015290519081900360640190fd5b6040805160208082018f90528183018e90523460608084019190915283518084039091018152608090920192839052815191929182918401908083835b602083106127fc5780518252601f1990920191602091820191016127dd565b5181516020939093036101000a600019018019909116921691909117905260405192018290039091209a50505050600160a060020a0389161561283f5788612841565b335b965061284d8c8961377b565b61285b8c8989346001613603565b505050505050505050505050565b6000838152600460205260409020600101548390600160a060020a031633146128dc576040805160e560020a62461bcd02815260206004820152601d60248201527f6d73672e73656e646572206d7573742062652061726269747261746f72000000604482015290519081900360640190fd5b600084815260046020526040812060010154859190819060c060020a900463ffffffff168110612944576040805160e560020a62461bcd0281526020600482015260136024820152600080516020613888833981519152604482015290519081900360640190fd5b60008381526004602052604090206002015460ff16156129b0576040805160e560020a62461bcd02815260206004820152602860248201526000805160206138c883398151915260448201526000805160206138a8833981519152606482015290519081900360840190fd5b60008381526004602052604090206001015460e060020a900463ffffffff1691508115806129e957504263ffffffff168263ffffffff16115b1515612a41576040805160e560020a62461bcd02815260206004820152602a60248201526000805160206138e88339815191526044820152600080516020613928833981519152606482015290519081900360840190fd5b5060008281526004602052604090206001015460a060020a900463ffffffff16801580612a7a57504263ffffffff168163ffffffff1611155b1515612abe576040805160e560020a62461bcd02815260206004820152601d6024820152600080516020613908833981519152604482015290519081900360640190fd5b86856000811115612b3257600082815260046020526040902060060154811015612b32576040805160e560020a62461bcd02815260206004820152601d60248201527f626f6e64206d75737420657863656564206d61785f70726576696f7573000000604482015290519081900360640190fd5b60008981526004602052604081206006015411612be5576040805160e560020a62461bcd02815260206004820152604260248201527f5175657374696f6e206d75737420616c7265616479206861766520616e20616e60448201527f73776572207768656e206172626974726174696f6e206973207265717565737460648201527f6564000000000000000000000000000000000000000000000000000000000000608482015290519081900360a40190fd5b600089815260046020526040808220600201805460ff1916600117905551600160a060020a038a16918b917f75d7939999bc902187c4aed400872883e445145f1983539166f783fa040b47629190a3505050505050505050565b6000838152600460205260409020600101548390600160a060020a03163314612cb2576040805160e560020a62461bcd02815260206004820152601d60248201527f6d73672e73656e646572206d7573742062652061726269747261746f72000000604482015290519081900360640190fd5b600084815260046020526040902060020154849060ff161515612d44576040805160e560020a62461bcd028152602060048201526024808201527f7175657374696f6e206d7573742062652070656e64696e67206172626974726160448201527f74696f6e00000000000000000000000000000000000000000000000000000000606482015290519081900360840190fd5b600160a060020a0383161515612da4576040805160e560020a62461bcd02815260206004820152601960248201527f616e737765726572206d7573742062652070726f766964656400000000000000604482015290519081900360640190fd5b604051849086907f18d760beffe3717270cd90d9d920ec1a48c194e9ad7bba23eb1c92d3eb974f9790600090a36000858152600460205260408120600201805460ff19169055612dfa9086908690869080613603565b612e0685856000613200565b5050505050565b604080516020808201879052818301869052606082018590526c01000000000000000000000000600160a060020a0385160260808301527f01000000000000000000000000000000000000000000000000000000000000006094830152825160758184030181526095909201928390528151600093918291908401908083835b60208310612eac5780518252601f199092019160209182019101612e8d565b5181516020939093036101000a600019018019909116921691909117905260405192018290039091208914159250612ee99150505750600161301a565b604080516020808201889052818301879052606082018690526c01000000000000000000000000600160a060020a0386160260808301526000609483015282516075818403018152609590920192839052815191929182918401908083835b60208310612f675780518252601f199092019160209182019101612f48565b5181516020939093036101000a600019018019909116921691909117905260405192018290039091208914159250612fa49150505750600061301a565b6040805160e560020a62461bcd02815260206004820152603660248201527f486973746f727920696e7075742070726f766964656420646964206e6f74206d60448201527f6174636820746865206578706563746564206861736800000000000000000000606482015290519081900360840190fd5b95945050505050565b60008282018381101561303257fe5b8091505b5092915050565b60008060008084156130bd57600086815260066020526040902054869250640100000000900460ff161515613095576000828152600660205260408120805464ffffffffff191681556001015589935088925061315e565b6000828152600660205260408120600181018054825464ffffffffff19169092559190915595505b858b141561315757600160a060020a03891615156131165760008c81526004602052604090206003015497985088976130fd908b9063ffffffff61302316565b60008d8152600460205260408120600301559950613157565b600160a060020a03888116908a161461315757868a10156131375789613139565b865b90506131508c8a610c7a8d8563ffffffff61316d16565b8798508099505b8989935093505b50509850989650505050505050565b60008282111561317957fe5b50900390565b600160a060020a0382166000908152602081905260409020546131a8908263ffffffff61302316565b600160a060020a038316600081815260208181526040918290209390935580518481529051919286927f9c121aff33b50c1a53fef034ebec5f83da2d5a5187048f9c76c397ba27c1a1a69281900390910190a3505050565b60008381526004602081905260409091200182905561322963ffffffff42811690839061386f16565b600093845260046020526040909320600101805463ffffffff9490941660e060020a027bffffffffffffffffffffffffffffffffffffffffffffffffffffffff909416939093179092555050565b6000858152600460205260408120600101548190879060c060020a900463ffffffff16156132ef576040805160e560020a62461bcd02815260206004820152601760248201527f7175657374696f6e206d757374206e6f74206578697374000000000000000000604482015290519081900360640190fd5b600063ffffffff86161161334d576040805160e560020a62461bcd02815260206004820152601860248201527f74696d656f7574206d75737420626520706f7369746976650000000000000000604482015290519081900360640190fd5b6301e1338063ffffffff8616106133d4576040805160e560020a62461bcd02815260206004820152602260248201527f74696d656f7574206d757374206265206c657373207468616e2033363520646160448201527f7973000000000000000000000000000000000000000000000000000000000000606482015290519081900360840190fd5b600160a060020a0386161515613434576040805160e560020a62461bcd02815260206004820152601660248201527f61726269747261746f72206d7573742062652073657400000000000000000000604482015290519081900360640190fd5b34925033600160a060020a0387161461353557600160a060020a0386166000908152600760205260409020549150818310156134df576040805160e560020a62461bcd028152602060048201526024808201527f4554482070726f7669646564206d75737420636f766572207175657374696f6e60448201527f2066656500000000000000000000000000000000000000000000000000000000606482015290519081900360840190fd5b6134ef838363ffffffff61316d16565b600160a060020a03871660009081526020819052604090205490935061351b908363ffffffff61302316565b600160a060020a0387166000908152602081905260409020555b505060009586526004602052604090952093845560018401805473ffffffffffffffffffffffffffffffffffffffff1916600160a060020a03949094169390931777ffffffff0000000000000000000000000000000000000000191660a060020a63ffffffff92831602177fffffffff00000000ffffffffffffffffffffffffffffffffffffffffffffffff1660c060020a929091169190910217905560030155565b6000808315156135eb5760009150613036565b508282028284828115156135fb57fe5b041461303257fe5b600085815260046020908152604080832060050154815180840191909152808201889052606081018690526c01000000000000000000000000600160a060020a0388160260808201527f010000000000000000000000000000000000000000000000000000000000000085151502609482015281516075818303018152609590910191829052805190928291908401908083835b602083106136b65780518252601f199092019160209182019101613697565b6001836020036101000a0380198251168184511680821785525050505050509050019150506040518091039020905060008311156137035760008681526004602052604090206006018390555b600086815260046020908152604091829020600501839055815187815290810183905280820185905242606082015283151560808201529051600160a060020a0386169188917fe47ca4ebbbc2990134d1168821f38c5e177f3d5ee564bffeadeaa351905e62219181900360a00190a3505050505050565b60008181526006602052604081205463ffffffff161561380b576040805160e560020a62461bcd02815260206004820152602160248201527f636f6d6d69746d656e74206d757374206e6f7420616c7265616479206578697360448201527f7400000000000000000000000000000000000000000000000000000000000000606482015290519081900360840190fd5b60008381526004602052604090206001015460089060c060020a900463ffffffff1604905061384463ffffffff42811690839061386f16565b600092835260066020526040909220805463ffffffff191663ffffffff909316929092179091555050565b600082820163ffffffff808516908216101561303257fe007175657374696f6e206d757374206578697374000000000000000000000000006974726174696f6e0000000000000000000000000000000000000000000000007175657374696f6e206d757374206e6f742062652070656e64696e672061726266696e616c697a6174696f6e20646561646c696e65206d757374206e6f7420686f70656e696e672064617465206d7573742068617665207061737365640000006176652070617373656400000000000000000000000000000000000000000000a165627a7a723058209cf56b2d3e9e888ba1e9e773bb6f6660c5068559707dcb9a4d342a0c060d347f0029",
  "source": "pragma solidity ^0.4.24;\n\nimport './RealitioSafeMath256.sol';\nimport './RealitioSafeMath32.sol';\nimport './BalanceHolder.sol';\n\n// Next version of Realitio v2, will be deployed on xdai, may be deployed to other networks in future\n// API-compatible with Realitio v2, address will be stored in Realitio.json\n// See the following commit for changes\n// https://github.com/realitio/realitio-contracts/commit/a0e637747a7e13c1a07741e2ea8637f344130f56\ncontract Realitio_v2_1 is BalanceHolder {\n\n    using RealitioSafeMath256 for uint256;\n    using RealitioSafeMath32 for uint32;\n\n    address constant NULL_ADDRESS = address(0);\n\n    // History hash when no history is created, or history has been cleared\n    bytes32 constant NULL_HASH = bytes32(0);\n\n    // An unitinalized finalize_ts for a question will indicate an unanswered question.\n    uint32 constant UNANSWERED = 0;\n\n    // An unanswered reveal_ts for a commitment will indicate that it does not exist.\n    uint256 constant COMMITMENT_NON_EXISTENT = 0;\n\n    // Commit->reveal timeout is 1/8 of the question timeout (rounded down).\n    uint32 constant COMMITMENT_TIMEOUT_RATIO = 8;\n\n    // Proportion withheld when you claim an earlier bond.\n    uint256 constant BOND_CLAIM_FEE_PROPORTION = 40; // One 40th ie 2.5%\n\n    event LogSetQuestionFee(\n        address arbitrator,\n        uint256 amount\n    );\n\n    event LogNewTemplate(\n        uint256 indexed template_id,\n        address indexed user, \n        string question_text\n    );\n\n    event LogNewQuestion(\n        bytes32 indexed question_id,\n        address indexed user, \n        uint256 template_id,\n        string question,\n        bytes32 indexed content_hash,\n        address arbitrator, \n        uint32 timeout,\n        uint32 opening_ts,\n        uint256 nonce,\n        uint256 created\n    );\n\n    event LogFundAnswerBounty(\n        bytes32 indexed question_id,\n        uint256 bounty_added,\n        uint256 bounty,\n        address indexed user \n    );\n\n    event LogNewAnswer(\n        bytes32 answer,\n        bytes32 indexed question_id,\n        bytes32 history_hash,\n        address indexed user,\n        uint256 bond,\n        uint256 ts,\n        bool is_commitment\n    );\n\n    event LogAnswerReveal(\n        bytes32 indexed question_id, \n        address indexed user, \n        bytes32 indexed answer_hash, \n        bytes32 answer, \n        uint256 nonce, \n        uint256 bond\n    );\n\n    event LogNotifyOfArbitrationRequest(\n        bytes32 indexed question_id,\n        address indexed user \n    );\n\n    event LogFinalize(\n        bytes32 indexed question_id,\n        bytes32 indexed answer\n    );\n\n    event LogClaim(\n        bytes32 indexed question_id,\n        address indexed user,\n        uint256 amount\n    );\n\n    struct Question {\n        bytes32 content_hash;\n        address arbitrator;\n        uint32 opening_ts;\n        uint32 timeout;\n        uint32 finalize_ts;\n        bool is_pending_arbitration;\n        uint256 bounty;\n        bytes32 best_answer;\n        bytes32 history_hash;\n        uint256 bond;\n    }\n\n    // Stored in a mapping indexed by commitment_id, a hash of commitment hash, question, bond. \n    struct Commitment {\n        uint32 reveal_ts;\n        bool is_revealed;\n        bytes32 revealed_answer;\n    }\n\n    // Only used when claiming more bonds than fits into a transaction\n    // Stored in a mapping indexed by question_id.\n    struct Claim {\n        address payee;\n        uint256 last_bond;\n        uint256 queued_funds;\n    }\n\n    uint256 nextTemplateID = 0;\n    mapping(uint256 => uint256) public templates;\n    mapping(uint256 => bytes32) public template_hashes;\n    mapping(bytes32 => Question) public questions;\n    mapping(bytes32 => Claim) public question_claims;\n    mapping(bytes32 => Commitment) public commitments;\n    mapping(address => uint256) public arbitrator_question_fees; \n\n    modifier onlyArbitrator(bytes32 question_id) {\n        require(msg.sender == questions[question_id].arbitrator, \"msg.sender must be arbitrator\");\n        _;\n    }\n\n    modifier stateAny() {\n        _;\n    }\n\n    modifier stateNotCreated(bytes32 question_id) {\n        require(questions[question_id].timeout == 0, \"question must not exist\");\n        _;\n    }\n\n    modifier stateOpen(bytes32 question_id) {\n        require(questions[question_id].timeout > 0, \"question must exist\");\n        require(!questions[question_id].is_pending_arbitration, \"question must not be pending arbitration\");\n        uint32 finalize_ts = questions[question_id].finalize_ts;\n        require(finalize_ts == UNANSWERED || finalize_ts > uint32(now), \"finalization deadline must not have passed\");\n        uint32 opening_ts = questions[question_id].opening_ts;\n        require(opening_ts == 0 || opening_ts <= uint32(now), \"opening date must have passed\"); \n        _;\n    }\n\n    modifier statePendingArbitration(bytes32 question_id) {\n        require(questions[question_id].is_pending_arbitration, \"question must be pending arbitration\");\n        _;\n    }\n\n    modifier stateOpenOrPendingArbitration(bytes32 question_id) {\n        require(questions[question_id].timeout > 0, \"question must exist\");\n        uint32 finalize_ts = questions[question_id].finalize_ts;\n        require(finalize_ts == UNANSWERED || finalize_ts > uint32(now), \"finalization dealine must not have passed\");\n        uint32 opening_ts = questions[question_id].opening_ts;\n        require(opening_ts == 0 || opening_ts <= uint32(now), \"opening date must have passed\"); \n        _;\n    }\n\n    modifier stateFinalized(bytes32 question_id) {\n        require(isFinalized(question_id), \"question must be finalized\");\n        _;\n    }\n\n    modifier bondMustDouble(bytes32 question_id) {\n        require(msg.value > 0, \"bond must be positive\"); \n        require(msg.value >= (questions[question_id].bond.mul(2)), \"bond must be double at least previous bond\");\n        _;\n    }\n\n    modifier previousBondMustNotBeatMaxPrevious(bytes32 question_id, uint256 max_previous) {\n        if (max_previous > 0) {\n            require(questions[question_id].bond <= max_previous, \"bond must exceed max_previous\");\n        }\n        _;\n    }\n\n    /// @notice Constructor, sets up some initial templates\n    /// @dev Creates some generalized templates for different question types used in the DApp.\n    constructor() \n    public {\n        createTemplate('{\"title\": \"%s\", \"type\": \"bool\", \"category\": \"%s\", \"lang\": \"%s\"}');\n        createTemplate('{\"title\": \"%s\", \"type\": \"uint\", \"decimals\": 18, \"category\": \"%s\", \"lang\": \"%s\"}');\n        createTemplate('{\"title\": \"%s\", \"type\": \"single-select\", \"outcomes\": [%s], \"category\": \"%s\", \"lang\": \"%s\"}');\n        createTemplate('{\"title\": \"%s\", \"type\": \"multiple-select\", \"outcomes\": [%s], \"category\": \"%s\", \"lang\": \"%s\"}');\n        createTemplate('{\"title\": \"%s\", \"type\": \"datetime\", \"category\": \"%s\", \"lang\": \"%s\"}');\n    }\n\n    /// @notice Function for arbitrator to set an optional per-question fee. \n    /// @dev The per-question fee, charged when a question is asked, is intended as an anti-spam measure.\n    /// @param fee The fee to be charged by the arbitrator when a question is asked\n    function setQuestionFee(uint256 fee) \n        stateAny() \n    external {\n        arbitrator_question_fees[msg.sender] = fee;\n        emit LogSetQuestionFee(msg.sender, fee);\n    }\n\n    /// @notice Create a reusable template, which should be a JSON document.\n    /// Placeholders should use gettext() syntax, eg %s.\n    /// @dev Template data is only stored in the event logs, but its block number is kept in contract storage.\n    /// @param content The template content\n    /// @return The ID of the newly-created template, which is created sequentially.\n    function createTemplate(string content) \n        stateAny()\n    public returns (uint256) {\n        uint256 id = nextTemplateID;\n        templates[id] = block.number;\n        template_hashes[id] = keccak256(abi.encodePacked(content));\n        emit LogNewTemplate(id, msg.sender, content);\n        nextTemplateID = id.add(1);\n        return id;\n    }\n\n    /// @notice Create a new reusable template and use it to ask a question\n    /// @dev Template data is only stored in the event logs, but its block number is kept in contract storage.\n    /// @param content The template content\n    /// @param question A string containing the parameters that will be passed into the template to make the question\n    /// @param arbitrator The arbitration contract that will have the final word on the answer if there is a dispute\n    /// @param timeout How long the contract should wait after the answer is changed before finalizing on that answer\n    /// @param opening_ts If set, the earliest time it should be possible to answer the question.\n    /// @param nonce A user-specified nonce used in the question ID. Change it to repeat a question.\n    /// @return The ID of the newly-created template, which is created sequentially.\n    function createTemplateAndAskQuestion(\n        string content, \n        string question, address arbitrator, uint32 timeout, uint32 opening_ts, uint256 nonce \n    ) \n        // stateNotCreated is enforced by the internal _askQuestion\n    public payable returns (bytes32) {\n        uint256 template_id = createTemplate(content);\n        return askQuestion(template_id, question, arbitrator, timeout, opening_ts, nonce);\n    }\n\n    /// @notice Ask a new question and return the ID\n    /// @dev Template data is only stored in the event logs, but its block number is kept in contract storage.\n    /// @param template_id The ID number of the template the question will use\n    /// @param question A string containing the parameters that will be passed into the template to make the question\n    /// @param arbitrator The arbitration contract that will have the final word on the answer if there is a dispute\n    /// @param timeout How long the contract should wait after the answer is changed before finalizing on that answer\n    /// @param opening_ts If set, the earliest time it should be possible to answer the question.\n    /// @param nonce A user-specified nonce used in the question ID. Change it to repeat a question.\n    /// @return The ID of the newly-created question, created deterministically.\n    function askQuestion(uint256 template_id, string question, address arbitrator, uint32 timeout, uint32 opening_ts, uint256 nonce) \n        // stateNotCreated is enforced by the internal _askQuestion\n    public payable returns (bytes32) {\n\n        require(templates[template_id] > 0, \"template must exist\");\n\n        bytes32 content_hash = keccak256(abi.encodePacked(template_id, opening_ts, question));\n        bytes32 question_id = keccak256(abi.encodePacked(content_hash, arbitrator, timeout, msg.sender, nonce));\n\n        _askQuestion(question_id, content_hash, arbitrator, timeout, opening_ts);\n        emit LogNewQuestion(question_id, msg.sender, template_id, question, content_hash, arbitrator, timeout, opening_ts, nonce, now);\n\n        return question_id;\n    }\n\n    function _askQuestion(bytes32 question_id, bytes32 content_hash, address arbitrator, uint32 timeout, uint32 opening_ts) \n        stateNotCreated(question_id)\n    internal {\n\n        // A timeout of 0 makes no sense, and we will use this to check existence\n        require(timeout > 0, \"timeout must be positive\"); \n        require(timeout < 365 days, \"timeout must be less than 365 days\"); \n        require(arbitrator != NULL_ADDRESS, \"arbitrator must be set\");\n\n        uint256 bounty = msg.value;\n\n        // The arbitrator can set a fee for asking a question. \n        // This is intended as an anti-spam defence.\n        // The fee is waived if the arbitrator is asking the question.\n        // This allows them to set an impossibly high fee and make users proxy the question through them.\n        // This would allow more sophisticated pricing, question whitelisting etc.\n        if (msg.sender != arbitrator) {\n            uint256 question_fee = arbitrator_question_fees[arbitrator];\n            require(bounty >= question_fee, \"ETH provided must cover question fee\"); \n            bounty = bounty.sub(question_fee);\n            balanceOf[arbitrator] = balanceOf[arbitrator].add(question_fee);\n        }\n\n        questions[question_id].content_hash = content_hash;\n        questions[question_id].arbitrator = arbitrator;\n        questions[question_id].opening_ts = opening_ts;\n        questions[question_id].timeout = timeout;\n        questions[question_id].bounty = bounty;\n\n    }\n\n    /// @notice Add funds to the bounty for a question\n    /// @dev Add bounty funds after the initial question creation. Can be done any time until the question is finalized.\n    /// @param question_id The ID of the question you wish to fund\n    function fundAnswerBounty(bytes32 question_id) \n        stateOpen(question_id)\n    external payable {\n        questions[question_id].bounty = questions[question_id].bounty.add(msg.value);\n        emit LogFundAnswerBounty(question_id, msg.value, questions[question_id].bounty, msg.sender);\n    }\n\n    /// @notice Submit an answer for a question.\n    /// @dev Adds the answer to the history and updates the current \"best\" answer.\n    /// May be subject to front-running attacks; Substitute submitAnswerCommitment()->submitAnswerReveal() to prevent them.\n    /// @param question_id The ID of the question\n    /// @param answer The answer, encoded into bytes32\n    /// @param max_previous If specified, reverts if a bond higher than this was submitted after you sent your transaction.\n    function submitAnswer(bytes32 question_id, bytes32 answer, uint256 max_previous) \n        stateOpen(question_id)\n        bondMustDouble(question_id)\n        previousBondMustNotBeatMaxPrevious(question_id, max_previous)\n    external payable {\n        _addAnswerToHistory(question_id, answer, msg.sender, msg.value, false);\n        _updateCurrentAnswer(question_id, answer, questions[question_id].timeout);\n    }\n\n    // @notice Verify and store a commitment, including an appropriate timeout\n    // @param question_id The ID of the question to store\n    // @param commitment The ID of the commitment\n    function _storeCommitment(bytes32 question_id, bytes32 commitment_id) \n    internal\n    {\n        require(commitments[commitment_id].reveal_ts == COMMITMENT_NON_EXISTENT, \"commitment must not already exist\");\n\n        uint32 commitment_timeout = questions[question_id].timeout / COMMITMENT_TIMEOUT_RATIO;\n        commitments[commitment_id].reveal_ts = uint32(now).add(commitment_timeout);\n    }\n\n    /// @notice Submit the hash of an answer, laying your claim to that answer if you reveal it in a subsequent transaction.\n    /// @dev Creates a hash, commitment_id, uniquely identifying this answer, to this question, with this bond.\n    /// The commitment_id is stored in the answer history where the answer would normally go.\n    /// Does not update the current best answer - this is left to the later submitAnswerReveal() transaction.\n    /// @param question_id The ID of the question\n    /// @param answer_hash The hash of your answer, plus a nonce that you will later reveal\n    /// @param max_previous If specified, reverts if a bond higher than this was submitted after you sent your transaction.\n    /// @param _answerer If specified, the address to be given as the question answerer. Defaults to the sender.\n    /// @dev Specifying the answerer is useful if you want to delegate the commit-and-reveal to a third-party.\n    function submitAnswerCommitment(bytes32 question_id, bytes32 answer_hash, uint256 max_previous, address _answerer) \n        stateOpen(question_id)\n        bondMustDouble(question_id)\n        previousBondMustNotBeatMaxPrevious(question_id, max_previous)\n    external payable {\n\n        bytes32 commitment_id = keccak256(abi.encodePacked(question_id, answer_hash, msg.value));\n        address answerer = (_answerer == NULL_ADDRESS) ? msg.sender : _answerer;\n        _storeCommitment(question_id, commitment_id);\n        _addAnswerToHistory(question_id, commitment_id, answerer, msg.value, true);\n\n    }\n\n    /// @notice Submit the answer whose hash you sent in a previous submitAnswerCommitment() transaction\n    /// @dev Checks the parameters supplied recreate an existing commitment, and stores the revealed answer\n    /// Updates the current answer unless someone has since supplied a new answer with a higher bond\n    /// msg.sender is intentionally not restricted to the user who originally sent the commitment; \n    /// For example, the user may want to provide the answer+nonce to a third-party service and let them send the tx\n    /// NB If we are pending arbitration, it will be up to the arbitrator to wait and see any outstanding reveal is sent\n    /// @param question_id The ID of the question\n    /// @param answer The answer, encoded as bytes32\n    /// @param nonce The nonce that, combined with the answer, recreates the answer_hash you gave in submitAnswerCommitment()\n    /// @param bond The bond that you paid in your submitAnswerCommitment() transaction\n    function submitAnswerReveal(bytes32 question_id, bytes32 answer, uint256 nonce, uint256 bond) \n        stateOpenOrPendingArbitration(question_id)\n    external {\n\n        bytes32 answer_hash = keccak256(abi.encodePacked(answer, nonce));\n        bytes32 commitment_id = keccak256(abi.encodePacked(question_id, answer_hash, bond));\n\n        require(!commitments[commitment_id].is_revealed, \"commitment must not have been revealed yet\");\n        require(commitments[commitment_id].reveal_ts > uint32(now), \"reveal deadline must not have passed\");\n\n        commitments[commitment_id].revealed_answer = answer;\n        commitments[commitment_id].is_revealed = true;\n\n        if (bond == questions[question_id].bond) {\n            _updateCurrentAnswer(question_id, answer, questions[question_id].timeout);\n        }\n\n        emit LogAnswerReveal(question_id, msg.sender, answer_hash, answer, nonce, bond);\n\n    }\n\n    function _addAnswerToHistory(bytes32 question_id, bytes32 answer_or_commitment_id, address answerer, uint256 bond, bool is_commitment) \n    internal \n    {\n        bytes32 new_history_hash = keccak256(abi.encodePacked(questions[question_id].history_hash, answer_or_commitment_id, bond, answerer, is_commitment));\n\n        // Update the current bond level, if there's a bond (ie anything except arbitration)\n        if (bond > 0) {\n            questions[question_id].bond = bond;\n        }\n        questions[question_id].history_hash = new_history_hash;\n\n        emit LogNewAnswer(answer_or_commitment_id, question_id, new_history_hash, answerer, bond, now, is_commitment);\n    }\n\n    function _updateCurrentAnswer(bytes32 question_id, bytes32 answer, uint32 timeout_secs)\n    internal {\n        questions[question_id].best_answer = answer;\n        questions[question_id].finalize_ts = uint32(now).add(timeout_secs);\n    }\n\n    /// @notice Notify the contract that the arbitrator has been paid for a question, freezing it pending their decision.\n    /// @dev The arbitrator contract is trusted to only call this if they've been paid, and tell us who paid them.\n    /// @param question_id The ID of the question\n    /// @param requester The account that requested arbitration\n    /// @param max_previous If specified, reverts if a bond higher than this was submitted after you sent your transaction.\n    function notifyOfArbitrationRequest(bytes32 question_id, address requester, uint256 max_previous) \n        onlyArbitrator(question_id)\n        stateOpen(question_id)\n        previousBondMustNotBeatMaxPrevious(question_id, max_previous)\n    external {\n        require(questions[question_id].bond > 0, \"Question must already have an answer when arbitration is requested\");\n        questions[question_id].is_pending_arbitration = true;\n        emit LogNotifyOfArbitrationRequest(question_id, requester);\n    }\n\n    /// @notice Submit the answer for a question, for use by the arbitrator.\n    /// @dev Doesn't require (or allow) a bond.\n    /// If the current final answer is correct, the account should be whoever submitted it.\n    /// If the current final answer is wrong, the account should be whoever paid for arbitration.\n    /// However, the answerer stipulations are not enforced by the contract.\n    /// @param question_id The ID of the question\n    /// @param answer The answer, encoded into bytes32\n    /// @param answerer The account credited with this answer for the purpose of bond claims\n    function submitAnswerByArbitrator(bytes32 question_id, bytes32 answer, address answerer) \n        onlyArbitrator(question_id)\n        statePendingArbitration(question_id)\n    external {\n\n        require(answerer != NULL_ADDRESS, \"answerer must be provided\");\n        emit LogFinalize(question_id, answer);\n\n        questions[question_id].is_pending_arbitration = false;\n        _addAnswerToHistory(question_id, answer, answerer, 0, false);\n        _updateCurrentAnswer(question_id, answer, 0);\n\n    }\n\n    /// @notice Report whether the answer to the specified question is finalized\n    /// @param question_id The ID of the question\n    /// @return Return true if finalized\n    function isFinalized(bytes32 question_id) \n    view public returns (bool) {\n        uint32 finalize_ts = questions[question_id].finalize_ts;\n        return ( !questions[question_id].is_pending_arbitration && (finalize_ts > UNANSWERED) && (finalize_ts <= uint32(now)) );\n    }\n\n    /// @notice (Deprecated) Return the final answer to the specified question, or revert if there isn't one\n    /// @param question_id The ID of the question\n    /// @return The answer formatted as a bytes32\n    function getFinalAnswer(bytes32 question_id) \n        stateFinalized(question_id)\n    external view returns (bytes32) {\n        return questions[question_id].best_answer;\n    }\n\n    /// @notice Return the final answer to the specified question, or revert if there isn't one\n    /// @param question_id The ID of the question\n    /// @return The answer formatted as a bytes32\n    function resultFor(bytes32 question_id) \n        stateFinalized(question_id)\n    external view returns (bytes32) {\n        return questions[question_id].best_answer;\n    }\n\n\n    /// @notice Return the final answer to the specified question, provided it matches the specified criteria.\n    /// @dev Reverts if the question is not finalized, or if it does not match the specified criteria.\n    /// @param question_id The ID of the question\n    /// @param content_hash The hash of the question content (template ID + opening time + question parameter string)\n    /// @param arbitrator The arbitrator chosen for the question (regardless of whether they are asked to arbitrate)\n    /// @param min_timeout The timeout set in the initial question settings must be this high or higher\n    /// @param min_bond The bond sent with the final answer must be this high or higher\n    /// @return The answer formatted as a bytes32\n    function getFinalAnswerIfMatches(\n        bytes32 question_id, \n        bytes32 content_hash, address arbitrator, uint32 min_timeout, uint256 min_bond\n    ) \n        stateFinalized(question_id)\n    external view returns (bytes32) {\n        require(content_hash == questions[question_id].content_hash, \"content hash must match\");\n        require(arbitrator == questions[question_id].arbitrator, \"arbitrator must match\");\n        require(min_timeout <= questions[question_id].timeout, \"timeout must be long enough\");\n        require(min_bond <= questions[question_id].bond, \"bond must be high enough\");\n        return questions[question_id].best_answer;\n    }\n\n    /// @notice Assigns the winnings (bounty and bonds) to everyone who gave the accepted answer\n    /// Caller must provide the answer history, in reverse order\n    /// @dev Works up the chain and assign bonds to the person who gave the right answer\n    /// If someone gave the winning answer earlier, they must get paid from the higher bond\n    /// That means we can't pay out the bond added at n until we have looked at n-1\n    /// The first answer is authenticated by checking against the stored history_hash.\n    /// One of the inputs to history_hash is the history_hash before it, so we use that to authenticate the next entry, etc\n    /// Once we get to a null hash we'll know we're done and there are no more answers.\n    /// Usually you would call the whole thing in a single transaction, but if not then the data is persisted to pick up later.\n    /// @param question_id The ID of the question\n    /// @param history_hashes Second-last-to-first, the hash of each history entry. (Final one should be empty).\n    /// @param addrs Last-to-first, the address of each answerer or commitment sender\n    /// @param bonds Last-to-first, the bond supplied with each answer or commitment\n    /// @param answers Last-to-first, each answer supplied, or commitment ID if the answer was supplied with commit->reveal\n    function claimWinnings(\n        bytes32 question_id, \n        bytes32[] history_hashes, address[] addrs, uint256[] bonds, bytes32[] answers\n    ) \n        stateFinalized(question_id)\n    public {\n\n        require(history_hashes.length > 0, \"at least one history hash entry must be provided\");\n\n        // These are only set if we split our claim over multiple transactions.\n        address payee = question_claims[question_id].payee; \n        uint256 last_bond = question_claims[question_id].last_bond; \n        uint256 queued_funds = question_claims[question_id].queued_funds; \n\n        // Starts as the hash of the final answer submitted. It'll be cleared when we're done.\n        // If we're splitting the claim over multiple transactions, it'll be the hash where we left off last time\n        bytes32 last_history_hash = questions[question_id].history_hash;\n\n        bytes32 best_answer = questions[question_id].best_answer;\n\n        uint256 i;\n        for (i = 0; i < history_hashes.length; i++) {\n        \n            // Check input against the history hash, and see which of 2 possible values of is_commitment fits.\n            bool is_commitment = _verifyHistoryInputOrRevert(last_history_hash, history_hashes[i], answers[i], bonds[i], addrs[i]);\n            \n            queued_funds = queued_funds.add(last_bond); \n            (queued_funds, payee) = _processHistoryItem(\n                question_id, best_answer, queued_funds, payee, \n                addrs[i], bonds[i], answers[i], is_commitment);\n \n            // Line the bond up for next time, when it will be added to somebody's queued_funds\n            last_bond = bonds[i];\n\n            // Burn (just leave in contract balance) a fraction of all bonds except the final one.\n            // This creates a cost to increasing your own bond, which could be used to delay resolution maliciously\n            if (last_bond != questions[question_id].bond) {\n                last_bond = last_bond.sub(last_bond / BOND_CLAIM_FEE_PROPORTION);\n            }\n\n            last_history_hash = history_hashes[i];\n\n        }\n \n        if (last_history_hash != NULL_HASH) {\n            // We haven't yet got to the null hash (1st answer), ie the caller didn't supply the full answer chain.\n            // Persist the details so we can pick up later where we left off later.\n\n            // If we know who to pay we can go ahead and pay them out, only keeping back last_bond\n            // (We always know who to pay unless all we saw were unrevealed commits)\n            if (payee != NULL_ADDRESS) {\n                _payPayee(question_id, payee, queued_funds);\n                queued_funds = 0;\n            }\n\n            question_claims[question_id].payee = payee;\n            question_claims[question_id].last_bond = last_bond;\n            question_claims[question_id].queued_funds = queued_funds;\n        } else {\n            // There is nothing left below us so the payee can keep what remains\n            _payPayee(question_id, payee, queued_funds.add(last_bond));\n            delete question_claims[question_id];\n        }\n\n        questions[question_id].history_hash = last_history_hash;\n\n    }\n\n    function _payPayee(bytes32 question_id, address payee, uint256 value) \n    internal {\n        balanceOf[payee] = balanceOf[payee].add(value);\n        emit LogClaim(question_id, payee, value);\n    }\n\n    function _verifyHistoryInputOrRevert(\n        bytes32 last_history_hash,\n        bytes32 history_hash, bytes32 answer, uint256 bond, address addr\n    )\n    internal pure returns (bool) {\n        if (last_history_hash == keccak256(abi.encodePacked(history_hash, answer, bond, addr, true)) ) {\n            return true;\n        }\n        if (last_history_hash == keccak256(abi.encodePacked(history_hash, answer, bond, addr, false)) ) {\n            return false;\n        } \n        revert(\"History input provided did not match the expected hash\");\n    }\n\n    function _processHistoryItem(\n        bytes32 question_id, bytes32 best_answer, \n        uint256 queued_funds, address payee, \n        address addr, uint256 bond, bytes32 answer, bool is_commitment\n    )\n    internal returns (uint256, address) {\n\n        // For commit-and-reveal, the answer history holds the commitment ID instead of the answer.\n        // We look at the referenced commitment ID and switch in the actual answer.\n        if (is_commitment) {\n            bytes32 commitment_id = answer;\n            // If it's a commit but it hasn't been revealed, it will always be considered wrong.\n            if (!commitments[commitment_id].is_revealed) {\n                delete commitments[commitment_id];\n                return (queued_funds, payee);\n            } else {\n                answer = commitments[commitment_id].revealed_answer;\n                delete commitments[commitment_id];\n            }\n        }\n\n        if (answer == best_answer) {\n\n            if (payee == NULL_ADDRESS) {\n\n                // The entry is for the first payee we come to, ie the winner.\n                // They get the question bounty.\n                payee = addr;\n                queued_funds = queued_funds.add(questions[question_id].bounty);\n                questions[question_id].bounty = 0;\n\n            } else if (addr != payee) {\n\n                // Answerer has changed, ie we found someone lower down who needs to be paid\n\n                // The lower answerer will take over receiving bonds from higher answerer.\n                // They should also be paid the takeover fee, which is set at a rate equivalent to their bond. \n                // (This is our arbitrary rule, to give consistent right-answerers a defence against high-rollers.)\n\n                // There should be enough for the fee, but if not, take what we have.\n                // There's an edge case involving weird arbitrator behaviour where we may be short.\n                uint256 answer_takeover_fee = (queued_funds >= bond) ? bond : queued_funds;\n                // Settle up with the old (higher-bonded) payee\n                _payPayee(question_id, payee, queued_funds.sub(answer_takeover_fee));\n\n                // Now start queued_funds again for the new (lower-bonded) payee\n                payee = addr;\n                queued_funds = answer_takeover_fee;\n\n            }\n\n        }\n\n        return (queued_funds, payee);\n\n    }\n\n    /// @notice Convenience function to assign bounties/bonds for multiple questions in one go, then withdraw all your funds.\n    /// Caller must provide the answer history for each question, in reverse order\n    /// @dev Can be called by anyone to assign bonds/bounties, but funds are only withdrawn for the user making the call.\n    /// @param question_ids The IDs of the questions you want to claim for\n    /// @param lengths The number of history entries you will supply for each question ID\n    /// @param hist_hashes In a single list for all supplied questions, the hash of each history entry.\n    /// @param addrs In a single list for all supplied questions, the address of each answerer or commitment sender\n    /// @param bonds In a single list for all supplied questions, the bond supplied with each answer or commitment\n    /// @param answers In a single list for all supplied questions, each answer supplied, or commitment ID \n    function claimMultipleAndWithdrawBalance(\n        bytes32[] question_ids, uint256[] lengths, \n        bytes32[] hist_hashes, address[] addrs, uint256[] bonds, bytes32[] answers\n    ) \n        stateAny() // The finalization checks are done in the claimWinnings function\n    public {\n        \n        uint256 qi;\n        uint256 i;\n        for (qi = 0; qi < question_ids.length; qi++) {\n            bytes32 qid = question_ids[qi];\n            uint256 ln = lengths[qi];\n            bytes32[] memory hh = new bytes32[](ln);\n            address[] memory ad = new address[](ln);\n            uint256[] memory bo = new uint256[](ln);\n            bytes32[] memory an = new bytes32[](ln);\n            uint256 j;\n            for (j = 0; j < ln; j++) {\n                hh[j] = hist_hashes[i];\n                ad[j] = addrs[i];\n                bo[j] = bonds[i];\n                an[j] = answers[i];\n                i++;\n            }\n            claimWinnings(qid, hh, ad, bo, an);\n        }\n        withdraw();\n    }\n\n    /// @notice Returns the questions's content hash, identifying the question content\n    /// @param question_id The ID of the question \n    function getContentHash(bytes32 question_id) \n    public view returns(bytes32) {\n        return questions[question_id].content_hash;\n    }\n\n    /// @notice Returns the arbitrator address for the question\n    /// @param question_id The ID of the question \n    function getArbitrator(bytes32 question_id) \n    public view returns(address) {\n        return questions[question_id].arbitrator;\n    }\n\n    /// @notice Returns the timestamp when the question can first be answered\n    /// @param question_id The ID of the question \n    function getOpeningTS(bytes32 question_id) \n    public view returns(uint32) {\n        return questions[question_id].opening_ts;\n    }\n\n    /// @notice Returns the timeout in seconds used after each answer\n    /// @param question_id The ID of the question \n    function getTimeout(bytes32 question_id) \n    public view returns(uint32) {\n        return questions[question_id].timeout;\n    }\n\n    /// @notice Returns the timestamp at which the question will be/was finalized\n    /// @param question_id The ID of the question \n    function getFinalizeTS(bytes32 question_id) \n    public view returns(uint32) {\n        return questions[question_id].finalize_ts;\n    }\n\n    /// @notice Returns whether the question is pending arbitration\n    /// @param question_id The ID of the question \n    function isPendingArbitration(bytes32 question_id) \n    public view returns(bool) {\n        return questions[question_id].is_pending_arbitration;\n    }\n\n    /// @notice Returns the current total unclaimed bounty\n    /// @dev Set back to zero once the bounty has been claimed\n    /// @param question_id The ID of the question \n    function getBounty(bytes32 question_id) \n    public view returns(uint256) {\n        return questions[question_id].bounty;\n    }\n\n    /// @notice Returns the current best answer\n    /// @param question_id The ID of the question \n    function getBestAnswer(bytes32 question_id) \n    public view returns(bytes32) {\n        return questions[question_id].best_answer;\n    }\n\n    /// @notice Returns the history hash of the question \n    /// @param question_id The ID of the question \n    /// @dev Updated on each answer, then rewound as each is claimed\n    function getHistoryHash(bytes32 question_id) \n    public view returns(bytes32) {\n        return questions[question_id].history_hash;\n    }\n\n    /// @notice Returns the highest bond posted so far for a question\n    /// @param question_id The ID of the question \n    function getBond(bytes32 question_id) \n    public view returns(uint256) {\n        return questions[question_id].bond;\n    }\n\n}\n",
  "sourcePath": "/home/ed/working/realitio-contracts/truffle/contracts/Realitio_v2_1.sol",
  "compiler": {
    "name": "solc",
    "version": "0.4.24+commit.e67f0147.Emscripten.clang",
    "optimizer": true,
    "runs": 200
  },
  "schemaVersion": "2.3.3",
  "updatedAt": "2020-09-10T07:39:48.267Z"
}