{
  "contractName": "RegisteredWalletArbitrator",
  "abi": [
    {
      "constant": true,
      "inputs": [],
      "name": "realitycheck",
      "outputs": [
        {
          "name": "",
          "type": "address"
        }
      ],
      "payable": false,
      "stateMutability": "view",
      "type": "function"
    },
    {
      "constant": false,
      "inputs": [
        {
          "name": "fee",
          "type": "uint256"
        }
      ],
      "name": "setDisputeFee",
      "outputs": [],
      "payable": false,
      "stateMutability": "nonpayable",
      "type": "function"
    },
    {
      "constant": true,
      "inputs": [],
      "name": "metadata",
      "outputs": [
        {
          "name": "",
          "type": "string"
        }
      ],
      "payable": false,
      "stateMutability": "view",
      "type": "function"
    },
    {
      "constant": false,
      "inputs": [
        {
          "name": "question_id",
          "type": "bytes32"
        },
        {
          "name": "fee",
          "type": "uint256"
        }
      ],
      "name": "setCustomDisputeFee",
      "outputs": [],
      "payable": false,
      "stateMutability": "nonpayable",
      "type": "function"
    },
    {
      "constant": false,
      "inputs": [
        {
          "name": "fee",
          "type": "uint256"
        }
      ],
      "name": "setQuestionFee",
      "outputs": [],
      "payable": false,
      "stateMutability": "nonpayable",
      "type": "function"
    },
    {
      "constant": false,
      "inputs": [
        {
          "name": "addr",
          "type": "address"
        }
      ],
      "name": "withdraw",
      "outputs": [],
      "payable": false,
      "stateMutability": "nonpayable",
      "type": "function"
    },
    {
      "constant": false,
      "inputs": [
        {
          "name": "addr",
          "type": "address"
        }
      ],
      "name": "setRealitio",
      "outputs": [],
      "payable": false,
      "stateMutability": "nonpayable",
      "type": "function"
    },
    {
      "constant": true,
      "inputs": [],
      "name": "owner",
      "outputs": [
        {
          "name": "",
          "type": "address"
        }
      ],
      "payable": false,
      "stateMutability": "view",
      "type": "function"
    },
    {
      "constant": false,
      "inputs": [
        {
          "name": "_token",
          "type": "address"
        },
        {
          "name": "addr",
          "type": "address"
        }
      ],
      "name": "withdrawERC20",
      "outputs": [],
      "payable": false,
      "stateMutability": "nonpayable",
      "type": "function"
    },
    {
      "constant": true,
      "inputs": [
        {
          "name": "",
          "type": "bytes32"
        }
      ],
      "name": "arbitration_bounties",
      "outputs": [
        {
          "name": "",
          "type": "uint256"
        }
      ],
      "payable": false,
      "stateMutability": "view",
      "type": "function"
    },
    {
      "constant": true,
      "inputs": [
        {
          "name": "question_id",
          "type": "bytes32"
        }
      ],
      "name": "getDisputeFee",
      "outputs": [
        {
          "name": "",
          "type": "uint256"
        }
      ],
      "payable": false,
      "stateMutability": "view",
      "type": "function"
    },
    {
      "constant": false,
      "inputs": [
        {
          "name": "question_id",
          "type": "bytes32"
        },
        {
          "name": "max_previous",
          "type": "uint256"
        }
      ],
      "name": "requestArbitration",
      "outputs": [
        {
          "name": "",
          "type": "bool"
        }
      ],
      "payable": true,
      "stateMutability": "payable",
      "type": "function"
    },
    {
      "constant": true,
      "inputs": [],
      "name": "realitio",
      "outputs": [
        {
          "name": "",
          "type": "address"
        }
      ],
      "payable": false,
      "stateMutability": "view",
      "type": "function"
    },
    {
      "constant": false,
      "inputs": [
        {
          "name": "_metadata",
          "type": "string"
        }
      ],
      "name": "setMetaData",
      "outputs": [],
      "payable": false,
      "stateMutability": "nonpayable",
      "type": "function"
    },
    {
      "constant": false,
      "inputs": [
        {
          "name": "question_id",
          "type": "bytes32"
        }
      ],
      "name": "cancelArbitration",
      "outputs": [],
      "payable": false,
      "stateMutability": "nonpayable",
      "type": "function"
    },
    {
      "constant": false,
      "inputs": [
        {
          "name": "newOwner",
          "type": "address"
        }
      ],
      "name": "transferOwnership",
      "outputs": [],
      "payable": false,
      "stateMutability": "nonpayable",
      "type": "function"
    },
    {
      "constant": false,
      "inputs": [
        {
          "name": "question_id",
          "type": "bytes32"
        },
        {
          "name": "answer",
          "type": "bytes32"
        },
        {
          "name": "answerer",
          "type": "address"
        }
      ],
      "name": "submitAnswerByArbitrator",
      "outputs": [],
      "payable": false,
      "stateMutability": "nonpayable",
      "type": "function"
    },
    {
      "payable": true,
      "stateMutability": "payable",
      "type": "fallback"
    },
    {
      "anonymous": false,
      "inputs": [
        {
          "indexed": true,
          "name": "question_id",
          "type": "bytes32"
        },
        {
          "indexed": false,
          "name": "fee_paid",
          "type": "uint256"
        },
        {
          "indexed": false,
          "name": "requester",
          "type": "address"
        },
        {
          "indexed": false,
          "name": "remaining",
          "type": "uint256"
        }
      ],
      "name": "LogRequestArbitration",
      "type": "event"
    },
    {
      "anonymous": false,
      "inputs": [
        {
          "indexed": false,
          "name": "realitio",
          "type": "address"
        }
      ],
      "name": "LogSetRealitio",
      "type": "event"
    },
    {
      "anonymous": false,
      "inputs": [
        {
          "indexed": false,
          "name": "fee",
          "type": "uint256"
        }
      ],
      "name": "LogSetQuestionFee",
      "type": "event"
    },
    {
      "anonymous": false,
      "inputs": [
        {
          "indexed": false,
          "name": "fee",
          "type": "uint256"
        }
      ],
      "name": "LogSetDisputeFee",
      "type": "event"
    },
    {
      "anonymous": false,
      "inputs": [
        {
          "indexed": true,
          "name": "question_id",
          "type": "bytes32"
        },
        {
          "indexed": false,
          "name": "fee",
          "type": "uint256"
        }
      ],
      "name": "LogSetCustomDisputeFee",
      "type": "event"
    },
    {
      "constant": false,
      "inputs": [],
      "name": "callWithdraw",
      "outputs": [],
      "payable": false,
      "stateMutability": "nonpayable",
      "type": "function"
    },
    {
      "constant": false,
      "inputs": [
        {
          "name": "_token",
          "type": "address"
        }
      ],
      "name": "withdrawToRegisteredWalletERC20",
      "outputs": [],
      "payable": false,
      "stateMutability": "nonpayable",
      "type": "function"
    },
    {
      "constant": false,
      "inputs": [],
      "name": "withdrawToRegisteredWallet",
      "outputs": [],
      "payable": false,
      "stateMutability": "nonpayable",
      "type": "function"
    },
    {
      "constant": false,
      "inputs": [
        {
          "name": "addr",
          "type": "address"
        }
      ],
      "name": "updateRegisteredWallet",
      "outputs": [],
      "payable": false,
      "stateMutability": "nonpayable",
      "type": "function"
    }
  ],
  "bytecode": "0x608060405260008054600160a060020a0319908116339081179091161790556111218061002d6000396000f30060806040526004361061011c5763ffffffff7c01000000000000000000000000000000000000000000000000000000006000350416630c2a48e2811461011e57806317299c041461014f578063392f37e9146101675780634102441e146101f15780634381a07b146102125780634df6ca2a1461022d57806351cff8d91461024557806379ca21a2146102665780637a3996a3146102875780638da5cb5b1461029c5780639456fbcc146102b1578063a0eee214146102d8578063a20dd43b146102f9578063a22352e214610323578063a829c3d11461033b578063bc8802a21461035d578063d821f81a14610372578063dad901be146103cb578063ebbdd2b0146103e0578063f2fde38b146103f8578063fe92049d14610419575b005b34801561012a57600080fd5b50610133610440565b60408051600160a060020a039092168252519081900360200190f35b34801561015b57600080fd5b5061011c600435610450565b34801561017357600080fd5b5061017c6104a2565b6040805160208082528351818301528351919283929083019185019080838360005b838110156101b657818101518382015260200161019e565b50505050905090810190601f1680156101e35780820380516001836020036101000a031916815260200191505b509250505060405180910390f35b3480156101fd57600080fd5b5061011c600160a060020a0360043516610530565b34801561021e57600080fd5b5061011c600435602435610576565b34801561023957600080fd5b5061011c6004356105d8565b34801561025157600080fd5b5061011c600160a060020a03600435166106a4565b34801561027257600080fd5b5061011c600160a060020a03600435166106f5565b34801561029357600080fd5b5061011c61076d565b3480156102a857600080fd5b5061013361080c565b3480156102bd57600080fd5b5061011c600160a060020a036004358116906024351661081b565b3480156102e457600080fd5b5061011c600160a060020a0360043516610960565b34801561030557600080fd5b50610311600435610af4565b60408051918252519081900360200190f35b34801561032f57600080fd5b50610311600435610b06565b610349600435602435610b39565b604080519115158252519081900360200190f35b34801561036957600080fd5b50610133610e19565b34801561037e57600080fd5b506040805160206004803580820135601f810184900484028501840190955284845261011c943694929360249392840191908190840183828082843750949750610e289650505050505050565b3480156103d757600080fd5b5061011c610e52565b3480156103ec57600080fd5b5061011c600435610ed2565b34801561040457600080fd5b5061011c600160a060020a0360043516610f63565b34801561042557600080fd5b5061011c600435602435600160a060020a0360443516610fa9565b600154600160a060020a03165b90565b600054600160a060020a0316331461046757600080fd5b60038190556040805182815290517fbc1292d8ca346c1397b1176ce2935afd34c4365fece415b14e3a9242eae388f59181900360200190a150565b6005805460408051602060026001851615610100026000190190941693909304601f810184900484028201840190925281815292918301828280156105285780601f106104fd57610100808354040283529160200191610528565b820191906000526020600020905b81548152906001019060200180831161050b57829003601f168201915b505050505081565b600054600160a060020a0316331461054757600080fd5b6006805473ffffffffffffffffffffffffffffffffffffffff1916600160a060020a0392909216919091179055565b600054600160a060020a0316331461058d57600080fd5b6000828152600460209081526040918290208390558151838152915184927fe4887440991624b147d2129ab0befa8c1df4cff87b22513c8eea7cb16ed2aaf292908290030190a25050565b600054600160a060020a031633146105ef57600080fd5b600154604080517f4df6ca2a000000000000000000000000000000000000000000000000000000008152600481018490529051600160a060020a0390921691634df6ca2a9160248082019260009290919082900301818387803b15801561065557600080fd5b505af1158015610669573d6000803e3d6000fd5b50506040805184815290517f173ec7037500587e8ac3402cac8426c5c2bac605eabd93f790422e621633d7119350908190036020019150a150565b600054600160a060020a031633146106bb57600080fd5b604051600160a060020a03821690303180156108fc02916000818181858888f193505050501580156106f1573d6000803e3d6000fd5b5050565b600054600160a060020a0316331461070c57600080fd5b60018054600160a060020a03831673ffffffffffffffffffffffffffffffffffffffff19909116811790915560408051918252517f568b4ce4fc4d09c939362effe33053025b93088cab521fc476f469966c7efdd59181900360200190a150565b600654600160a060020a031615156107cf576040805160e560020a62461bcd02815260206004820152601760248201527f4e6f2077616c6c65742069732072656769737465726564000000000000000000604482015290519081900360640190fd5b600654604051600160a060020a0390911690303180156108fc02916000818181858888f19350505050158015610809573d6000803e3d6000fd5b50565b600054600160a060020a031681565b60008054600160a060020a0316331461083357600080fd5b604080517f70a082310000000000000000000000000000000000000000000000000000000081523060048201529051600160a060020a038516916370a082319160248083019260209291908290030181600087803b15801561089457600080fd5b505af11580156108a8573d6000803e3d6000fd5b505050506040513d60208110156108be57600080fd5b5051604080517fa9059cbb000000000000000000000000000000000000000000000000000000008152600160a060020a0385811660048301526024820184905291519293509085169163a9059cbb916044808201926020929091908290030181600087803b15801561092f57600080fd5b505af1158015610943573d6000803e3d6000fd5b505050506040513d602081101561095957600080fd5b5050505050565b600654600090600160a060020a031615156109c5576040805160e560020a62461bcd02815260206004820152601760248201527f4e6f2077616c6c65742069732072656769737465726564000000000000000000604482015290519081900360640190fd5b604080517f70a082310000000000000000000000000000000000000000000000000000000081523060048201529051600160a060020a038416916370a082319160248083019260209291908290030181600087803b158015610a2657600080fd5b505af1158015610a3a573d6000803e3d6000fd5b505050506040513d6020811015610a5057600080fd5b5051600654604080517fa9059cbb000000000000000000000000000000000000000000000000000000008152600160a060020a0392831660048201526024810184905290519293509084169163a9059cbb916044808201926020929091908290030181600087803b158015610ac457600080fd5b505af1158015610ad8573d6000803e3d6000fd5b505050506040513d6020811015610aee57600080fd5b50505050565b60026020526000908152604090205481565b6000818152600460205260408120548110610b2357600354610b33565b6000828152600460205260409020545b92915050565b6000806000610b4785610b06565b915060008211610bc7576040805160e560020a62461bcd02815260206004820152603c60248201527f5468652061726269747261746f72206d7573742068617665207365742061206e60448201527f6f6e2d7a65726f2066656520666f7220746865207175657374696f6e00000000606482015290519081900360840190fd5b5060008481526002602052604090208054340190819055818110610cbb57600154604080517ff6a94ecb00000000000000000000000000000000000000000000000000000000815260048101889052336024820152604481018790529051600160a060020a039092169163f6a94ecb9160648082019260009290919082900301818387803b158015610c5857600080fd5b505af1158015610c6c573d6000803e3d6000fd5b50506040805134815233602082015260008183015290518893507fdf8a830581aa05b0b824a0c184007c33a1ad9100a41751c9ded9f2b4fefb16ba92509081900360600190a260019250610e11565b600154604080517f7f8d429e000000000000000000000000000000000000000000000000000000008152600481018890529051600160a060020a0390921691637f8d429e916024808201926020929091908290030181600087803b158015610d2257600080fd5b505af1158015610d36573d6000803e3d6000fd5b505050506040513d6020811015610d4c57600080fd5b505115610dc9576040805160e560020a62461bcd02815260206004820152602960248201527f546865207175657374696f6e206d757374206e6f742068617665206265656e2060448201527f66696e616c697a65640000000000000000000000000000000000000000000000606482015290519081900360840190fd5b6040805134815233602082015282840381830152905186917fdf8a830581aa05b0b824a0c184007c33a1ad9100a41751c9ded9f2b4fefb16ba919081900360600190a2600092505b505092915050565b600154600160a060020a031681565b600054600160a060020a03163314610e3f57600080fd5b80516106f190600590602084019061105d565b600160009054906101000a9004600160a060020a0316600160a060020a0316633ccfd60b6040518163ffffffff167c0100000000000000000000000000000000000000000000000000000000028152600401600060405180830381600087803b158015610ebe57600080fd5b505af1158015610aee573d6000803e3d6000fd5b600054600160a060020a03163314610ee957600080fd5b600154604080517febbdd2b0000000000000000000000000000000000000000000000000000000008152600481018490529051600160a060020a039092169163ebbdd2b09160248082019260009290919082900301818387803b158015610f4f57600080fd5b505af1158015610959573d6000803e3d6000fd5b600054600160a060020a03163314610f7a57600080fd5b6000805473ffffffffffffffffffffffffffffffffffffffff1916600160a060020a0392909216919091179055565b600054600160a060020a03163314610fc057600080fd5b60008381526002602052604080822082905560015481517ffe92049d0000000000000000000000000000000000000000000000000000000081526004810187905260248101869052600160a060020a0385811660448301529251929091169263fe92049d9260648084019382900301818387803b15801561104057600080fd5b505af1158015611054573d6000803e3d6000fd5b50505050505050565b828054600181600116156101000203166002900490600052602060002090601f016020900481019282601f1061109e57805160ff19168380011785556110cb565b828001600101855582156110cb579182015b828111156110cb5782518255916020019190600101906110b0565b506110d79291506110db565b5090565b61044d91905b808211156110d757600081556001016110e15600a165627a7a723058200b4ebfa19c123b8e88706107aa0d21ed78d472d01e29b249e556d505a575bb8e0029",
  "source": "pragma solidity ^0.4.25;\n\nimport './Arbitrator.sol';\nimport './IERC20.sol';\n\n/*\nThis contract extends the standard Arbitrator contract to make it possible to make routine fund withdrawals to an address pre-registered by the owner without actually being the owner.\n\nWe do this to facilitate controlling Arbitrator contracts using multisig wallets, which should require multiple sign-offs to allow validation and fee-settings tasks, but users should be able to withdraw their own share of the funds without anyone else's permission. This can be done in combination with our SplitterWallet contract.\n*/\n\ncontract RegisteredWalletArbitrator is Arbitrator {\n\n    address registered_wallet;\n\n    /// @notice Withdraw any accumulated question fees from the specified address into this contract\n    /// @dev Funds can then be liberated from this contract with our withdraw() function\n    /// @dev Usually the arbitrator calls this, but if someone else does that's OK too\n    function callWithdraw() \n    public {\n        realitio.withdraw(); \n    }\n\n    /// @notice Withdraw money from the arbitrator contract to our registered wallet\n    function withdrawToRegisteredWalletERC20(IERC20 _token)\n    external {\n        require(registered_wallet != 0x0, \"No wallet is registered\");\n        uint256 bal = _token.balanceOf(address(this));\n        _token.transfer(registered_wallet, bal);\n    }\n\n    /// @notice Withdraw money from the arbitrator contract to our registered wallet\n    function withdrawToRegisteredWallet()\n    external {\n        require(registered_wallet != 0x0, \"No wallet is registered\");\n        registered_wallet.transfer(address(this).balance);\n    }\n\n    /// @notice Change the address of our registered wallet\n    /// @param addr The address of the new wallet\n    /// @dev Set to 0x0 to not use the registered wallet\n    function updateRegisteredWallet(address addr) \n        onlyOwner\n    external {\n        registered_wallet= addr;\n    }\n\n}\n",
  "sourcePath": "/home/ed/working/realitio-contracts/truffle/contracts/RegisteredWalletArbitrator.sol",
  "compiler": {
    "name": "solc",
    "version": "0.4.25+commit.59dbf8f1.Emscripten.clang",
    "optimizer": true,
    "runs": 200
  },
  "schemaVersion": "2.3.3",
  "updatedAt": "2020-09-23T03:29:26.043Z"
}