{
  "contractName": "RegisteredWalletArbitrator",
  "abi": [
    {
      "constant": true,
      "inputs": [],
      "name": "realitycheck",
      "outputs": [
        {
          "name": "",
          "type": "address"
        }
      ],
      "payable": false,
      "stateMutability": "view",
      "type": "function"
    },
    {
      "constant": false,
      "inputs": [
        {
          "name": "fee",
          "type": "uint256"
        }
      ],
      "name": "setDisputeFee",
      "outputs": [],
      "payable": false,
      "stateMutability": "nonpayable",
      "type": "function"
    },
    {
      "constant": true,
      "inputs": [],
      "name": "metadata",
      "outputs": [
        {
          "name": "",
          "type": "string"
        }
      ],
      "payable": false,
      "stateMutability": "view",
      "type": "function"
    },
    {
      "constant": false,
      "inputs": [
        {
          "name": "question_id",
          "type": "bytes32"
        },
        {
          "name": "fee",
          "type": "uint256"
        }
      ],
      "name": "setCustomDisputeFee",
      "outputs": [],
      "payable": false,
      "stateMutability": "nonpayable",
      "type": "function"
    },
    {
      "constant": false,
      "inputs": [
        {
          "name": "fee",
          "type": "uint256"
        }
      ],
      "name": "setQuestionFee",
      "outputs": [],
      "payable": false,
      "stateMutability": "nonpayable",
      "type": "function"
    },
    {
      "constant": false,
      "inputs": [
        {
          "name": "addr",
          "type": "address"
        }
      ],
      "name": "withdraw",
      "outputs": [],
      "payable": false,
      "stateMutability": "nonpayable",
      "type": "function"
    },
    {
      "constant": false,
      "inputs": [
        {
          "name": "addr",
          "type": "address"
        }
      ],
      "name": "setRealitio",
      "outputs": [],
      "payable": false,
      "stateMutability": "nonpayable",
      "type": "function"
    },
    {
      "constant": true,
      "inputs": [],
      "name": "owner",
      "outputs": [
        {
          "name": "",
          "type": "address"
        }
      ],
      "payable": false,
      "stateMutability": "view",
      "type": "function"
    },
    {
      "constant": false,
      "inputs": [
        {
          "name": "_token",
          "type": "address"
        },
        {
          "name": "addr",
          "type": "address"
        }
      ],
      "name": "withdrawERC20",
      "outputs": [],
      "payable": false,
      "stateMutability": "nonpayable",
      "type": "function"
    },
    {
      "constant": true,
      "inputs": [
        {
          "name": "",
          "type": "bytes32"
        }
      ],
      "name": "arbitration_bounties",
      "outputs": [
        {
          "name": "",
          "type": "uint256"
        }
      ],
      "payable": false,
      "stateMutability": "view",
      "type": "function"
    },
    {
      "constant": true,
      "inputs": [
        {
          "name": "question_id",
          "type": "bytes32"
        }
      ],
      "name": "getDisputeFee",
      "outputs": [
        {
          "name": "",
          "type": "uint256"
        }
      ],
      "payable": false,
      "stateMutability": "view",
      "type": "function"
    },
    {
      "constant": false,
      "inputs": [
        {
          "name": "question_id",
          "type": "bytes32"
        },
        {
          "name": "max_previous",
          "type": "uint256"
        }
      ],
      "name": "requestArbitration",
      "outputs": [
        {
          "name": "",
          "type": "bool"
        }
      ],
      "payable": true,
      "stateMutability": "payable",
      "type": "function"
    },
    {
      "constant": true,
      "inputs": [],
      "name": "realitio",
      "outputs": [
        {
          "name": "",
          "type": "address"
        }
      ],
      "payable": false,
      "stateMutability": "view",
      "type": "function"
    },
    {
      "constant": false,
      "inputs": [
        {
          "name": "question_id",
          "type": "bytes32"
        },
        {
          "name": "answer",
          "type": "bytes32"
        },
        {
          "name": "payee_if_wrong",
          "type": "address"
        },
        {
          "name": "last_history_hash",
          "type": "bytes32"
        },
        {
          "name": "last_answer_or_commitment_id",
          "type": "bytes32"
        },
        {
          "name": "last_answerer",
          "type": "address"
        }
      ],
      "name": "assignWinnerAndSubmitAnswerByArbitrator",
      "outputs": [],
      "payable": false,
      "stateMutability": "nonpayable",
      "type": "function"
    },
    {
      "constant": false,
      "inputs": [
        {
          "name": "_metadata",
          "type": "string"
        }
      ],
      "name": "setMetaData",
      "outputs": [],
      "payable": false,
      "stateMutability": "nonpayable",
      "type": "function"
    },
    {
      "constant": false,
      "inputs": [
        {
          "name": "question_id",
          "type": "bytes32"
        }
      ],
      "name": "cancelArbitration",
      "outputs": [],
      "payable": false,
      "stateMutability": "nonpayable",
      "type": "function"
    },
    {
      "constant": false,
      "inputs": [
        {
          "name": "newOwner",
          "type": "address"
        }
      ],
      "name": "transferOwnership",
      "outputs": [],
      "payable": false,
      "stateMutability": "nonpayable",
      "type": "function"
    },
    {
      "constant": false,
      "inputs": [
        {
          "name": "question_id",
          "type": "bytes32"
        },
        {
          "name": "answer",
          "type": "bytes32"
        },
        {
          "name": "answerer",
          "type": "address"
        }
      ],
      "name": "submitAnswerByArbitrator",
      "outputs": [],
      "payable": false,
      "stateMutability": "nonpayable",
      "type": "function"
    },
    {
      "payable": true,
      "stateMutability": "payable",
      "type": "fallback"
    },
    {
      "anonymous": false,
      "inputs": [
        {
          "indexed": true,
          "name": "question_id",
          "type": "bytes32"
        },
        {
          "indexed": false,
          "name": "fee_paid",
          "type": "uint256"
        },
        {
          "indexed": false,
          "name": "requester",
          "type": "address"
        },
        {
          "indexed": false,
          "name": "remaining",
          "type": "uint256"
        }
      ],
      "name": "LogRequestArbitration",
      "type": "event"
    },
    {
      "anonymous": false,
      "inputs": [
        {
          "indexed": false,
          "name": "realitio",
          "type": "address"
        }
      ],
      "name": "LogSetRealitio",
      "type": "event"
    },
    {
      "anonymous": false,
      "inputs": [
        {
          "indexed": false,
          "name": "fee",
          "type": "uint256"
        }
      ],
      "name": "LogSetQuestionFee",
      "type": "event"
    },
    {
      "anonymous": false,
      "inputs": [
        {
          "indexed": false,
          "name": "fee",
          "type": "uint256"
        }
      ],
      "name": "LogSetDisputeFee",
      "type": "event"
    },
    {
      "anonymous": false,
      "inputs": [
        {
          "indexed": true,
          "name": "question_id",
          "type": "bytes32"
        },
        {
          "indexed": false,
          "name": "fee",
          "type": "uint256"
        }
      ],
      "name": "LogSetCustomDisputeFee",
      "type": "event"
    },
    {
      "constant": false,
      "inputs": [],
      "name": "callWithdraw",
      "outputs": [],
      "payable": false,
      "stateMutability": "nonpayable",
      "type": "function"
    },
    {
      "constant": false,
      "inputs": [
        {
          "name": "_token",
          "type": "address"
        }
      ],
      "name": "withdrawToRegisteredWalletERC20",
      "outputs": [],
      "payable": false,
      "stateMutability": "nonpayable",
      "type": "function"
    },
    {
      "constant": false,
      "inputs": [],
      "name": "withdrawToRegisteredWallet",
      "outputs": [],
      "payable": false,
      "stateMutability": "nonpayable",
      "type": "function"
    },
    {
      "constant": false,
      "inputs": [
        {
          "name": "addr",
          "type": "address"
        }
      ],
      "name": "updateRegisteredWallet",
      "outputs": [],
      "payable": false,
      "stateMutability": "nonpayable",
      "type": "function"
    }
  ],
  "bytecode": "0x608060405260008054600160a060020a03199081163390811790911617905561122e8061002d6000396000f3006080604052600436106101275763ffffffff7c01000000000000000000000000000000000000000000000000000000006000350416630c2a48e2811461012957806317299c041461015a578063392f37e9146101725780634102441e146101fc5780634381a07b1461021d5780634df6ca2a1461023857806351cff8d91461025057806379ca21a2146102715780637a3996a3146102925780638da5cb5b146102a75780639456fbcc146102bc578063a0eee214146102e3578063a20dd43b14610304578063a22352e21461032e578063a829c3d114610346578063bc8802a214610368578063d44e293c1461037d578063d821f81a146103b2578063dad901be1461040b578063ebbdd2b014610420578063f2fde38b14610438578063fe92049d14610459575b005b34801561013557600080fd5b5061013e610480565b60408051600160a060020a039092168252519081900360200190f35b34801561016657600080fd5b50610127600435610490565b34801561017e57600080fd5b506101876104e2565b6040805160208082528351818301528351919283929083019185019080838360005b838110156101c15781810151838201526020016101a9565b50505050905090810190601f1680156101ee5780820380516001836020036101000a031916815260200191505b509250505060405180910390f35b34801561020857600080fd5b50610127600160a060020a0360043516610570565b34801561022957600080fd5b506101276004356024356105b6565b34801561024457600080fd5b50610127600435610618565b34801561025c57600080fd5b50610127600160a060020a03600435166106e4565b34801561027d57600080fd5b50610127600160a060020a0360043516610735565b34801561029e57600080fd5b506101276107ad565b3480156102b357600080fd5b5061013e61084c565b3480156102c857600080fd5b50610127600160a060020a036004358116906024351661085b565b3480156102ef57600080fd5b50610127600160a060020a03600435166109a0565b34801561031057600080fd5b5061031c600435610b34565b60408051918252519081900360200190f35b34801561033a57600080fd5b5061031c600435610b46565b610354600435602435610b79565b604080519115158252519081900360200190f35b34801561037457600080fd5b5061013e610e59565b34801561038957600080fd5b50610127600435602435600160a060020a03604435811690606435906084359060a43516610e68565b3480156103be57600080fd5b506040805160206004803580820135601f8101849004840285018401909552848452610127943694929360249392840191908190840183828082843750949750610f359650505050505050565b34801561041757600080fd5b50610127610f5f565b34801561042c57600080fd5b50610127600435610fdf565b34801561044457600080fd5b50610127600160a060020a0360043516611070565b34801561046557600080fd5b50610127600435602435600160a060020a03604435166110b6565b600154600160a060020a03165b90565b600054600160a060020a031633146104a757600080fd5b60038190556040805182815290517fbc1292d8ca346c1397b1176ce2935afd34c4365fece415b14e3a9242eae388f59181900360200190a150565b6005805460408051602060026001851615610100026000190190941693909304601f810184900484028201840190925281815292918301828280156105685780601f1061053d57610100808354040283529160200191610568565b820191906000526020600020905b81548152906001019060200180831161054b57829003601f168201915b505050505081565b600054600160a060020a0316331461058757600080fd5b6006805473ffffffffffffffffffffffffffffffffffffffff1916600160a060020a0392909216919091179055565b600054600160a060020a031633146105cd57600080fd5b6000828152600460209081526040918290208390558151838152915184927fe4887440991624b147d2129ab0befa8c1df4cff87b22513c8eea7cb16ed2aaf292908290030190a25050565b600054600160a060020a0316331461062f57600080fd5b600154604080517f4df6ca2a000000000000000000000000000000000000000000000000000000008152600481018490529051600160a060020a0390921691634df6ca2a9160248082019260009290919082900301818387803b15801561069557600080fd5b505af11580156106a9573d6000803e3d6000fd5b50506040805184815290517f173ec7037500587e8ac3402cac8426c5c2bac605eabd93f790422e621633d7119350908190036020019150a150565b600054600160a060020a031633146106fb57600080fd5b604051600160a060020a03821690303180156108fc02916000818181858888f19350505050158015610731573d6000803e3d6000fd5b5050565b600054600160a060020a0316331461074c57600080fd5b60018054600160a060020a03831673ffffffffffffffffffffffffffffffffffffffff19909116811790915560408051918252517f568b4ce4fc4d09c939362effe33053025b93088cab521fc476f469966c7efdd59181900360200190a150565b600654600160a060020a0316151561080f576040805160e560020a62461bcd02815260206004820152601760248201527f4e6f2077616c6c65742069732072656769737465726564000000000000000000604482015290519081900360640190fd5b600654604051600160a060020a0390911690303180156108fc02916000818181858888f19350505050158015610849573d6000803e3d6000fd5b50565b600054600160a060020a031681565b60008054600160a060020a0316331461087357600080fd5b604080517f70a082310000000000000000000000000000000000000000000000000000000081523060048201529051600160a060020a038516916370a082319160248083019260209291908290030181600087803b1580156108d457600080fd5b505af11580156108e8573d6000803e3d6000fd5b505050506040513d60208110156108fe57600080fd5b5051604080517fa9059cbb000000000000000000000000000000000000000000000000000000008152600160a060020a0385811660048301526024820184905291519293509085169163a9059cbb916044808201926020929091908290030181600087803b15801561096f57600080fd5b505af1158015610983573d6000803e3d6000fd5b505050506040513d602081101561099957600080fd5b5050505050565b600654600090600160a060020a03161515610a05576040805160e560020a62461bcd02815260206004820152601760248201527f4e6f2077616c6c65742069732072656769737465726564000000000000000000604482015290519081900360640190fd5b604080517f70a082310000000000000000000000000000000000000000000000000000000081523060048201529051600160a060020a038416916370a082319160248083019260209291908290030181600087803b158015610a6657600080fd5b505af1158015610a7a573d6000803e3d6000fd5b505050506040513d6020811015610a9057600080fd5b5051600654604080517fa9059cbb000000000000000000000000000000000000000000000000000000008152600160a060020a0392831660048201526024810184905290519293509084169163a9059cbb916044808201926020929091908290030181600087803b158015610b0457600080fd5b505af1158015610b18573d6000803e3d6000fd5b505050506040513d6020811015610b2e57600080fd5b50505050565b60026020526000908152604090205481565b6000818152600460205260408120548110610b6357600354610b73565b6000828152600460205260409020545b92915050565b6000806000610b8785610b46565b915060008211610c07576040805160e560020a62461bcd02815260206004820152603c60248201527f5468652061726269747261746f72206d7573742068617665207365742061206e60448201527f6f6e2d7a65726f2066656520666f7220746865207175657374696f6e00000000606482015290519081900360840190fd5b5060008481526002602052604090208054340190819055818110610cfb57600154604080517ff6a94ecb00000000000000000000000000000000000000000000000000000000815260048101889052336024820152604481018790529051600160a060020a039092169163f6a94ecb9160648082019260009290919082900301818387803b158015610c9857600080fd5b505af1158015610cac573d6000803e3d6000fd5b50506040805134815233602082015260008183015290518893507fdf8a830581aa05b0b824a0c184007c33a1ad9100a41751c9ded9f2b4fefb16ba92509081900360600190a260019250610e51565b600154604080517f7f8d429e000000000000000000000000000000000000000000000000000000008152600481018890529051600160a060020a0390921691637f8d429e916024808201926020929091908290030181600087803b158015610d6257600080fd5b505af1158015610d76573d6000803e3d6000fd5b505050506040513d6020811015610d8c57600080fd5b505115610e09576040805160e560020a62461bcd02815260206004820152602960248201527f546865207175657374696f6e206d757374206e6f742068617665206265656e2060448201527f66696e616c697a65640000000000000000000000000000000000000000000000606482015290519081900360840190fd5b6040805134815233602082015282840381830152905186917fdf8a830581aa05b0b824a0c184007c33a1ad9100a41751c9ded9f2b4fefb16ba919081900360600190a2600092505b505092915050565b600154600160a060020a031681565b600054600160a060020a03163314610e7f57600080fd5b60008681526002602052604080822082905560015481517fd44e293c000000000000000000000000000000000000000000000000000000008152600481018a905260248101899052600160a060020a038881166044830152606482018890526084820187905285811660a48301529251929091169263d44e293c9260c48084019382900301818387803b158015610f1557600080fd5b505af1158015610f29573d6000803e3d6000fd5b50505050505050505050565b600054600160a060020a03163314610f4c57600080fd5b805161073190600590602084019061116a565b600160009054906101000a9004600160a060020a0316600160a060020a0316633ccfd60b6040518163ffffffff167c0100000000000000000000000000000000000000000000000000000000028152600401600060405180830381600087803b158015610fcb57600080fd5b505af1158015610b2e573d6000803e3d6000fd5b600054600160a060020a03163314610ff657600080fd5b600154604080517febbdd2b0000000000000000000000000000000000000000000000000000000008152600481018490529051600160a060020a039092169163ebbdd2b09160248082019260009290919082900301818387803b15801561105c57600080fd5b505af1158015610999573d6000803e3d6000fd5b600054600160a060020a0316331461108757600080fd5b6000805473ffffffffffffffffffffffffffffffffffffffff1916600160a060020a0392909216919091179055565b600054600160a060020a031633146110cd57600080fd5b60008381526002602052604080822082905560015481517ffe92049d0000000000000000000000000000000000000000000000000000000081526004810187905260248101869052600160a060020a0385811660448301529251929091169263fe92049d9260648084019382900301818387803b15801561114d57600080fd5b505af1158015611161573d6000803e3d6000fd5b50505050505050565b828054600181600116156101000203166002900490600052602060002090601f016020900481019282601f106111ab57805160ff19168380011785556111d8565b828001600101855582156111d8579182015b828111156111d85782518255916020019190600101906111bd565b506111e49291506111e8565b5090565b61048d91905b808211156111e457600081556001016111ee5600a165627a7a723058208a1110c2715b12e737705fa8a0b654496e05944f47cb871cf10c19bafe5fdd460029",
  "source": "pragma solidity ^0.4.25;\n\nimport './Arbitrator.sol';\nimport './IERC20.sol';\n\n/*\nThis contract extends the standard Arbitrator contract to make it possible to make routine fund withdrawals to an address pre-registered by the owner without actually being the owner.\n\nWe do this to facilitate controlling Arbitrator contracts using multisig wallets, which should require multiple sign-offs to allow validation and fee-settings tasks, but users should be able to withdraw their own share of the funds without anyone else's permission. This can be done in combination with our SplitterWallet contract.\n*/\n\ncontract RegisteredWalletArbitrator is Arbitrator {\n\n    address registered_wallet;\n\n    /// @notice Withdraw any accumulated question fees from the specified address into this contract\n    /// @dev Funds can then be liberated from this contract with our withdraw() function\n    /// @dev Usually the arbitrator calls this, but if someone else does that's OK too\n    function callWithdraw() \n    public {\n        realitio.withdraw(); \n    }\n\n    /// @notice Withdraw money from the arbitrator contract to our registered wallet\n    function withdrawToRegisteredWalletERC20(IERC20 _token)\n    external {\n        require(registered_wallet != 0x0, \"No wallet is registered\");\n        uint256 bal = _token.balanceOf(address(this));\n        _token.transfer(registered_wallet, bal);\n    }\n\n    /// @notice Withdraw money from the arbitrator contract to our registered wallet\n    function withdrawToRegisteredWallet()\n    external {\n        require(registered_wallet != 0x0, \"No wallet is registered\");\n        registered_wallet.transfer(address(this).balance);\n    }\n\n    /// @notice Change the address of our registered wallet\n    /// @param addr The address of the new wallet\n    /// @dev Set to 0x0 to not use the registered wallet\n    function updateRegisteredWallet(address addr) \n        onlyOwner\n    external {\n        registered_wallet= addr;\n    }\n\n}\n",
  "sourcePath": "/home/ed/working/realitio-contracts/truffle/contracts/RegisteredWalletArbitrator.sol",
  "compiler": {
    "name": "solc",
    "version": "0.4.25+commit.59dbf8f1.Emscripten.clang",
    "optimizer": true,
    "runs": 200
  },
  "schemaVersion": "2.3.3",
  "updatedAt": "2020-09-23T03:41:51.364Z"
}