{
  "contractName": "RegisteredWalletArbitrator",
  "abi": [
    {
      "constant": true,
      "inputs": [],
      "name": "realitycheck",
      "outputs": [
        {
          "name": "",
          "type": "address"
        }
      ],
      "payable": false,
      "stateMutability": "view",
      "type": "function"
    },
    {
      "constant": false,
      "inputs": [
        {
          "name": "fee",
          "type": "uint256"
        }
      ],
      "name": "setDisputeFee",
      "outputs": [],
      "payable": false,
      "stateMutability": "nonpayable",
      "type": "function"
    },
    {
      "constant": true,
      "inputs": [],
      "name": "metadata",
      "outputs": [
        {
          "name": "",
          "type": "string"
        }
      ],
      "payable": false,
      "stateMutability": "view",
      "type": "function"
    },
    {
      "constant": false,
      "inputs": [
        {
          "name": "question_id",
          "type": "bytes32"
        },
        {
          "name": "fee",
          "type": "uint256"
        }
      ],
      "name": "setCustomDisputeFee",
      "outputs": [],
      "payable": false,
      "stateMutability": "nonpayable",
      "type": "function"
    },
    {
      "constant": false,
      "inputs": [
        {
          "name": "fee",
          "type": "uint256"
        }
      ],
      "name": "setQuestionFee",
      "outputs": [],
      "payable": false,
      "stateMutability": "nonpayable",
      "type": "function"
    },
    {
      "constant": false,
      "inputs": [
        {
          "name": "addr",
          "type": "address"
        }
      ],
      "name": "withdraw",
      "outputs": [],
      "payable": false,
      "stateMutability": "nonpayable",
      "type": "function"
    },
    {
      "constant": false,
      "inputs": [
        {
          "name": "addr",
          "type": "address"
        }
      ],
      "name": "setRealitio",
      "outputs": [],
      "payable": false,
      "stateMutability": "nonpayable",
      "type": "function"
    },
    {
      "constant": true,
      "inputs": [],
      "name": "owner",
      "outputs": [
        {
          "name": "",
          "type": "address"
        }
      ],
      "payable": false,
      "stateMutability": "view",
      "type": "function"
    },
    {
      "constant": false,
      "inputs": [
        {
          "name": "_token",
          "type": "address"
        },
        {
          "name": "addr",
          "type": "address"
        }
      ],
      "name": "withdrawERC20",
      "outputs": [],
      "payable": false,
      "stateMutability": "nonpayable",
      "type": "function"
    },
    {
      "constant": true,
      "inputs": [
        {
          "name": "",
          "type": "bytes32"
        }
      ],
      "name": "arbitration_bounties",
      "outputs": [
        {
          "name": "",
          "type": "uint256"
        }
      ],
      "payable": false,
      "stateMutability": "view",
      "type": "function"
    },
    {
      "constant": true,
      "inputs": [
        {
          "name": "question_id",
          "type": "bytes32"
        }
      ],
      "name": "getDisputeFee",
      "outputs": [
        {
          "name": "",
          "type": "uint256"
        }
      ],
      "payable": false,
      "stateMutability": "view",
      "type": "function"
    },
    {
      "constant": false,
      "inputs": [
        {
          "name": "question_id",
          "type": "bytes32"
        },
        {
          "name": "max_previous",
          "type": "uint256"
        }
      ],
      "name": "requestArbitration",
      "outputs": [
        {
          "name": "",
          "type": "bool"
        }
      ],
      "payable": true,
      "stateMutability": "payable",
      "type": "function"
    },
    {
      "constant": true,
      "inputs": [],
      "name": "realitio",
      "outputs": [
        {
          "name": "",
          "type": "address"
        }
      ],
      "payable": false,
      "stateMutability": "view",
      "type": "function"
    },
    {
      "constant": false,
      "inputs": [
        {
          "name": "_metadata",
          "type": "string"
        }
      ],
      "name": "setMetaData",
      "outputs": [],
      "payable": false,
      "stateMutability": "nonpayable",
      "type": "function"
    },
    {
      "constant": false,
      "inputs": [
        {
          "name": "newOwner",
          "type": "address"
        }
      ],
      "name": "transferOwnership",
      "outputs": [],
      "payable": false,
      "stateMutability": "nonpayable",
      "type": "function"
    },
    {
      "constant": false,
      "inputs": [
        {
          "name": "question_id",
          "type": "bytes32"
        },
        {
          "name": "answer",
          "type": "bytes32"
        },
        {
          "name": "answerer",
          "type": "address"
        }
      ],
      "name": "submitAnswerByArbitrator",
      "outputs": [],
      "payable": false,
      "stateMutability": "nonpayable",
      "type": "function"
    },
    {
      "payable": true,
      "stateMutability": "payable",
      "type": "fallback"
    },
    {
      "anonymous": false,
      "inputs": [
        {
          "indexed": true,
          "name": "question_id",
          "type": "bytes32"
        },
        {
          "indexed": false,
          "name": "fee_paid",
          "type": "uint256"
        },
        {
          "indexed": false,
          "name": "requester",
          "type": "address"
        },
        {
          "indexed": false,
          "name": "remaining",
          "type": "uint256"
        }
      ],
      "name": "LogRequestArbitration",
      "type": "event"
    },
    {
      "anonymous": false,
      "inputs": [
        {
          "indexed": false,
          "name": "realitio",
          "type": "address"
        }
      ],
      "name": "LogSetRealitio",
      "type": "event"
    },
    {
      "anonymous": false,
      "inputs": [
        {
          "indexed": false,
          "name": "fee",
          "type": "uint256"
        }
      ],
      "name": "LogSetQuestionFee",
      "type": "event"
    },
    {
      "anonymous": false,
      "inputs": [
        {
          "indexed": false,
          "name": "fee",
          "type": "uint256"
        }
      ],
      "name": "LogSetDisputeFee",
      "type": "event"
    },
    {
      "anonymous": false,
      "inputs": [
        {
          "indexed": true,
          "name": "question_id",
          "type": "bytes32"
        },
        {
          "indexed": false,
          "name": "fee",
          "type": "uint256"
        }
      ],
      "name": "LogSetCustomDisputeFee",
      "type": "event"
    },
    {
      "constant": false,
      "inputs": [],
      "name": "callWithdraw",
      "outputs": [],
      "payable": false,
      "stateMutability": "nonpayable",
      "type": "function"
    },
    {
      "constant": false,
      "inputs": [
        {
          "name": "_token",
          "type": "address"
        }
      ],
      "name": "withdrawToRegisteredWalletERC20",
      "outputs": [],
      "payable": false,
      "stateMutability": "nonpayable",
      "type": "function"
    },
    {
      "constant": false,
      "inputs": [],
      "name": "withdrawToRegisteredWallet",
      "outputs": [],
      "payable": false,
      "stateMutability": "nonpayable",
      "type": "function"
    },
    {
      "constant": false,
      "inputs": [
        {
          "name": "addr",
          "type": "address"
        }
      ],
      "name": "updateRegisteredWallet",
      "outputs": [],
      "payable": false,
      "stateMutability": "nonpayable",
      "type": "function"
    }
  ],
  "bytecode": "0x608060405260008054600160a060020a03199081163390811790911617905561106d8061002d6000396000f3006080604052600436106101115763ffffffff7c01000000000000000000000000000000000000000000000000000000006000350416630c2a48e2811461011357806317299c0414610144578063392f37e91461015c5780634102441e146101e65780634381a07b146102075780634df6ca2a1461022257806351cff8d91461023a57806379ca21a21461025b5780637a3996a31461027c5780638da5cb5b146102915780639456fbcc146102a6578063a0eee214146102cd578063a20dd43b146102ee578063a22352e214610318578063a829c3d114610330578063bc8802a214610352578063d821f81a14610367578063dad901be146103c0578063f2fde38b146103d5578063fe92049d146103f6575b005b34801561011f57600080fd5b5061012861041d565b60408051600160a060020a039092168252519081900360200190f35b34801561015057600080fd5b5061011160043561042d565b34801561016857600080fd5b5061017161047f565b6040805160208082528351818301528351919283929083019185019080838360005b838110156101ab578181015183820152602001610193565b50505050905090810190601f1680156101d85780820380516001836020036101000a031916815260200191505b509250505060405180910390f35b3480156101f257600080fd5b50610111600160a060020a036004351661050d565b34801561021357600080fd5b50610111600435602435610553565b34801561022e57600080fd5b506101116004356105b5565b34801561024657600080fd5b50610111600160a060020a0360043516610681565b34801561026757600080fd5b50610111600160a060020a03600435166106d2565b34801561028857600080fd5b5061011161074a565b34801561029d57600080fd5b506101286107e9565b3480156102b257600080fd5b50610111600160a060020a03600435811690602435166107f8565b3480156102d957600080fd5b50610111600160a060020a036004351661093d565b3480156102fa57600080fd5b50610306600435610ad1565b60408051918252519081900360200190f35b34801561032457600080fd5b50610306600435610ae3565b61033e600435602435610b16565b604080519115158252519081900360200190f35b34801561035e57600080fd5b50610128610df6565b34801561037357600080fd5b506040805160206004803580820135601f8101849004840285018401909552848452610111943694929360249392840191908190840183828082843750949750610e059650505050505050565b3480156103cc57600080fd5b50610111610e2f565b3480156103e157600080fd5b50610111600160a060020a0360043516610eaf565b34801561040257600080fd5b50610111600435602435600160a060020a0360443516610ef5565b600154600160a060020a03165b90565b600054600160a060020a0316331461044457600080fd5b60038190556040805182815290517fbc1292d8ca346c1397b1176ce2935afd34c4365fece415b14e3a9242eae388f59181900360200190a150565b6005805460408051602060026001851615610100026000190190941693909304601f810184900484028201840190925281815292918301828280156105055780601f106104da57610100808354040283529160200191610505565b820191906000526020600020905b8154815290600101906020018083116104e857829003601f168201915b505050505081565b600054600160a060020a0316331461052457600080fd5b6006805473ffffffffffffffffffffffffffffffffffffffff1916600160a060020a0392909216919091179055565b600054600160a060020a0316331461056a57600080fd5b6000828152600460209081526040918290208390558151838152915184927fe4887440991624b147d2129ab0befa8c1df4cff87b22513c8eea7cb16ed2aaf292908290030190a25050565b600054600160a060020a031633146105cc57600080fd5b600154604080517f4df6ca2a000000000000000000000000000000000000000000000000000000008152600481018490529051600160a060020a0390921691634df6ca2a9160248082019260009290919082900301818387803b15801561063257600080fd5b505af1158015610646573d6000803e3d6000fd5b50506040805184815290517f173ec7037500587e8ac3402cac8426c5c2bac605eabd93f790422e621633d7119350908190036020019150a150565b600054600160a060020a0316331461069857600080fd5b604051600160a060020a03821690303180156108fc02916000818181858888f193505050501580156106ce573d6000803e3d6000fd5b5050565b600054600160a060020a031633146106e957600080fd5b60018054600160a060020a03831673ffffffffffffffffffffffffffffffffffffffff19909116811790915560408051918252517f568b4ce4fc4d09c939362effe33053025b93088cab521fc476f469966c7efdd59181900360200190a150565b600654600160a060020a031615156107ac576040805160e560020a62461bcd02815260206004820152601760248201527f4e6f2077616c6c65742069732072656769737465726564000000000000000000604482015290519081900360640190fd5b600654604051600160a060020a0390911690303180156108fc02916000818181858888f193505050501580156107e6573d6000803e3d6000fd5b50565b600054600160a060020a031681565b60008054600160a060020a0316331461081057600080fd5b604080517f70a082310000000000000000000000000000000000000000000000000000000081523060048201529051600160a060020a038516916370a082319160248083019260209291908290030181600087803b15801561087157600080fd5b505af1158015610885573d6000803e3d6000fd5b505050506040513d602081101561089b57600080fd5b5051604080517fa9059cbb000000000000000000000000000000000000000000000000000000008152600160a060020a0385811660048301526024820184905291519293509085169163a9059cbb916044808201926020929091908290030181600087803b15801561090c57600080fd5b505af1158015610920573d6000803e3d6000fd5b505050506040513d602081101561093657600080fd5b5050505050565b600654600090600160a060020a031615156109a2576040805160e560020a62461bcd02815260206004820152601760248201527f4e6f2077616c6c65742069732072656769737465726564000000000000000000604482015290519081900360640190fd5b604080517f70a082310000000000000000000000000000000000000000000000000000000081523060048201529051600160a060020a038416916370a082319160248083019260209291908290030181600087803b158015610a0357600080fd5b505af1158015610a17573d6000803e3d6000fd5b505050506040513d6020811015610a2d57600080fd5b5051600654604080517fa9059cbb000000000000000000000000000000000000000000000000000000008152600160a060020a0392831660048201526024810184905290519293509084169163a9059cbb916044808201926020929091908290030181600087803b158015610aa157600080fd5b505af1158015610ab5573d6000803e3d6000fd5b505050506040513d6020811015610acb57600080fd5b50505050565b60026020526000908152604090205481565b6000818152600460205260408120548110610b0057600354610b10565b6000828152600460205260409020545b92915050565b6000806000610b2485610ae3565b915060008211610ba4576040805160e560020a62461bcd02815260206004820152603c60248201527f5468652061726269747261746f72206d7573742068617665207365742061206e60448201527f6f6e2d7a65726f2066656520666f7220746865207175657374696f6e00000000606482015290519081900360840190fd5b5060008481526002602052604090208054340190819055818110610c9857600154604080517ff6a94ecb00000000000000000000000000000000000000000000000000000000815260048101889052336024820152604481018790529051600160a060020a039092169163f6a94ecb9160648082019260009290919082900301818387803b158015610c3557600080fd5b505af1158015610c49573d6000803e3d6000fd5b50506040805134815233602082015260008183015290518893507fdf8a830581aa05b0b824a0c184007c33a1ad9100a41751c9ded9f2b4fefb16ba92509081900360600190a260019250610dee565b600154604080517f7f8d429e000000000000000000000000000000000000000000000000000000008152600481018890529051600160a060020a0390921691637f8d429e916024808201926020929091908290030181600087803b158015610cff57600080fd5b505af1158015610d13573d6000803e3d6000fd5b505050506040513d6020811015610d2957600080fd5b505115610da6576040805160e560020a62461bcd02815260206004820152602960248201527f546865207175657374696f6e206d757374206e6f742068617665206265656e2060448201527f66696e616c697a65640000000000000000000000000000000000000000000000606482015290519081900360840190fd5b6040805134815233602082015282840381830152905186917fdf8a830581aa05b0b824a0c184007c33a1ad9100a41751c9ded9f2b4fefb16ba919081900360600190a2600092505b505092915050565b600154600160a060020a031681565b600054600160a060020a03163314610e1c57600080fd5b80516106ce906005906020840190610fa9565b600160009054906101000a9004600160a060020a0316600160a060020a0316633ccfd60b6040518163ffffffff167c0100000000000000000000000000000000000000000000000000000000028152600401600060405180830381600087803b158015610e9b57600080fd5b505af1158015610acb573d6000803e3d6000fd5b600054600160a060020a03163314610ec657600080fd5b6000805473ffffffffffffffffffffffffffffffffffffffff1916600160a060020a0392909216919091179055565b600054600160a060020a03163314610f0c57600080fd5b60008381526002602052604080822082905560015481517ffe92049d0000000000000000000000000000000000000000000000000000000081526004810187905260248101869052600160a060020a0385811660448301529251929091169263fe92049d9260648084019382900301818387803b158015610f8c57600080fd5b505af1158015610fa0573d6000803e3d6000fd5b50505050505050565b828054600181600116156101000203166002900490600052602060002090601f016020900481019282601f10610fea57805160ff1916838001178555611017565b82800160010185558215611017579182015b82811115611017578251825591602001919060010190610ffc565b50611023929150611027565b5090565b61042a91905b80821115611023576000815560010161102d5600a165627a7a72305820b15c4e48882eec13ab4f44bf2edf9f3025a52d3e32e399fc9ca4b3db6ee8c76c0029",
  "source": "pragma solidity ^0.4.24;\n\nimport './Arbitrator.sol';\nimport './IERC20.sol';\n\n/*\nThis contract extends the standard Arbitrator contract to make it possible to make routine fund withdrawals to an address pre-registered by the owner without actually being the owner.\n\nWe do this to facilitate controlling Arbitrator contracts using multisig wallets, which should require multiple sign-offs to allow validation and fee-settings tasks, but users should be able to withdraw their own share of the funds without anyone else's permission. This can be done in combination with our SplitterWallet contract.\n*/\n\ncontract RegisteredWalletArbitrator is Arbitrator {\n\n    address registered_wallet;\n\n    /// @notice Withdraw any accumulated question fees from the specified address into this contract\n    /// @dev Funds can then be liberated from this contract with our withdraw() function\n    /// @dev Usually the arbitrator calls this, but if someone else does that's OK too\n    function callWithdraw() \n    public {\n        realitio.withdraw(); \n    }\n\n    /// @notice Withdraw money from the arbitrator contract to our registered wallet\n    function withdrawToRegisteredWalletERC20(IERC20 _token)\n    external {\n        require(registered_wallet != 0x0, \"No wallet is registered\");\n        uint256 bal = _token.balanceOf(address(this));\n        _token.transfer(registered_wallet, bal);\n    }\n\n    /// @notice Withdraw money from the arbitrator contract to our registered wallet\n    function withdrawToRegisteredWallet()\n    external {\n        require(registered_wallet != 0x0, \"No wallet is registered\");\n        registered_wallet.transfer(address(this).balance);\n    }\n\n    /// @notice Change the address of our registered wallet\n    /// @param addr The address of the new wallet\n    /// @dev Set to 0x0 to not use the registered wallet\n    function updateRegisteredWallet(address addr) \n        onlyOwner\n    external {\n        registered_wallet= addr;\n    }\n\n}\n",
  "sourcePath": "/home/ed/working/realitio-contracts-newtest/truffle/contracts/RegisteredWalletArbitrator.sol",
  "compiler": {
    "name": "solc",
    "version": "0.4.25+commit.59dbf8f1.Emscripten.clang"
  },
  "schemaVersion": "2.0.2",
  "updatedAt": "2019-06-04T09:09:21.983Z"
}