{
  "contractName": "RegisteredWalletArbitrator",
  "abi": [
    {
      "constant": true,
      "inputs": [],
      "name": "realitycheck",
      "outputs": [
        {
          "name": "",
          "type": "address"
        }
      ],
      "payable": false,
      "stateMutability": "view",
      "type": "function",
      "signature": "0x0c2a48e2"
    },
    {
      "constant": false,
      "inputs": [
        {
          "name": "fee",
          "type": "uint256"
        }
      ],
      "name": "setDisputeFee",
      "outputs": [],
      "payable": false,
      "stateMutability": "nonpayable",
      "type": "function",
      "signature": "0x17299c04"
    },
    {
      "constant": true,
      "inputs": [],
      "name": "metadata",
      "outputs": [
        {
          "name": "",
          "type": "string"
        }
      ],
      "payable": false,
      "stateMutability": "view",
      "type": "function",
      "signature": "0x392f37e9"
    },
    {
      "constant": false,
      "inputs": [
        {
          "name": "question_id",
          "type": "bytes32"
        },
        {
          "name": "fee",
          "type": "uint256"
        }
      ],
      "name": "setCustomDisputeFee",
      "outputs": [],
      "payable": false,
      "stateMutability": "nonpayable",
      "type": "function",
      "signature": "0x4381a07b"
    },
    {
      "constant": false,
      "inputs": [
        {
          "name": "fee",
          "type": "uint256"
        }
      ],
      "name": "setQuestionFee",
      "outputs": [],
      "payable": false,
      "stateMutability": "nonpayable",
      "type": "function",
      "signature": "0x4df6ca2a"
    },
    {
      "constant": false,
      "inputs": [
        {
          "name": "addr",
          "type": "address"
        }
      ],
      "name": "withdraw",
      "outputs": [],
      "payable": false,
      "stateMutability": "nonpayable",
      "type": "function",
      "signature": "0x51cff8d9"
    },
    {
      "constant": false,
      "inputs": [
        {
          "name": "addr",
          "type": "address"
        }
      ],
      "name": "setRealitio",
      "outputs": [],
      "payable": false,
      "stateMutability": "nonpayable",
      "type": "function",
      "signature": "0x79ca21a2"
    },
    {
      "constant": true,
      "inputs": [],
      "name": "owner",
      "outputs": [
        {
          "name": "",
          "type": "address"
        }
      ],
      "payable": false,
      "stateMutability": "view",
      "type": "function",
      "signature": "0x8da5cb5b"
    },
    {
      "constant": true,
      "inputs": [
        {
          "name": "",
          "type": "bytes32"
        }
      ],
      "name": "arbitration_bounties",
      "outputs": [
        {
          "name": "",
          "type": "uint256"
        }
      ],
      "payable": false,
      "stateMutability": "view",
      "type": "function",
      "signature": "0xa20dd43b"
    },
    {
      "constant": true,
      "inputs": [
        {
          "name": "question_id",
          "type": "bytes32"
        }
      ],
      "name": "getDisputeFee",
      "outputs": [
        {
          "name": "",
          "type": "uint256"
        }
      ],
      "payable": false,
      "stateMutability": "view",
      "type": "function",
      "signature": "0xa22352e2"
    },
    {
      "constant": false,
      "inputs": [
        {
          "name": "question_id",
          "type": "bytes32"
        },
        {
          "name": "max_previous",
          "type": "uint256"
        }
      ],
      "name": "requestArbitration",
      "outputs": [
        {
          "name": "",
          "type": "bool"
        }
      ],
      "payable": true,
      "stateMutability": "payable",
      "type": "function",
      "signature": "0xa829c3d1"
    },
    {
      "constant": true,
      "inputs": [],
      "name": "realitio",
      "outputs": [
        {
          "name": "",
          "type": "address"
        }
      ],
      "payable": false,
      "stateMutability": "view",
      "type": "function",
      "signature": "0xbc8802a2"
    },
    {
      "constant": false,
      "inputs": [
        {
          "name": "_metadata",
          "type": "string"
        }
      ],
      "name": "setMetaData",
      "outputs": [],
      "payable": false,
      "stateMutability": "nonpayable",
      "type": "function",
      "signature": "0xd821f81a"
    },
    {
      "constant": false,
      "inputs": [
        {
          "name": "newOwner",
          "type": "address"
        }
      ],
      "name": "transferOwnership",
      "outputs": [],
      "payable": false,
      "stateMutability": "nonpayable",
      "type": "function",
      "signature": "0xf2fde38b"
    },
    {
      "constant": false,
      "inputs": [
        {
          "name": "question_id",
          "type": "bytes32"
        },
        {
          "name": "answer",
          "type": "bytes32"
        },
        {
          "name": "answerer",
          "type": "address"
        }
      ],
      "name": "submitAnswerByArbitrator",
      "outputs": [],
      "payable": false,
      "stateMutability": "nonpayable",
      "type": "function",
      "signature": "0xfe92049d"
    },
    {
      "payable": true,
      "stateMutability": "payable",
      "type": "fallback"
    },
    {
      "anonymous": false,
      "inputs": [
        {
          "indexed": true,
          "name": "question_id",
          "type": "bytes32"
        },
        {
          "indexed": false,
          "name": "fee_paid",
          "type": "uint256"
        },
        {
          "indexed": false,
          "name": "requester",
          "type": "address"
        },
        {
          "indexed": false,
          "name": "remaining",
          "type": "uint256"
        }
      ],
      "name": "LogRequestArbitration",
      "type": "event",
      "signature": "0xdf8a830581aa05b0b824a0c184007c33a1ad9100a41751c9ded9f2b4fefb16ba"
    },
    {
      "anonymous": false,
      "inputs": [
        {
          "indexed": false,
          "name": "realitio",
          "type": "address"
        }
      ],
      "name": "LogSetRealitio",
      "type": "event",
      "signature": "0x568b4ce4fc4d09c939362effe33053025b93088cab521fc476f469966c7efdd5"
    },
    {
      "anonymous": false,
      "inputs": [
        {
          "indexed": false,
          "name": "fee",
          "type": "uint256"
        }
      ],
      "name": "LogSetQuestionFee",
      "type": "event",
      "signature": "0x173ec7037500587e8ac3402cac8426c5c2bac605eabd93f790422e621633d711"
    },
    {
      "anonymous": false,
      "inputs": [
        {
          "indexed": false,
          "name": "fee",
          "type": "uint256"
        }
      ],
      "name": "LogSetDisputeFee",
      "type": "event",
      "signature": "0xbc1292d8ca346c1397b1176ce2935afd34c4365fece415b14e3a9242eae388f5"
    },
    {
      "anonymous": false,
      "inputs": [
        {
          "indexed": true,
          "name": "question_id",
          "type": "bytes32"
        },
        {
          "indexed": false,
          "name": "fee",
          "type": "uint256"
        }
      ],
      "name": "LogSetCustomDisputeFee",
      "type": "event",
      "signature": "0xe4887440991624b147d2129ab0befa8c1df4cff87b22513c8eea7cb16ed2aaf2"
    },
    {
      "constant": false,
      "inputs": [],
      "name": "callWithdraw",
      "outputs": [],
      "payable": false,
      "stateMutability": "nonpayable",
      "type": "function",
      "signature": "0xdad901be"
    },
    {
      "constant": false,
      "inputs": [],
      "name": "withdrawToRegisteredWallet",
      "outputs": [],
      "payable": false,
      "stateMutability": "nonpayable",
      "type": "function",
      "signature": "0x7a3996a3"
    },
    {
      "constant": false,
      "inputs": [
        {
          "name": "addr",
          "type": "address"
        }
      ],
      "name": "updateRegisteredWallet",
      "outputs": [],
      "payable": false,
      "stateMutability": "nonpayable",
      "type": "function",
      "signature": "0x4102441e"
    }
  ],
  "bytecode": "0x608060405260008054600160a060020a031990811633908117909116179055610d818061002d6000396000f3006080604052600436106100fb5763ffffffff7c01000000000000000000000000000000000000000000000000000000006000350416630c2a48e281146100fd57806317299c041461012e578063392f37e9146101465780634102441e146101d05780634381a07b146101f15780634df6ca2a1461020c57806351cff8d91461022457806379ca21a2146102455780637a3996a3146102665780638da5cb5b1461027b578063a20dd43b14610290578063a22352e2146102ba578063a829c3d1146102d2578063bc8802a2146102f4578063d821f81a14610309578063dad901be14610362578063f2fde38b14610377578063fe92049d14610398575b005b34801561010957600080fd5b506101126103bf565b60408051600160a060020a039092168252519081900360200190f35b34801561013a57600080fd5b506100fb6004356103cf565b34801561015257600080fd5b5061015b610421565b6040805160208082528351818301528351919283929083019185019080838360005b8381101561019557818101518382015260200161017d565b50505050905090810190601f1680156101c25780820380516001836020036101000a031916815260200191505b509250505060405180910390f35b3480156101dc57600080fd5b506100fb600160a060020a03600435166104af565b3480156101fd57600080fd5b506100fb6004356024356104f5565b34801561021857600080fd5b506100fb600435610557565b34801561023057600080fd5b506100fb600160a060020a0360043516610623565b34801561025157600080fd5b506100fb600160a060020a0360043516610674565b34801561027257600080fd5b506100fb6106ec565b34801561028757600080fd5b506101126107a2565b34801561029c57600080fd5b506102a86004356107b1565b60408051918252519081900360200190f35b3480156102c657600080fd5b506102a86004356107c3565b6102e06004356024356107f6565b604080519115158252519081900360200190f35b34801561030057600080fd5b50610112610b04565b34801561031557600080fd5b506040805160206004803580820135601f81018490048402850184019095528484526100fb943694929360249392840191908190840183828082843750949750610b139650505050505050565b34801561036e57600080fd5b506100fb610b3d565b34801561038357600080fd5b506100fb600160a060020a0360043516610bc3565b3480156103a457600080fd5b506100fb600435602435600160a060020a0360443516610c09565b600154600160a060020a03165b90565b600054600160a060020a031633146103e657600080fd5b60038190556040805182815290517fbc1292d8ca346c1397b1176ce2935afd34c4365fece415b14e3a9242eae388f59181900360200190a150565b6005805460408051602060026001851615610100026000190190941693909304601f810184900484028201840190925281815292918301828280156104a75780601f1061047c576101008083540402835291602001916104a7565b820191906000526020600020905b81548152906001019060200180831161048a57829003601f168201915b505050505081565b600054600160a060020a031633146104c657600080fd5b6006805473ffffffffffffffffffffffffffffffffffffffff1916600160a060020a0392909216919091179055565b600054600160a060020a0316331461050c57600080fd5b6000828152600460209081526040918290208390558151838152915184927fe4887440991624b147d2129ab0befa8c1df4cff87b22513c8eea7cb16ed2aaf292908290030190a25050565b600054600160a060020a0316331461056e57600080fd5b600154604080517f4df6ca2a000000000000000000000000000000000000000000000000000000008152600481018490529051600160a060020a0390921691634df6ca2a9160248082019260009290919082900301818387803b1580156105d457600080fd5b505af11580156105e8573d6000803e3d6000fd5b50506040805184815290517f173ec7037500587e8ac3402cac8426c5c2bac605eabd93f790422e621633d7119350908190036020019150a150565b600054600160a060020a0316331461063a57600080fd5b604051600160a060020a03821690303180156108fc02916000818181858888f19350505050158015610670573d6000803e3d6000fd5b5050565b600054600160a060020a0316331461068b57600080fd5b60018054600160a060020a03831673ffffffffffffffffffffffffffffffffffffffff19909116811790915560408051918252517f568b4ce4fc4d09c939362effe33053025b93088cab521fc476f469966c7efdd59181900360200190a150565b600654600160a060020a0316151561076557604080517f08c379a000000000000000000000000000000000000000000000000000000000815260206004820152601760248201527f4e6f2077616c6c65742069732072656769737465726564000000000000000000604482015290519081900360640190fd5b600654604051600160a060020a0390911690303180156108fc02916000818181858888f1935050505015801561079f573d6000803e3d6000fd5b50565b600054600160a060020a031681565b60026020526000908152604090205481565b60008181526004602052604081205481106107e0576003546107f0565b6000828152600460205260409020545b92915050565b6000806000610804856107c3565b91506000821161089b57604080517f08c379a000000000000000000000000000000000000000000000000000000000815260206004820152603c60248201527f5468652061726269747261746f72206d7573742068617665207365742061206e60448201527f6f6e2d7a65726f2066656520666f7220746865207175657374696f6e00000000606482015290519081900360840190fd5b506000848152600260205260409020805434019081905581811061098f57600154604080517ff6a94ecb00000000000000000000000000000000000000000000000000000000815260048101889052336024820152604481018790529051600160a060020a039092169163f6a94ecb9160648082019260009290919082900301818387803b15801561092c57600080fd5b505af1158015610940573d6000803e3d6000fd5b50506040805134815233602082015260008183015290518893507fdf8a830581aa05b0b824a0c184007c33a1ad9100a41751c9ded9f2b4fefb16ba92509081900360600190a260019250610afc565b600154604080517f7f8d429e000000000000000000000000000000000000000000000000000000008152600481018890529051600160a060020a0390921691637f8d429e916024808201926020929091908290030181600087803b1580156109f657600080fd5b505af1158015610a0a573d6000803e3d6000fd5b505050506040513d6020811015610a2057600080fd5b505115610ab457604080517f08c379a000000000000000000000000000000000000000000000000000000000815260206004820152602960248201527f546865207175657374696f6e206d757374206e6f742068617665206265656e2060448201527f66696e616c697a65640000000000000000000000000000000000000000000000606482015290519081900360840190fd5b6040805134815233602082015282840381830152905186917fdf8a830581aa05b0b824a0c184007c33a1ad9100a41751c9ded9f2b4fefb16ba919081900360600190a2600092505b505092915050565b600154600160a060020a031681565b600054600160a060020a03163314610b2a57600080fd5b8051610670906005906020840190610cbd565b600160009054906101000a9004600160a060020a0316600160a060020a0316633ccfd60b6040518163ffffffff167c0100000000000000000000000000000000000000000000000000000000028152600401600060405180830381600087803b158015610ba957600080fd5b505af1158015610bbd573d6000803e3d6000fd5b50505050565b600054600160a060020a03163314610bda57600080fd5b6000805473ffffffffffffffffffffffffffffffffffffffff1916600160a060020a0392909216919091179055565b600054600160a060020a03163314610c2057600080fd5b60008381526002602052604080822082905560015481517ffe92049d0000000000000000000000000000000000000000000000000000000081526004810187905260248101869052600160a060020a0385811660448301529251929091169263fe92049d9260648084019382900301818387803b158015610ca057600080fd5b505af1158015610cb4573d6000803e3d6000fd5b50505050505050565b828054600181600116156101000203166002900490600052602060002090601f016020900481019282601f10610cfe57805160ff1916838001178555610d2b565b82800160010185558215610d2b579182015b82811115610d2b578251825591602001919060010190610d10565b50610d37929150610d3b565b5090565b6103cc91905b80821115610d375760008155600101610d415600a165627a7a72305820f1a5b02d8260aeca1802eccf4d2e4c762491ff03b37c8ad1f4a23aa8d7c5801d0029",
  "source": "pragma solidity ^0.4.24;\n\nimport './Arbitrator.sol';\n\n/*\nThis contract extends the standard Arbitrator contract to make it possible to make routine fund withdrawals to an address pre-registered by the owner without actually being the owner.\n\nWe do this to facilitate controlling Arbitrator contracts using multisig wallets, which should require multiple sign-offs to allow validation and fee-settings tasks, but users should be able to withdraw their own share of the funds without anyone else's permission. This can be done in combination with our SplitterWallet contract.\n*/\n\ncontract RegisteredWalletArbitrator is Arbitrator {\n\n    address registered_wallet;\n\n    /// @notice Withdraw any accumulated question fees from the specified address into this contract\n    /// @dev Funds can then be liberated from this contract with our withdraw() function\n    /// @dev Usually the arbitrator calls this, but if someone else does that's OK too\n    function callWithdraw() \n    public {\n        realitio.withdraw(); \n    }\n\n    /// @notice Withdraw money from the arbitrator contract to our registered wallet\n    function withdrawToRegisteredWallet()\n    external {\n        require(registered_wallet != 0x0, \"No wallet is registered\");\n        registered_wallet.transfer(address(this).balance);\n    }\n\n    /// @notice Change the address of our registered wallet\n    /// @param addr The address of the new wallet\n    /// @dev Set to 0x0 to not use the registered wallet\n    function updateRegisteredWallet(address addr) \n        onlyOwner\n    external {\n        registered_wallet= addr;\n    }\n\n}\n",
  "sourcePath": "/home/ed/working/realitio-contracts/truffle/contracts/RegisteredWalletArbitrator.sol",
  "compiler": {
    "name": "solc",
    "version": "0.4.25+commit.59dbf8f1.Emscripten.clang"
  },
  "schemaVersion": "3.0.0-beta.1",
  "updatedAt": "2018-11-21T05:04:53.509Z"
}