{
  "contractName": "SplitterWallet",
  "abi": [
    {
      "constant": true,
      "inputs": [],
      "name": "balanceTotal",
      "outputs": [
        {
          "name": "",
          "type": "uint256"
        }
      ],
      "payable": false,
      "stateMutability": "view",
      "type": "function"
    },
    {
      "constant": true,
      "inputs": [
        {
          "name": "",
          "type": "address"
        }
      ],
      "name": "balanceOf",
      "outputs": [
        {
          "name": "",
          "type": "uint256"
        }
      ],
      "payable": false,
      "stateMutability": "view",
      "type": "function"
    },
    {
      "constant": true,
      "inputs": [],
      "name": "owner",
      "outputs": [
        {
          "name": "",
          "type": "address"
        }
      ],
      "payable": false,
      "stateMutability": "view",
      "type": "function"
    },
    {
      "constant": true,
      "inputs": [
        {
          "name": "",
          "type": "uint256"
        }
      ],
      "name": "recipients",
      "outputs": [
        {
          "name": "",
          "type": "address"
        }
      ],
      "payable": false,
      "stateMutability": "view",
      "type": "function"
    },
    {
      "constant": false,
      "inputs": [
        {
          "name": "newOwner",
          "type": "address"
        }
      ],
      "name": "transferOwnership",
      "outputs": [],
      "payable": false,
      "stateMutability": "nonpayable",
      "type": "function"
    },
    {
      "payable": true,
      "stateMutability": "payable",
      "type": "fallback"
    },
    {
      "anonymous": false,
      "inputs": [
        {
          "indexed": true,
          "name": "user",
          "type": "address"
        },
        {
          "indexed": false,
          "name": "amount",
          "type": "uint256"
        }
      ],
      "name": "LogWithdraw",
      "type": "event"
    },
    {
      "constant": false,
      "inputs": [
        {
          "name": "addr",
          "type": "address"
        }
      ],
      "name": "addRecipient",
      "outputs": [],
      "payable": false,
      "stateMutability": "nonpayable",
      "type": "function"
    },
    {
      "constant": false,
      "inputs": [
        {
          "name": "old_addr",
          "type": "address"
        }
      ],
      "name": "removeRecipient",
      "outputs": [],
      "payable": false,
      "stateMutability": "nonpayable",
      "type": "function"
    },
    {
      "constant": false,
      "inputs": [
        {
          "name": "new_addr",
          "type": "address"
        }
      ],
      "name": "replaceSelf",
      "outputs": [],
      "payable": false,
      "stateMutability": "nonpayable",
      "type": "function"
    },
    {
      "constant": false,
      "inputs": [],
      "name": "allocate",
      "outputs": [],
      "payable": false,
      "stateMutability": "nonpayable",
      "type": "function"
    },
    {
      "constant": false,
      "inputs": [],
      "name": "withdraw",
      "outputs": [],
      "payable": false,
      "stateMutability": "nonpayable",
      "type": "function"
    }
  ],
  "bytecode": "0x608060405260008054600160a060020a031916331790556108a2806100256000396000f3006080604052600436106100a35763ffffffff7c010000000000000000000000000000000000000000000000000000000060003504166312a2919881146100a55780631c3101d3146100c65780633ccfd60b146100e757806342b8c415146100fc5780634a3f864b1461012357806370a08231146101445780638da5cb5b14610165578063abaa991614610196578063d1bc76a1146101ab578063f2fde38b146101c3575b005b3480156100b157600080fd5b506100a3600160a060020a03600435166101e4565b3480156100d257600080fd5b506100a3600160a060020a03600435166102c9565b3480156100f357600080fd5b506100a3610399565b34801561010857600080fd5b50610111610498565b60408051918252519081900360200190f35b34801561012f57600080fd5b506100a3600160a060020a036004351661049e565b34801561015057600080fd5b50610111600160a060020a036004351661051a565b34801561017157600080fd5b5061017a61052c565b60408051600160a060020a039092168252519081900360200190f35b3480156101a257600080fd5b506100a361053b565b3480156101b757600080fd5b5061017a6004356106ee565b3480156101cf57600080fd5b506100a3600160a060020a0360043516610716565b600080548190600160a060020a031633146101fe57600080fd5b6102078361075c565b915082600160a060020a031660038381548110151561022257fe5b600091825260209091200154600160a060020a03161461023e57fe5b50600354600019018181146102b057600380548290811061025b57fe5b60009182526020909120015460038054600160a060020a03909216918490811061028157fe5b9060005260206000200160006101000a815481600160a060020a030219169083600160a060020a031602179055505b60038054906102c390600019830161082c565b50505050565b600054600160a060020a031633146102e057600080fd5b60035460641161033a576040805160e560020a62461bcd02815260206004820152601360248201527f546f6f206d616e7920726563697069656e747300000000000000000000000000604482015290519081900360640190fd5b600380546001810182556000919091527fc2575a0e9e593c00f959f8c92f12db2869c3395a3b0502d05e2516446f71f85b01805473ffffffffffffffffffffffffffffffffffffffff1916600160a060020a0392909216919091179055565b33600090815260016020526040812054908111610400576040805160e560020a62461bcd02815260206004820152601860248201527f42616c616e6365206d75737420626520706f7369746976650000000000000000604482015290519081900360640190fd5b600254610413908263ffffffff61080416565b600255336000818152600160205260408082208290555183156108fc0291849190818181858888f19350505050158015610451573d6000803e3d6000fd5b5060408051828152905133917f4ce7033d118120e254016dccf195288400b28fc8936425acd5f17ce2df3ab708919081900360200190a26002543031101561049557fe5b50565b60025481565b60006104a93361075c565b600380549192503391839081106104bc57fe5b600091825260209091200154600160a060020a0316146104d857fe5b816003828154811015156104e857fe5b9060005260206000200160006101000a815481600160a060020a030219169083600160a060020a031602179055505050565b60016020526000908152604090205481565b600054600160a060020a031681565b600080600080600061056260025430600160a060020a03163161080490919063ffffffff16565b9450600085116105bc576040805160e560020a62461bcd02815260206004820152601460248201527f4e6f2066756e647320746f20616c6c6f63617465000000000000000000000000604482015290519081900360640190fd5b600354935083858115156105cc57fe5b0492506000831161064d576040805160e560020a62461bcd02815260206004820152603160248201527f4e6f206d6f6e6579206c65667420746f20626520616c6c6f636174656420616660448201527f74657220726f756e64696e6720646f776e000000000000000000000000000000606482015290519081900360840190fd5b600091505b838210156106da57600380548390811061066857fe5b6000918252602080832090910154600160a060020a031680835260019091526040909120549091506106a0908463ffffffff61081616565b600160a060020a0382166000908152600160205260409020556002546106cc908463ffffffff61081616565b600255600190910190610652565b600254303110156106e757fe5b5050505050565b60038054829081106106fc57fe5b600091825260209091200154600160a060020a0316905081565b600054600160a060020a0316331461072d57600080fd5b6000805473ffffffffffffffffffffffffffffffffffffffff1916600160a060020a0392909216919091179055565b6000805b6003548110156107ae5782600160a060020a031660038281548110151561078357fe5b600091825260209091200154600160a060020a031614156107a6578091506107fe565b600101610760565b6040805160e560020a62461bcd02815260206004820152601360248201527f526563697069656e74206e6f7420666f756e6400000000000000000000000000604482015290519081900360640190fd5b50919050565b60008282111561081057fe5b50900390565b60008282018381101561082557fe5b9392505050565b81548183558181111561085057600083815260209020610850918101908301610855565b505050565b61087391905b8082111561086f576000815560010161085b565b5090565b905600a165627a7a72305820ca9029923b645eafaa4dceec0c5fbeb1ec3dfb2939ff6442b5b1205ecd7e335c0029",
  "source": "pragma solidity ^0.4.25;\n\nimport './Owned.sol';\nimport './RealitioSafeMath256.sol';\n\n/*\nThis contract allows you to split ETH between up to 100 receivers.\n\nEach receiver can withdraw their own share of the funds without the cooperation of the others. \nThey can also replace their own address with a different one.\n\nThe receivers can be added by the `owner` contract, for example a multisig wallet. \nThe same receiver can be added multiple times if you want an unequal distribution.\nTransfer ownership to 0x0 if you want to lock the receiver list and prevent further changes.\n\nThis contract receives ETH normally, without using extra gas that could cause incoming payments to fail.\nAnyone can then call allocate() to assign any unassigned balance to the receivers.\nThe `allocate()` call may leave a small amount of ETH unassigned due to rounding. This can be allocated in a future call.\n\nOnce funds are allocated, each party can withdraw their own funds by calling `withdraw()`.\n*/\n\ncontract SplitterWallet is Owned {\n\n    // We sometimes loop over our recipient list, so set a maximum to avoid gas exhaustion\n    uint256 constant MAX_RECIPIENTS = 100;\n\n    using RealitioSafeMath256 for uint256;\n\n    mapping(address => uint256) public balanceOf;\n    \n    // Sum of all balances in balanceOf\n    uint256 public balanceTotal; \n\n    // List of recipients. May contain duplicates to get paid twice.\n    address[] public recipients;\n\n    event LogWithdraw(\n        address indexed user,\n        uint256 amount\n    );\n\n    function _firstRecipientIndex(address addr) \n        internal\n    view returns (uint256) \n    {\n        uint256 i;\n        for(i=0; i<recipients.length; i++) {\n            if (recipients[i] == addr) {\n                return i;\n            }\n        }\n        revert(\"Recipient not found\");\n    }\n\n    /// @notice Add a recipient to the list\n    /// @param addr The address to add\n    /// @dev Doesn't check for duplicates, it's OK to add the same recipient twice for an unequal distribution\n    function addRecipient(address addr) \n        onlyOwner\n    external {\n        require(recipients.length < MAX_RECIPIENTS, \"Too many recipients\");\n        recipients.push(addr);\n    }\n\n    /// @notice Remove a recipient from the list\n    /// @param old_addr The address to remove\n    /// @dev If your address shows up more than once, removes the first occurance\n    function removeRecipient(address old_addr) \n        onlyOwner\n    external {\n\n        uint256 idx = _firstRecipientIndex(old_addr);\n        assert(recipients[idx] == old_addr);\n\n        // If you're not deleting the last item, copy the last item over to the thing you're deleting\n        uint256 last_idx = recipients.length - 1;\n        if (idx != last_idx) {\n            recipients[idx] = recipients[last_idx];\n        }\n\n        recipients.length--;\n    }\n\n    /// @notice Replace your own address with a different one\n    /// @param new_addr The new address\n    /// @dev If your address shows up more than once, replaces the first occurance\n    function replaceSelf(address new_addr) \n    external {\n        uint256 idx = _firstRecipientIndex(msg.sender);\n        assert(recipients[idx] == msg.sender);\n        recipients[idx] = new_addr;\n    }\n\n    /// @notice Allocate any unallocated funds from the contract balance\n    /// @dev Any time the contract gets funds, they will appear as unallocated\n    /// @dev Assign them to the current recipients, and mark them as allocated\n    function allocate()\n    external {\n\n        uint256 unallocated = address(this).balance.sub(balanceTotal);\n        require(unallocated > 0, \"No funds to allocate\");\n\n        uint256 num_recipients = recipients.length;\n\n        // NB Rounding may leave some funds unallocated, we can claim them later\n        uint256 each = unallocated / num_recipients;\n        require(each > 0, \"No money left to be allocated after rounding down\");\n\n        uint256 i;\n        for (i=0; i<num_recipients; i++) {\n            address recip = recipients[i];\n            balanceOf[recip] = balanceOf[recip].add(each);\n            balanceTotal = balanceTotal.add(each);\n        }\n\n        assert(address(this).balance >= balanceTotal);\n\n    }\n\n    /// @notice Withdraw the address balance to the owner account\n    function withdraw() \n    external {\n\n        uint256 bal = balanceOf[msg.sender];\n        require(bal > 0, \"Balance must be positive\");\n\n        balanceTotal = balanceTotal.sub(bal);\n        balanceOf[msg.sender] = 0;\n        msg.sender.transfer(bal);\n\n        emit LogWithdraw(msg.sender, bal);\n\n        assert(address(this).balance >= balanceTotal);\n\n    }\n\n    function()\n    external payable {\n    }\n\n}\n",
  "sourcePath": "/home/ed/working/realitio-contracts-newtest/truffle/contracts/SplitterWallet.sol",
  "compiler": {
    "name": "solc",
    "version": "0.4.25+commit.59dbf8f1.Emscripten.clang"
  },
  "schemaVersion": "2.0.2",
  "updatedAt": "2019-05-25T02:18:58.921Z"
}